:100000000C943E000C945B000C945B000C945B0021
:100010000C945B000C945B000C94E4030C940E04B1
:100020000C94FB010C945B000C945B000C945B0043
:100030000C945B000C945B000C945B000C945B00D4
:100040000C945B000C945B000C9474010C945B00AA
:100050000C945B000C945B000C945B000C945B00B4
:100060000C945B000C945B000C945B000C945B00A4
:100070000C945B000C945B000C945B0011241FBE7D
:10008000CFEFD8E0DEBFCDBF17E0A0E0B1E0EEE6F5
:10009000FCE102C005900D92AA3EB107D9F718E025
:1000A000AAEEB7E001C01D92A835B107E1F70E94A2
:1000B000500A0C94350E0C940000662311F0469AF9
:1000C00001C0469845983B9A3A9A399A389A40988E
:1000D00041984298439887FD409A86FD419A85FD54
:1000E000429A84FD439A449A00C0449840984198AB
:1000F0004298439883FD409A82FD419A81FD429A3D
:1001000080FD439A449A00C04498439A429A419A87
:10011000409A0895882311F0469A01C04698459A5E
:100120003B983A9839983898449A00C0339B02C05B
:1001300080E101C080E03299806231998064309919
:100140008068449800C0449A00C033998160329915
:10015000826031998460309988604498089580E085
:100160000E948A0087FDFBCF82E090E00197F1F7C3
:1001700080E00E948A0008951F93182F0E94AF000C
:10018000812F60E00E945D001F9108951F93182F3A
:100190000E94AF00812F61E00E945D001F910895D1
:1001A000662311F4805809C0613011F4805405C0F1
:1001B000623011F48C5601C08C520E94BC0008952C
:1001C0000E94AF0090E0089581E00E94BC00089575
:1001D00082E00E94BC0008951F93182F0E94AF0078
:1001E000982F1A3099F4843110F480E40BC08054B5
:1001F000843110F484E106C094519C3210F080E008
:1002000001C084E580580E94BC0018C0833111F4FD
:1002100080EC0BC0833511F484E907C0873211F4F8
:1002200084ED03C0873621F480E860E00E945D0021
:100230000E94AF00812F61E00E945D001F91089530
:10024000CF93DF93EC0102C00E94EC0089918823D8
:10025000D9F7DF91CF910895CF93DF93EC0102C0DE
:100260000E94EC00FE01219684918823C9F7DF915A
:10027000CF9108951F93182F3E9A3D9A3C9A3B9A2E
:100280003A9A399A389A80E89EE30197F1F7429AB0
:10029000439A449A00C0449880E893E10197F1F7AB
:1002A000449A00C0449880E490E0FC013197F1F753
:1002B000449A00C04498FC013197F1F74398449A5E
:1002C00000C044980197F1F788E20E94BC0088E0E2
:1002D0000E94BC000E94E40086E00E94BC00812FC6
:1002E0000E94BC001F9108951F920F920FB60F92AB
:1002F00011242F938F939F9382EB86BD8091570893
:1003000020B1209528278091F00782238095809343
:10031000F0079091EF07922398279093EF0782239D
:100320008923909157089827909357082091560851
:10033000909157088923822B809356088091570803
:10034000877819F482E38093EE078091EE0781505D
:100350008093EE07882359F484E18093EE0790910F
:10036000F107809157088778892B8093F1079F9137
:100370008F912F910F900FBE0F901F901895F894AA
:100380009091560889239091560898279093560883
:1003900078940895F8949091F10789239091F1074A
:1003A00098279093F10778940895F89490915708BE
:1003B000F8942091560890958923822390915608AD
:1003C00098279093560878940895982FF8948091E0
:1003D000F10798238091F10789278093F10778949A
:1003E000F894809156088923909156089827909305
:1003F0005608789408951F920F920FB60F92112409
:100400002C980F900FBE0F901F9018951092C5005A
:1004100023E32093C40096E09093C200E1ECF0E067
:100420008081886080838081806180831092CD008C
:100430002093CC009093CA00E9ECF0E080818860C2
:1004400080838081806180830895982F672B39F4A1
:100450008091C00085FFFCCF9093C60008958091E5
:10046000C80085FFFCCF9093CE0008950F931F9393
:10047000CF93DF93EC018B0104C0B8010E942502E9
:10048000219688818823C9F7DF91CF911F910F9121
:100490000895009739F48091C00087FFFCCF8091C8
:1004A000C6000BC0019719F02FEF3FEF08C08091F5
:1004B000C80087FFFCCF8091CE00282F30E0C90113
:1004C0000895EF92FF920F931F93CF93DF938C01C8
:1004D0007B01C0E0D0E0C7010E9449028D3021F0CD
:1004E000F80181938F012196C436D10524F48D3013
:1004F00011F08A3081F7F8011082F1E0EF16F10473
:1005000011F42B9A01C02A9ADF91CF911F910F917C
:10051000FF90EF90089580E091E060E070E00E942D
:100520003602089541E050E0A8ECB0E061E070E0F0
:1005300021C0FD013197F1F70197D9F725B1CB0122
:10054000042E02C0880F991F0A94E2F78095822337
:1005500085B925B141505040CB01042E02C0880F0F
:10056000991F0A94E2F7282B25B94E5F5F4F493057
:10057000510519F080E293E0DCCF089581B111B804
:1005800082B18FEF82B985E085BD83EF86BDEEE64F
:10059000F0E08081816080837894089585B1880F30
:1005A0008E3F08F4816085B90895F894A895E0E637
:1005B000F0E080818861808389E680837894089563
:1005C0000F931F938B010E94E4008EE191E00E9443
:1005D0002001C8010E9420018EEE92E0A0EDB7E05C
:1005E0001197F1F70197D1F71F910F91089589E2C3
:1005F00091E00E9420018AE391E00E9420018DE4B5
:1006000091E00E9420018CE591E00E942001F89485
:1006100090915608907180915608892780935608CA
:100620007894992331F08EE691E061E070E00E94C9
:1006300036020895CF92DF92EF92FF920F931F93AD
:10064000DF93CF93CDB7DEB761970FB6F894DEBFD7
:100650000FBECDBF6C0182E390E3A0E3B0E08E83D8
:100660009F83A887B9871B861A86DE011C96E4EA59
:10067000F1E085E001900D928150E1F7198A82E363
:1006800090E3A0E3B0E089839A83AB83BC831D82AF
:1006900084E0E82EF12CA0E0B0E09E012A5F3F4FFD
:1006A000F601EE0DFF1D8081863441F0F901EA0F5D
:1006B000FB1F808311960894E11CF11CA630B10544
:1006C00024F4882311F0863459F78E010A5F1F4FF6
:1006D000A00FB11F1C9287E791E00E942001C80182
:1006E0000E94200184E891E00E9420010894E11C0E
:1006F000F11CA0E0B0E09E01245F3F4FF601EE0D3B
:10070000FF1D8081823541F0F901EA0FFB1F8083D4
:100710000894E11CF11C1196A630B10524F488233D
:1007200011F0823559F78E01045F1F4FA00FB11FE2
:100730001C9286E891E00E942001C8010E942001DD
:1007400084E891E00E942001C7010196A0E0B0E09A
:10075000AE014F5F5F4FF601E80FF91F208123358F
:1007600031F0FA01EA0FFB1F208301961196A430A5
:10077000B10524F4222311F0233569F78E010F5FB0
:100780001F4FA00FB11F1C9283E991E00E9420012E
:10079000C8010E94200184E891E00E94200180EAC3
:1007A00091E060E070E00E94360261960FB6F89426
:1007B000DEBF0FBECDBFCF91DF911F910F91FF9094
:1007C000EF90DF90CF9008951F920F920FB60F9287
:1007D00011242F933F934F935F936F937F938F9346
:1007E0009F93AF93BF93EF93FF938AEA91E00E94A8
:1007F000200185B190E2892785B9FF91EF91BF91E2
:10080000AF919F918F917F916F915F914F913F91A8
:100810002F910F900FBE0F901F9018951F920F925F
:100820000FB60F9211242F933F934F935F936F93C3
:100830007F938F939F93AF93BF93EF93FF9381ED3C
:1008400091E00E94200185B190E2892785B9FF914E
:10085000EF91BF91AF919F918F917F916F915F9138
:100860004F913F912F910F900FBE0F901F901895B1
:10087000EF92FF920F931F93CF93DF93EC0186B516
:1008800090E00E940A0D90EDE92E97E0F92E17C036
:100890000E94050D61EF70E00E94500C8C01065F14
:1008A0001F4F88810E94EC0080E090E004C0F701B7
:1008B0003197F1F7019680179107CCF32196888143
:1008C000882331F7DF91CF911F910F91FF90EF9027
:1008D000089588EE93E028EC30E0F9013197F1F7C4
:1008E0000197D9F788EF91E00E94380480E797E1FB
:1008F00028EC30E0F9013197F1F70197D9F70E9420
:10090000E40084E092E00E94380408950E94D50239
:100910008FEF84B985B9E3E7F0E08081806180835F
:10092000E8E6F0E08081886080833F9A88B1807833
:1009300088B98EE00E943A010E9469040E949202E6
:100940000E94BE020E94060208950F931F93CF9348
:10095000DF938C01C0E0D0E0DE011196FD01EE5086
:10096000F84FE081EC3211F4DE0103C0C00FD11F5B
:10097000E883A431B10534F4EE2321F0EC3211F018
:10098000ED01EACFA00FB11F1C92C8010E94330DE8
:1009900029E030E040E050E00E94630CCA01B90158
:1009A000A8012AE030E00E949D0DDF91CF911F91B8
:1009B0000F910895CF92DF92EF92FF920F931F93C2
:1009C000CF93DF938C01EB016A018CE092E00E94EF
:1009D000150D892B61F48EE092E00E9420018CE0DD
:1009E00092E00E94200186E192E00E9420018CE0CA
:1009F00092E00E94150D019761F48EE092E00E9452
:100A000020018CE092E00E94200183E292E00E94AB
:100A1000200180E392E00E942001CE010E9420018B
:100A2000A0E0B0E0F801EA0FFB1F83818C3229F0CF
:100A3000FE01EA0FFB1F80831196A431B10524F457
:100A4000882311F08C3271F7AC0FBD1F1C92CE01C0
:100A50000E94330D27EC35E141E050E00E94310C5B
:100A600020E034E040E050E00E94630C122F032F9E
:100A7000F42EE52E622F732F842F952F20E23CE178
:100A800040E050E00E94630CCA01B901A6012AE0CF
:100A900030E00E949D0D612F702F8F2D9E2DAE0195
:100AA0002AE030E00E949D0DDF91CF911F910F91C0
:100AB000FF90EF90DF90CF900895CF92DF92EF926A
:100AC000FF920F931F93CF93DF936C017A018B01F9
:100AD000CFEFDFEF08C0C601A7010E946E0D0E5FC9
:100AE0001F4F009749F02196F801608171816115CF
:100AF000710589F7C3E6D0E0CE01DF91CF911F9158
:100B00000F91FF90EF90DF90CF900895DF93CF93F8
:100B1000CDB7DEB72A970FB6F894DEBF0FBECDBFB4
:100B2000DE011196EEE1F7E02AE001900D922150EE
:100B3000E1F7BE016F5F7F4F43E050E00E945D052B
:100B40008130910561F0823091051CF4892B51F0C0
:100B500012C08230910549F0039769F409C021E081
:100B600030E00BC020E030E008C022E030E005C0FB
:100B700023E030E002C02EEF3FEFC9012A960FB606
:100B8000F894DEBF0FBECDBFCF91DF9108950F93D4
:100B90001F93DF93CF93CDB7DEB72A970FB6F894A4
:100BA000DEBF0FBECDBF8C01DE011196E0E4F7E0A1
:100BB0008AE001900D928150E1F78091EC079091CD
:100BC000ED07892BC1F481E090E09093ED078093CD
:100BD000EC0787E392E060E070E00E94360286E571
:100BE00092E060E070E00E94360282E792E060E00E
:100BF00070E00E943602C801BE016F5F7F4F42E085
:100C000050E00E945D058130910561F082309105D0
:100C10001CF4892B21F00FC004976CF41EC00E94B5
:100C2000E4001BC086E992E00E9420018BEA92E07A
:100C300060E070E010C0C8010E9420018AEB92E0E1
:100C40000E942001C80161E070E00E94360284E841
:100C500091E061E070E00E9436022A960FB6F894A7
:100C6000DEBF0FBECDBFCF91DF911F910F910895D1
:100C70000F931F93DF93CF93CDB7DEB7A0970FB637
:100C8000F894DEBF0FBECDBF8C01DE011B96E3EAF8
:100C9000F7E086E101900D928150E1F7C801BE01B5
:100CA000655F7F4F42E050E00E945D058430910512
:100CB000C1F18530910584F48130910529F18230AC
:100CC00091051CF4892BE9F065C082309105F9F09B
:100CD000039709F05FC01EC08730910581F188300D
:100CE00091053CF48530910501F1069709F052C059
:100CF00023C08830910509F43FC0099709F04AC024
:100D000046C083EC92E04FC00E94E4004EC085ECE8
:100D100092E049C088EC92E00E9420010E948B0280
:100D200044C0C8010E941A0340C08CED92E00E94AA
:100D3000200180EA91E026C081EF92E034C08091EA
:100D4000EA079091EB0701969093EB078093EA07EF
:100D50008E010F5F1F4FB8014AE050E00E947C0DEA
:100D6000C8010E94200180E093E00E94200188E0F9
:100D700093E061E070E008C083E193E00E9420010D
:100D800088E193E060E070E00E9436020EC08CE1E2
:100D900093E009C081E393E00E942001C8010E9412
:100DA000200187E393E00E942001A0960FB6F894FB
:100DB000DEBF0FBECDBFCF91DF911F910F91089580
:100DC0000F931F93DF93CF93CDB7DEB72A970FB65C
:100DD000F894DEBF0FBECDBF8C01DE011196EBEDA6
:100DE000F7E08AE001900D928150E1F7C801BE0161
:100DF0006F5F7F4F41E050E00E945D0581309105BB
:100E000079F0823091051CF4892B39F018C08230BA
:100E1000910569F0039799F40DC084E493E00CC048
:100E200081E593E00E94200188E593E01CC00E94C8
:100E3000E4001DC08CE593E00E94200118C08AE008
:100E400090E0A0EDB7E01197F1F70197D1F78CE6AC
:100E500093E00E942001C8010E94200186E793E0F0
:100E60000E942001C80160E070E00E9436022A96CC
:100E70000FB6F894DEBF0FBECDBFCF91DF911F91AB
:100E80000F910895CF92DF92EF92FF920F931F93ED
:100E9000DF93CF93CDB7DEB7CD55D0400FB6F894E2
:100EA000DEBF0FBECDBF6C01DE011796E9ECF7E0A7
:100EB0008EE001900D928150E1F7C601BE01695F9D
:100EC0007F4F43E050E00E945D0582309105C9F0FC
:100ED0008330910534F4009771F0019709F001C156
:100EE0000DC084309105F9F0843091058CF00597A0
:100EF00009F0F7C041C089E793E0F8C00E94E40020
:100F0000F7C08CE593E00E94200183E893E0E4C001
:100F10008AE090E0A0EDB7E01197F1F70197D1F7E3
:100F200084E993E0D5C089E993E00E9420018EEA2C
:100F300093E061E070E00E94360282E390E0A0ED71
:100F4000B7E01197F1F70197D1F78091C80087FFBB
:100F500004C081E090E00E948808C60161EB73E064
:100F60000E94650D009709F4B5C084EB93E00E94E0
:100F7000200189EC93E0B0C08AE090E0A0EDB7E0FA
:100F80001197F1F70197D1F735E1E32EF12CEC0E33
:100F9000FD1E81E2D7011D928A95E9F7FE01319687
:100FA00086E0DF011D928A95E9F7C601B701AF011E
:100FB0000E94DA048E010A5C1F4F88E2F801119248
:100FC0008A95E9F78DE48EAB81E48FAB80E288AF40
:100FD00019AEC801B7010E945A0DC80164E871E05A
:100FE0000E945A0D8EEC93E00E942001C8010E94DD
:100FF0002001C80161E070E00E94360202E310E0C7
:10100000F801A0EDB7E01197F1F70197D1F78091C2
:10101000C80087FF6DC081E090E00E9488088EEADA
:1010200093E061E070E00E943602F801A0EDB7E0C5
:101030001197F1F70197D1F78091C80087FF05C09C
:1010400081E090E00E9488082CC083ED93E00E942C
:10105000200127C08EEA93E061E070E00E94360232
:10106000F701A0EDB7E01197F1F70197D1F7809163
:10107000C80087FF10C081E090E00E9488080E94AD
:10108000E40084EE93E00E942001C8010E94200148
:1010900084E891E002C085EF93E00E942001A895CA
:1010A00006C022E3E22EF12C8E010B5E1F4FC6011B
:1010B00064E074E00E94650D009761F287E094E0BF
:1010C0000E942001CE0145960E94200183E194E018
:1010D0000E94200180EA91E060E070E00E94360208
:1010E00007C08EE194E00E942001C6010E94200109
:1010F000C35ADF4F0FB6F894DEBF0FBECDBFCF91FE
:10110000DF911F910F91FF90EF90DF90CF900895A6
:101110000F931F938C0182EF97E0B8010E94610248
:101120000130110529F482EF97E00E94E00648C0E3
:1011300080910507909106078E5F9F4F51F489E2D9
:1011400094E00E9420018FEF9FEF90930607809319
:10115000050780910507909106078F5F9F4F41F427
:1011600082EF97E00E94860590930607809305071B
:101170008091050790910607892B21F482EF97E073
:101180000E9442078091050790910607019721F47C
:1011900082EF97E00E94380680910507909106073C
:1011A000029721F482EF97E00E940E0980910507D3
:1011B00090910607039721F482EF97E00E94C705FC
:1011C0001F910F9108950F931F938C0161E070E0C0
:1011D0000E9436020E94E4008DE394E00E94200108
:1011E000C8010E94200184E891E00E94200184E669
:1011F00090E0A0EDB7E01197F1F70197D1F781E00A
:1012000090E00E94880888EE93E0A0EDB7E0119787
:10121000F1F70197D1F71F910F910895AF92BF9207
:10122000CF92DF92EF92FF920F931F93DF93CF93B2
:10123000CDB7DEB7C356D0400FB6F894DEBF0FBEB1
:10124000CDBF7C01DE011196E4E7F7E08AE1019071
:101250000D928150E1F78E01045C1F4F88E2D801A6
:101260001D928A95E9F78DE48CAF81E48DAF80E221
:101270008EAF1FAEC701BE016F5F7F4F41E050E0F0
:101280000E945D05873091056CF4833091050CF068
:10129000F5C08130910501F18230910504F5892B6B
:1012A000C1F0E1C08930910509F4CFC08A309105C1
:1012B00044F48730910509F4BDC0089709F0D3C004
:1012C000DDC08A30910509F4CBC00B9709F0CBC083
:1012D000D5C00E94E400D2C086E992E0CDC084E689
:1012E00090E0A0EDB7E01197F1F70197D1F7C801B1
:1012F000BE01655E7F4F0E945A0DC80164E871E02F
:101300000E945A0DC80161E070E00E94360202E3BB
:1013100010E0F801A0EDB7E01197F1F70197D1F7D0
:101320008091C80087FF16C081E090E00E94880885
:101330008EEA93E061E070E00E943602F801A0EDD1
:10134000B7E01197F1F70197D1F78091C800882392
:101350004CF403C084E494E08FC081E090E00E94EC
:1013600088084CC083ED93E00E94200147C089E5C6
:1013700094E061E070E00E943602F501A0EDB7E074
:101380001197F1F70197D1F78091C80087FF10C03E
:1013900081E090E00E9488080E94E4008CE594E0DF
:1013A0000E942001C7010E94200181E794E002C051
:1013B00085EF93E00E942001A8958EEA93E061E01A
:1013C00070E00E943602F601A0EDB7E01197F1F748
:1013D0000197D1F78091C80087FF0AC081E090E0B3
:1013E0000E948808C8010E94200184E891E002C0A0
:1013F00085EF93E00E942001A89509C054E6A52E30
:10140000B12C42E3C42ED12C8E01055E1F4FC701C3
:1014100064E074E00E94650D009709F4A8CF87E0AE
:1014200094E00E942001CE014B960E94200183E1AE
:1014300094E00DC0FE017B9681E2DF011D928A954A
:10144000E9F7CF010E94A50419C086E894E00E9444
:10145000200185E794E060E070E00E9436020EC053
:101460008BE994E009C080EB94E00E942001C70161
:101470000E94200183EB94E00E942001CD59DF4FB0
:101480000FB6F894DEBF0FBECDBFCF91DF911F9195
:101490000F91FF90EF90DF90CF90BF90AF900895A5
:1014A0000E948604A895F8949091560891708091B6
:1014B00056088927809356087894992361F4F89404
:1014C0009091F10791708091F10789278093F1073E
:1014D0007894992351F088EB94E00E9420018FEFDB
:1014E00096E062EB76E00E94770BF89490915608B4
:1014F0009270809156088927809356087894992392
:1015000021F08FEF96E00E94850BF8949091560899
:10151000947080915608892780935608789499236F
:1015200021F08FEF96E00E94960BF8949091560868
:10153000987080915608892780935608789499234B
:1015400061F4F8949091F10798708091F1078927E0
:101550008093F1077894992321F08FEF96E00E9411
:10156000BF0BF89490915608907180915608892786
:10157000809356087894992361F4F8949091F10738
:1015800090718091F10789278093F10778949923CE
:1015900021F08FEF96E00E94F20B8091C00087FF50
:1015A00007C085B1847085B980E090E00E9488080A
:1015B0008091C80087FF76CF85B1887085B981E0BA
:1015C00090E00E9488086ECF9F92AF92BF92CF9218
:1015D000DF92EF92FF920F931F93CF93DF937C01E3
:1015E000FC01C480D580BB24992452C0E92DF0E0D1
:1015F000E217F3070CF06BC08F01040F151F9394D3
:10160000F801EE0FFF1FE00FF11F63E0EE0FFF1F69
:101610006A95E1F7EC0DFD1D858181FDE7CFF701AE
:1016200061816B0D80810E94D000F701A380AA9494
:10163000F601218130E02F5F3F4F808190E0890DDE
:10164000911D2817390711F48AE201C080E20E9437
:10165000EC00E801CC0FDD1FC00FD11F219683E005
:10166000CC0FDD1F8A95E1F7CC0DDD1D10E006C023
:101670008991882331F00E94EC001F5F1A15C0F396
:1016800006C080E20E94EC001F5F1A15D0F3B394ED
:10169000F7018281B816D8F4F6018081482F50E016
:1016A0008281282F30E0241B350BA0CFF701618108
:1016B0006B0D80810E94D00010E004C080E20E9487
:1016C000EC001F5FF70183811817C0F3B394F70193
:1016D0008281B81658F3DF91CF911F910F91FF903F
:1016E000EF90DF90CF90BF90AF909F900895FC0156
:1016F000DB018481958114969C938E931397758357
:101700006483CF010E94E40A0895DC011496ED91F0
:10171000FC91159783819481009739F015969C93DD
:101720008E931497CD010E94E40A0895CF93DF931E
:10173000EC01AC81BD8111962C9111972223E1F02F
:101740002150822F90E0FC01EE0FFF1FE80FF91FE0
:1017500083E0EE0FFF1F8A95E1F7EA0FFB1F8581FB
:1017600081FDECCF11962C9311978C91281708F4DA
:101770002C93CE010E94E40ADF91CF910895CF937C
:10178000DF93EC01AC81BD8111962C9111971296DB
:101790009C9112972F5F291710F5422F50E0FA0104
:1017A000EE0FFF1FE40FF51F63E0EE0FFF1F6A95BA
:1017B000E1F7EA0FFB1F858181FDECCF11962C9399
:1017C00011973A818C9190E0830F911D481759072A
:1017D0001CF0231B2F5F2C93CE010E94E40ADF91A3
:1017E000CF9108950F931F93CF93DF938C01FC014A
:1017F000C481D581898190E09C01220F331F280F7D
:10180000391FD901F3E0AA0FBB1FFA95E1F7AC0F1E
:10181000BD1F15968C91159780FF08C05B966D9142
:101820007C915C97C8010E94770B13C0C901019697
:10183000E3E0880F991FEA95E1F7C80FD91F1696C4
:10184000ED91FC9117975B968D919C915C97BE01F1
:101850000995C8010E94E40ADF91CF911F910F9171
:101860000895629FD001739FF001829FE00DF11DEA
:10187000649FE00DF11D929FF00D839FF00D749F0A
:10188000F00D659FF00D9927729FB00DE11DF91FB6
:10189000639FB00DE11DF91FBD01CF011124089513
:1018A00097FB092E07260AD077FD04D027D006D053
:1018B00000201AF4709561957F4F0895F6F7909582
:1018C00081959F4F089597FB092E05260ED057FD51
:1018D00004D028D00AD0001C38F45095409530959B
:1018E00021953F4F4F4F5F4F0895F6F790958095A4
:1018F000709561957F4F8F4F9F4F0895AA1BBB1B1B
:1019000051E107C0AA1FBB1FA617B70710F0A61BFF
:10191000B70B881F991F5A95A9F780959095BC0120
:10192000CD010895A1E21A2EAA1BBB1BFD010DC01B
:10193000AA1FBB1FEE1FFF1FA217B307E407F5077F
:1019400020F0A21BB30BE40BF50B661F771F881F5B
:10195000991F1A9469F760957095809590959B01F1
:10196000AC01BD01CF010895A0E0B0E0EAEBFCE0DE
:101970000C94060EEC01A880B980CA80DB80A1140B
:10198000B104C104D10441F484E2A82E89EDB82E3B
:101990008BE5C82E87E0D82EC601B5012DE133EFC7
:1019A00041E050E00E94630C27EA31E440E050E05F
:1019B0000E94310C7B018C01C601B5012DE133EF92
:1019C00041E050E00E94630CCA01B9012CEE34EFF3
:1019D0004FEF5FEF0E94310C6E0D7F1D801F911F36
:1019E00097FF04C0615070408040904868837983BD
:1019F0008A839B839B013F77C901CDB7DEB7EAE0BD
:101A00000C94220E0E94B40C089585EE97E00E947B
:101A1000B40C0895A0E0B0E08093E5079093E6074A
:101A2000A093E707B093E8070895FC01882799275A
:101A3000E89421912032E9F3293010F02E30C8F3D8
:101A40002B3241F02D3239F4689404C00E94E60D27
:101A5000820F911D219120532A30C0F31EF49095DE
:101A600081959F4F08951F93FC0199278827BC01FA
:101A7000E89411911032E9F3193010F01E30C8F3D8
:101A80001B3251F01D3249F4689406C00E94D10DFA
:101A9000610F711D811D911D119110531A30B0F30A
:101AA0003EF490958095709561957F4F8F4F9F4F35
:101AB0001F910895FB01DC010D900020E9F71197BB
:101AC00001900D920020E1F70895FB01DC018D915A
:101AD000019080190110D9F3990B0895FB01DC01E5
:101AE0004150504030F08D910190801919F4002040
:101AF000B9F7881B990B0895FB019F01E8944230C8
:101B0000C4F04532B4F44A3029F497FB1EF49095A2
:101B100081959F4F642F77270E947E0C805D8A33CA
:101B20000CF0895D8193CB010097A1F716F45DE27B
:101B300051931082C9010C94EE0DFA01CF93FF93DB
:101B4000EF93223044F1253234F5C22FE894CA30A5
:101B500049F497FB3EF490958095709561957F4F81
:101B60008F4F9F4F2C2F332744275527FF93EF93F9
:101B70000E94920CEF91FF91605D6A330CF0695DF9
:101B80006193B901CA01605070408040904051F7A4
:101B900016F4CDE2C19310828F919F91CF910C9456
:101BA000EE0D592F482F372F262F660F771F881FCE
:101BB000991F660F771F881F991F620F731F841F5D
:101BC000951F660F771F881F991F08957AE0979FCA
:101BD000902D879F802D910D11240895DC01FC012B
:101BE000672F71917723E1F7329704C07C916D9351
:101BF00070836291AE17BF07C8F308952F923F928A
:101C00004F925F926F927F928F929F92AF92BF920C
:101C1000CF92DF92EF92FF920F931F93CF93DF93B8
:101C2000CDB7DEB7CA1BDB0B0FB6F894DEBF0FBE15
:101C3000CDBF09942A88398848885F846E847D8462
:101C40008C849B84AA84B984C884DF80EE80FD8064
:101C50000C811B81AA81B981CE0FD11D0FB6F894DA
:0E1C6000DEBF0FBECDBFED010895F894FFCF9B
:101C6E00203939393939393939392C202020202079
:101C7E0020202020302C4B2C4B2C520D0A0053656B
:101C8E006C65637465643A20004D616E75656C6CAD
:101C9E006572204D6F6475730A004175666E6168DA
:101CAE006D65207374617274656E210A0044616EF5
:101CBE006163682053656C6563740A002D3E204491
:101CCE00726568756E6720756D2034350A004D207B
:101CDE0035353735300D00315F4D494E5F53504528
:101CEE0045443A000A00315F4D41585F5350454517
:101CFE00443A00315F4143435F53504545443A00F7
:101D0E00300D0A003230303000004E656761746964
:101D1E00766520456E736368616C74657220506FD2
:101D2E00736974696F6E2045727265696368742198
:101D3E0000506F73697469766520456E73636861D0
:101D4E006C74657220506F736974696F6E20457282
:101D5E00726569636874210048656C6C6F204A6F08
:101D6E0065210A005265616479210A0030004163E1
:101D7E006873653A20002028526F746174696F6E23
:101D8E00290A002028486F656865292020200A004E
:101D9E00546573743A200057696C6C6B6F6D6D658A
:101DAE006E20696D205465726D696E616C204D6F89
:101DBE006475730D0A006DEFBFBD676C696368656E
:101DCE002042656665686C652073696E643A200D05
:101DDE000A002041202D204D6F746F727374617450
:101DEE0075730D0A204D202D204D6F76652053748E
:101DFE006570730D0A0054657374206265737461A7
:101E0E006E64656E20202020200A005465737420B5
:101E1E0062657374616E64656E0020202020202040
:101E2E00200A00210021540053746174757361629D
:101E3E00667261676520202020200A00483A202023
:101E4E002020202020202020202020202020200A9A
:101E5E00004D6F746F72207374617274656E0A0038
:101E6E005F4D6F7665210A004D20313630303030AF
:101E7E000D0A00522F423F00520D0A0048312065D4
:101E8E006D7066616E67656E202020202020200A0E
:101E9E0000555F423A200021454E4420202020204C
:101EAE0020200A004572666F6C6772656963680A66
:101EBE00004572726F720A00310D0A005465737418
:101ECE002062657374616E64656E0A00537465708A
:101EDE007065723A2000210A00526573657276654C
:101EEE000D0A00546573742062657374616E6465C7
:101EFE006E0D0A00496E69740053746174757361D6
:101F0E006266726167653A20202020200A00410A2D
:101F1E00003023004665686C67657363686C6167A3
:101F2E00656E20202020200A002D310D0A00506FF2
:101F3E00733A004B65696E65204265776567756E0D
:101F4E0067210A0047656865207A752057696E6BB0
:101F5E00656C3A20004B65696E6520416E74776F33
:101F6E0072740A00312300506F736974696F6E3A90
:101F7E00200A002045727265696368740A0049532D
:101F8E00454C3A202020200A00556E62656B616E2A
:101F9E006E746572204D6F746F72210A0053656EF8
:101FAE00643A200042656665686C206E2E2062657C
:101FBE00737461657469670A00570A00506F73691C
:101FCE0074696F6E28416B742F476573293A200A26
:101FDE0000202F20000D0A3E200D0A3E200D0A3E45
:101FEE00200D0A3E200053706565642073657420D1
:101FFE002020202020202020200A004563686F200A
:10200E006F666620202020202020202020200A001D
:10201E005A3A002020200A004265747265746520C9
:10202E004D656E7565210A004D20313235303030E8
:10203E000A004D202D3132353030300A004D20311E
:10204E00303030300A004D202D31303030300A0023
:10205E004D4120300A00000005000000E3082B3936
:10206E003000000000000000000000000000000032
:10207E0000C80400E3082D39300000000000000005
:10208E00000000000000000000D20400E3082B3125
:10209E00302E3030302053636872697474650000DE
:1020AE0000DD0400E3082D31302E30303020536334
:1020BE00687269747465000000E60400E308476501
:1020CE006865207A756D205572737072756E670033
:1020DE0000F004324D203530303030300A00324DB1
:1020EE00202D3530303030300A00324D2031303036
:1020FE00303030300A00324D202D3130303030301B
:10210E00300A00324D4120300A0000000500000068
:10211E00E3082B3530302E30303000000000000048
:10212E000000000000730500E3082D3530302E301E
:10213E00303000000000000000000000007E0500AE
:10214E00E3082B312E3030302E3030302053636880
:10215E0072697474658A0500E3082D312E303030B3
:10216E002E303030205363687269747465960500A2
:10217E00E30847656865207A756D20557273707235
:10218E00756E670000A305440A00510A004E203107
:10219E000A003F0A00000004000000E3084D6F74BF
:1021AE006F7273746174757300000000000000009C
:1021BE00AE0300E3085365747A652055727370722E
:1021CE00756E670000000000270600E3085772696D
:1021DE00746520746F20454550524F4D000000002D
:1021EE002A0600E3084E65776C696E6520310000A3
:1021FE0000000000000000002D0600E30850617290
:10220E00612E206175736C6573656E0000000000B1
:10221E003206000003000001000042657765676525
:10222E006E202D20526F746174696F6E00F604017A
:10223E0000004265776567656E202D20486F6568E2
:10224E006500000000AA050100004B6F6E6669670D
:10225E007572696572656E0000000000003506003B
:10226E000004130000FFFF40303100513A00454397
:10227E00484F3000215465726D696E616C0007071E
:10228E000B070E071407000021434C5300546573CF
:10229E007400214D616E75616C00215959595900B8
:1022AE0028072D0732073A070000474F00574149CC
:1022BE005400215858585800434F4D4558004D4131
:1022CE003100443131323500413800563800505318
:1022DE004554300028072D074A074D075207580767
:1022EE005E07620768076B070E076E0700005465EE
:1022FE0073743200443A3200483A0047004D3A00B7
:10230E004831008E0728072D070B07940798079B67
:10231E00079D07C302A00700005858585858585830
:10232E00004030520040304D00B90728072D0707F6
:10233E0007C107C507000023004500D707D90728A6
:0A234E00072D070000010000000049
:00000001FF
