:100000000C94A1000C94BE000C94BE000C94BE0095
:100010000C94BE000C94BE000C94BE000C94E6023E
:100020000C9491020C94BE000C94BE000C94BE0083
:100030000C94BE000C94BE000C94BE000C94BE0048
:100040000C94BE000C94BE000C94B8010C94BE003D
:100050000C94BE000C94BE000C94BE000C94BE0028
:100060000C94BE000C94BE000C94BE000C94BE0018
:100070000C94BE000C94BE000C94BE00496E6974D2
:100080000A00000000000000000000000000004026
:1000900030310000000000000000000000000000FF
:1000A0000000000000000000000000000000000050
:1000B00000000000000000300D0A000000000000F9
:1000C0000000000000000000000000000000000030
:1000D00000000000000000000000000000000048D8
:1000E0006F6D650A000000000000000000000000C5
:1000F000000040303100000000000000000000005F
:1001000000000000000000000000000000000000EF
:1001100000000000000000000000300D0A00000098
:1001200000000000000000000000000000000000CF
:1001300000000000000000000000000000000000BF
:10014000000011241FBECFEFD8E0DEBFCDBF17E007
:10015000A0E0B1E0E8E6FCE102C005900D92A23615
:10016000B107D9F717E0A2E6B7E001C01D92A23DA2
:10017000B107E1F70E94FD090C94320E0C940000C7
:10018000282F662311F0469A01C04698459887B1FA
:100190008F6087B998B1907F822F82958F70892B5D
:1001A00088B9449A00C044982F70292B28B9449AE2
:1001B00000C044989F6098B90895882311F0469A2A
:1001C00001C04698459A87B1807F87B9449A00C09C
:1001D00096B1449800C0449A00C086B18F70929541
:1001E000907F4498892B089580E00E94DD0087FD70
:1001F000FBCF82E090E00197F1F780E00E94DD0004
:1002000008951F93182F0E94F400812F60E00E9430
:10021000C0001F9108951F93182F0E94F400812F92
:1002200061E00E94C0001F910895662311F4805878
:1002300009C0613011F4805405C0623011F48C564D
:1002400001C08C520E94010108950E94F40090E0C8
:10025000089581E00E940101089582E00E94010159
:1002600008951F93182F0E94F400982F1A3099F4C4
:10027000843110F480E40BC08054843110F484E1A4
:1002800006C094519C3210F080E001C084E5805893
:100290000E94010118C0833111F480EC0BC083353A
:1002A00011F484E907C0873211F484ED03C0873666
:1002B00021F480E860E00E94C0000E94F400812FD9
:1002C00061E00E94C0001F910895CF93DF93EC017D
:1002D00002C00E94310189918823D9F7DF91CF9123
:1002E0000895CF93DF93EC0102C00E943101FE011B
:1002F000219684918823C9F7DF91CF9108951F93A8
:10030000182F87B18F6087B93E9A3D9A3C9A80E852
:100310009EE30197F1F7419A409A449A00C04498AD
:1003200080E893E10197F1F7449A00C0449880E493
:1003300090E0FC013197F1F7449A00C04498FC0129
:100340003197F1F74098449A00C044980197F1F72B
:1003500088E20E94010188E00E9401010E942901B7
:1003600086E00E940101812F0E9401011F910895E2
:100370001F920F920FB60F9211242F938F939F937A
:1003800082EB86BD8091D10720B1209528278091EE
:100390006A078223809580936A0790916907922368
:1003A000982790936907822389239091D1079827F2
:1003B0009093D1072091D0079091D1078923822B68
:1003C0008093D0078091D107877819F482E38093D6
:1003D000680780916807815080936807882359F4E3
:1003E00084E18093680790916B078091D1078778AB
:1003F000892B80936B079F918F912F910F900FBE48
:100400000F901F901895F8949091D00789239091A0
:10041000D00798279093D00778940895F8949091F6
:100420006B07892390916B07982790936B077894BB
:100430000895F8949091D107F8942091D007909561
:10044000892382239091D00798279093D00778949E
:100450000895982FF89480916B07982380916B07EB
:10046000892780936B077894F8948091D00789232B
:100470009091D00798279093D0077894089541E001
:1004800050E0A8ECB0E061E070E021C0FD013197E0
:10049000F1F70197D9F725B1CB01042E02C0880FDF
:1004A000991F0A94E2F78095822385B925B14150BE
:1004B0005040CB01042E02C0880F991F0A94E2F726
:1004C000282B25B94E5F5F4F4930510519F080E266
:1004D00093E0DCCF089581B111B882B18FEF82B97A
:1004E00085E085BD83EF86BDEEE6F0E0808181602A
:1004F00080837894089585B1982F990F907F8770A5
:10050000982B903F08F4986095B90895F894A895B1
:10051000E0E6F0E080818861808389E680837894DA
:1005200008951F920F920FB60F9211248F939F93ED
:1005300085B191E0892785B99F918F910F900FBE6A
:100540000F901F9018951092C50023E32093C400CC
:1005500096E09093C200E1ECF0E0808188608083B7
:100560008081806180831092CD002093CC00909395
:10057000CA00E9ECF0E0808188608083808180613E
:1005800080830895982F672B39F48091C00085FFF0
:10059000FCCF9093C60008958091C80085FFFCCFE2
:1005A0009093CE0008950F931F93CF93DF93EC01A8
:1005B0008B0104C0B8010E94C20221968881882361
:1005C000C9F7DF91CF911F910F9108951F920F925C
:1005D0000FB60F9211242F933F934F935F936F9316
:1005E0007F938F939F93AF93BF93EF93FF9380E09D
:1005F00091E061E070E00E94D30285B191E089272B
:1006000085B9FF91EF91BF91AF919F918F917F91AC
:100610006F915F914F913F912F910F900FBE0F906F
:100620001F901895009739F48091C00087FFFCCF88
:100630008091C6000BC0019719F02FEF3FEF08C063
:100640008091C80087FFFCCF8091CE00282F30E03A
:10065000C9010895EF92FF920F931F93CF93DF93F9
:100660008C017B01C0E0D0E0C7010E9412038D30F5
:1006700021F0F80181938F012196C436D10524F42D
:100680008D3011F08A3081F7F8011082DF91CF911F
:100690001F910F91FF90EF9008950E9486028FEFB7
:1006A00084B985B9E3E7F0E0808180618083E8E682
:1006B000F0E08081886080830E943F028EE00E948B
:1006C0007F010E9429010E942D010E946B020E945D
:1006D000A3020895CF93DF93EC01A0E0B0E0FD0109
:1006E000E459F84F82818C3229F0FE01EA0FFB1F9A
:1006F00080831196A431B10524F4882311F08C3243
:1007000071F7AC0FBD1F1C9284E091E00E9465015F
:10071000CE010E9465018FE091E00E94650188EEA4
:1007200093E0A0EDB7E01197F1F70197D1F7DF91D2
:10073000CF910895209162073091630787E22031BD
:1007400038070CF047C083E0283E38071CF084E0EF
:1007500090E014C0243631051CF083E090E00EC018
:100760002A3031051CF082E090E008C021153105E7
:1007700019F480E090E002C081E090E02F5F3F4FED
:1007800030936307209362078130910599F082309E
:1007900091051CF4892B39F01AC08230910569F05B
:1007A0000397A9F40DC081E191E00E94650182E206
:1007B00091E008C080E491E005C08EE591E002C0C0
:1007C0008CE791E060E070E00E94D30208958AE92E
:1007D00091E0F8CF85E090E0D1CFCF92DF92EF9219
:1007E000FF920F931F93DF93CF93CDB7DEB761973F
:1007F0000FB6F894DEBF0FBECDBF6C0182E390E36D
:10080000A0E3B0E08E839F83A887B9871B861A86F2
:10081000DE011C96E3EEF1E085E001900D9281503F
:10082000E1F7198A82E390E3A0E3B0E089839A8339
:10083000AB83BC831D8284E0E82EF12CA0E0B0E005
:100840009E012A5F3F4FF601EE0DFF1D8081863429
:1008500041F0F901EA0FFB1F808311960894E11C17
:10086000F11CA630B10524F4882311F0863459F721
:100870008E010A5F1F4FA00FB11F1C9288EB91E001
:100880000E946501C8010E9465018FE091E00E940D
:1008900065010894E11CF11CA0E0B0E09E01245F1A
:1008A0003F4FF601EE0DFF1D8081823541F0F901C9
:1008B000EA0FFB1F80830894E11CF11C1196A630FF
:1008C000B10524F4882311F0823559F78E01045FB5
:1008D0001F4FA00FB11F1C9285EC91E00E94650193
:1008E000C8010E9465018FE091E00E946501C70187
:1008F0000196A0E0B0E0AE014F5F5F4FF601E80F58
:10090000F91F2081233531F0FA01EA0FFB1F208304
:1009100001961196A430B10524F4222311F0233559
:1009200069F78E010F5F1F4FA00FB11F1C9282ED60
:1009300091E00E946501C8010E9465018FE091E08D
:100940000E946501809162079091630701969093E0
:100950006307809362078FED91E060E070E00E9492
:10096000D30261960FB6F894DEBF0FBECDBFCF9114
:10097000DF911F910F91FF90EF90DF90CF9008953E
:100980000F931F938B010E94290189EE91E00E9431
:100990006501C8010E9465018EEE92E0A0EDB7E00E
:1009A0001197F1F70197D1F71F910F91089584EFF7
:1009B00091E00E94650185E092E00E94650187E177
:1009C00092E00E946501F8949091D0079870809110
:1009D000D00789278093D0077894992331F083E357
:1009E00092E061E070E00E94D30208950F931F939C
:1009F000CF93DF938C01EB018CE392E00E944E0DCC
:100A0000892B61F48EE392E00E9465018CE392E011
:100A10000E94650186E492E00E9465018CE392E009
:100A20000E944E0D019761F48EE392E00E946501F1
:100A30008CE392E00E94650183E592E00E946501EB
:100A400080E692E00E946501CE010E946501A0E06F
:100A5000B0E0F801EA0FFB1F83818C3229F0FE0120
:100A6000EA0FFB1F80831196A431B10524F488237B
:100A700011F08C3271F7AC0FBD1F1C92CE010E9499
:100A80004E0DAA2797FDA095BA2FBC01CD0127ECEA
:100A900035E141E050E00E946A0C20E030E140E0A6
:100AA00050E00E949C0CCA01B901AE012AE030E07E
:100AB0000E94AF0DDF91CF911F910F910895CF92BA
:100AC000DF92EF92FF920F931F93CF93DF936C010E
:100AD0007A018B01CFEFDFEF08C0C601A7010E94AA
:100AE000800D0E5F1F4F009749F02196F80160813D
:100AF00071816115710589F7C3E6D0E0CE01DF9100
:100B0000CF911F910F91FF90EF90DF90CF900895BC
:100B1000DF93CF93CDB7DEB72A970FB6F894DEBF39
:100B20000FBECDBFDE011196E6E9F6E02AE00190A6
:100B30000D922150E1F7BE016F5F7F4F43E050E01F
:100B40000E945F058130910561F0823091051CF4AF
:100B5000892B51F012C08230910549F0039769F456
:100B600009C021E030E00BC020E030E008C022E006
:100B700030E005C023E030E002C02EEF3FEFC901B6
:100B80002A960FB6F894DEBF0FBECDBFCF91DF918E
:100B900008950F931F93DF93CF93CDB7DEB72A97B6
:100BA0000FB6F894DEBF0FBECDBF8C01DE011196EB
:100BB000E8EBF6E08AE001900D928150E1F7809138
:100BC000660790916707892BC1F481E090E09093CC
:100BD00067078093660787E692E060E070E00E9416
:100BE000D30286E892E060E070E00E94D30280EADF
:100BF00092E060E070E00E94D302C801BE016F5F26
:100C00007F4F42E050E00E945F058130910561F026
:100C1000823091051CF4892B21F00FC004976CF4ED
:100C20001EC00E9429011BC084EC92E00E94650155
:100C300089ED92E060E070E010C0C8010E9465019B
:100C400088EE92E00E946501C80161E070E00E94B8
:100C5000D3028FE091E061E070E00E94D3022A9617
:100C60000FB6F894DEBF0FBECDBFCF91DF911F91BD
:100C70000F9108950F931F93DF93CF93CDB7DEB7F6
:100C8000A0970FB6F894DEBF0FBECDBF8C01DE017A
:100C90001B96EBE1F7E086E101900D928150E1F7C0
:100CA000C801BE01655F7F4F42E050E00E945F05D2
:100CB00084309105C1F18530910584F4813091052E
:100CC00029F1823091051CF4892BE9F065C082304E
:100CD0009105F9F0039709F05FC01EC087309105B8
:100CE00081F1883091053CF48530910501F106973A
:100CF00009F052C023C08830910509F43FC009971C
:100D000009F04AC046C081EF92E04FC00E9429011D
:100D10004EC083EF92E049C086EF92E00E946501E9
:100D20000E949A0344C0C8010E94ED0340C08AE0BB
:100D300093E00E9465018FED91E026C08FE193E082
:100D400034C0809164079091650701969093650780
:100D5000809364078E010F5F1F4FB8014AE050E097
:100D60000E948E0DC8010E9465018EE293E00E94F0
:100D7000650186E393E061E070E008C081E493E000
:100D80000E94650186E493E060E070E00E94D30277
:100D90000EC08AE493E009C08FE593E00E946501EC
:100DA000C8010E94650185E693E00E946501A09656
:100DB0000FB6F894DEBF0FBECDBFCF91DF911F916C
:100DC0000F9108950F931F93DF93CF93CDB7DEB7A5
:100DD0002A970FB6F894DEBF0FBECDBF8C01DE019F
:100DE0001196E3E5F7E08AE001900D928150E1F77A
:100DF000C801BE016F5F7F4F41E050E00E945F0578
:100E00008130910579F0823091051CF4892B39F0FD
:100E10001AC08230910589F00397A9F411C082E7C6
:100E200093E01AC08FE793E00E94650186E893E0A3
:100E300060E070E00E94D30211C00E9429010EC040
:100E40008AE893E009C08AE993E00E946501C8013D
:100E50000E94650184EA93E00E9465012A960FB61C
:100E6000F894DEBF0FBECDBFCF91DF911F910F91E0
:100E70000895CF92DF92EF92FF920F931F93DF932B
:100E8000CF93CDB7DEB7C755D0400FB6F894DEBFCD
:100E90000FBECDBF6C01DE011196E1E4F7E08EE0FC
:100EA00001900D928150E1F7C601BE016F5F7F4F47
:100EB00043E050E00E945F0582309105C9F0833025
:100EC000910534F4009771F0019709F0F9C00DC055
:100ED00084309105F9F0843091058CF0059709F084
:100EE000EFC041C087EA93E0F0C00E942901EFC043
:100EF0008AE893E00E94650181EB93E0DCC08AE020
:100F000090E0A0EDB7E01197F1F70197D1F782ECEF
:100F100093E0CDC087EC93E00E9465018CED93E0F7
:100F200061E070E00E94D30282E390E0A0EDB7E0C0
:100F30001197F1F70197D1F78091C80087FF04C09E
:100F400081E090E00E947708C6016FED73E00E9497
:100F5000770D009709F4ADC082EE93E00E94650121
:100F600087EF93E0A8C08AE090E0A0EDB7E011978A
:100F7000F1F70197D1F72FE0E22EF12CEC0EFD1ED8
:100F800081E2F70111928A95E9F7C601B7010E9443
:100F9000F6048E01005D1F4F88E2F80111928A95D8
:100FA000E9F78DE488AB81E489AB80E28AAB1BAAC8
:100FB000C801B7010E946C0DC8016FE071E00E948A
:100FC0006C0D8CEF93E00E946501C8010E946501E1
:100FD000C80161E070E00E94D30202E310E0F80172
:100FE000A0EDB7E01197F1F70197D1F78091C80014
:100FF00087FF6DC081E090E00E9477088CED93E060
:1010000061E070E00E94D302F801A0EDB7E0119713
:10101000F1F70197D1F78091C80087FF05C081E003
:1010200090E00E9477082CC081E094E00E94650166
:1010300027C08CED93E061E070E00E94D302F701DD
:10104000A0EDB7E01197F1F70197D1F78091C800B3
:1010500087FF10C081E090E00E9477080E9429017C
:1010600082E194E00E94650184E091E00E946501C4
:10107000C80102C08EE194E00E946501A89506C0F7
:1010800092E3E92EF12C8E01015F1F4FC6016DE244
:1010900074E00E94770D009761F280E394E00E9473
:1010A0006501CE010F960E9465018CE394E00E94D9
:1010B00065018FED91E060E070E00E94D30207C00F
:1010C00087E494E00E946501C6010E946501C95A47
:1010D000DF4F0FB6F894DEBF0FBECDBFCF91DF91CB
:1010E0001F910F91FF90EF90DF90CF9008950F9395
:1010F0001F938C018CE697E0B8010E942A0301300F
:10110000110529F48CE697E00E94E20648C0809120
:101110007D0690917E068E5F9F4F51F482E594E0AC
:101120000E9465018FEF9FEF90937E0680937D066E
:1011300080917D0690917E068F5F9F4F41F48CE6F3
:1011400097E00E94880590937E0680937D068091AB
:101150007D0690917E06892B21F48CE697E00E9413
:10116000390780917D0690917E06019721F48CE6E7
:1011700097E00E943A0680917D0690917E06029744
:1011800021F48CE697E00E94D20880917D06909130
:101190007E06039721F48CE697E00E94C9051F9113
:1011A0000F910895EF92FF920F931F93DF93CF93C8
:1011B000CDB7DEB7C356D0400FB6F894DEBF0FBE32
:1011C000CDBF7C01DE011196ECEEF6E08AE10190E4
:1011D0000D928150E1F78E01045C1F4F88E2D80127
:1011E0001D928A95E9F78DE48CAF81E48DAF80E2A2
:1011F0008EAF1FAEC701BE016F5F7F4F41E050E071
:101200000E945F05873091056CF4833091050CF0E6
:10121000BBC081309105C1F082309105C4F4892BA7
:1012200081F0A7C08A30910524F408970CF0ACC077
:101230008EC08A30910509F495C00B9709F099C0CA
:10124000A3C00E942901A0C084EC92E09BC084E668
:1012500090E0A0EDB7E01197F1F70197D1F7C80141
:10126000BE01655E7F4F0E946C0DC8016FE071E0AA
:101270000E946C0DC80161E070E00E94D30202E39D
:1012800010E0F801A0EDB7E01197F1F70197D1F761
:101290008091C80087FF16C081E090E00E94770827
:1012A0008CED93E061E070E00E94D302F801A0EDC4
:1012B000B7E01197F1F70197D1F78091C800882323
:1012C0004CF403C086E694E05DC081E090E00E94AB
:1012D000770825C081E094E00E94650120C08CED74
:1012E00093E061E070E00E94D302F801A0EDB7E066
:1012F0001197F1F70197D1F78091C80087FF09C0D6
:1013000081E090E00E9477080E9429018BE794E039
:1013100002C08EE194E00E946501A89502C002E33C
:1013200010E0C7016DE274E00E94770D0097B9F2FA
:1013300080E394E00E946501CE014B960E94650116
:101340008CE394E00E94650184E894E00DC0FE0106
:101350007B9681E2DF011D928A95E9F7CF010E9419
:101360006A0312C085E994E060E070E00E94D30255
:101370000BC08CE994E00E946501C7010E946501E1
:1013800088EE92E00E946501CD59DF4F0FB6F894C8
:10139000DEBF0FBECDBFCF91DF911F910F91FF90A8
:1013A000EF9008950F931F938C0161E070E00E940D
:1013B000D3020E9429018FE994E00E946501C801CF
:1013C0000E9465018FE091E00E94650184E690E053
:1013D000A0EDB7E01197F1F70197D1F781E090E028
:1013E0000E94770888EE93E0A0EDB7E01197F1F73F
:1013F0000197D1F71F910F9108950E944D03A89571
:10140000F8949091D00791708091D00789278093AC
:10141000D0077894992361F4F89490916B079170B8
:1014200080916B07892780936B077894992311F03B
:101430000E947B02F8949091D00792708091D0071F
:1014400089278093D0077894992331F086EA94E035
:1014500060E070E00E94D302F8949091D0079470FD
:101460008091D00789278093D0077894992311F031
:101470000E942901F8949091D00798708091D0072C
:1014800089278093D0077894992351F089EA94E0D2
:101490000E9465018AE696E06DE176E00E94B00B5D
:1014A000F8949091D00790718091D007892780930C
:1014B000D0077894992321F08AE696E00E942B0CBD
:1014C000F8949091D00790728091D00789278093EB
:1014D000D0077894992361F4F89490916B079072F7
:1014E00080916B07892780936B077894992321F06B
:1014F0008AE696E00E94F80BF8949091D0079074D9
:101500008091D00789278093D0077894992361F43C
:10151000F89490916B07907480916B078927809362
:101520006B077894992321F08AE696E00E94CF0B0E
:10153000F8949091D00790788091D0078927809374
:10154000D0077894992321F08AE696E00E94BE0B9A
:101550008091C00087FF04C080E090E00E9477087F
:101560008091C80087FF4BCF81E090E00E94770810
:1015700046CFEF92FF920F931F93CF93DF93EC012F
:1015800086B590E00E94430D30EDE32E37E0F32E58
:1015900017C00E943E0D61EF70E00E94890C8C0123
:1015A000065F1F4F88810E94310180E090E004C0F7
:1015B000F7013197F1F7019680179107CCF3219647
:1015C0008881882331F7DF91CF911F910F91FF9090
:1015D000EF90089588EE93E028EC30E0F901319720
:1015E000F1F70197D9F788EB94E00E94B90A80EDF2
:1015F00097E028EC30E0F9013197F1F70197D9F73E
:1016000084EC94E00E94B90A88E893E128EC30E089
:10161000F9013197F1F70197D9F786ED94E00E942F
:10162000B90A80E797E128EC30E0F9013197F1F74A
:101630000197D9F70E94290108959F92AF92BF9216
:10164000CF92DF92EF92FF920F931F93CF93DF938E
:101650007C01FC01C480D580BB24992452C0E92DB3
:10166000F0E0E217F3070CF06BC08F01040F151FB9
:101670009394F801EE0FFF1FE00FF11F63E0EE0FF0
:10168000FF1F6A95E1F7EC0DFD1D858181FDE7CF18
:10169000F70161816B0D80810E941501F701A38024
:1016A000AA94F601218130E02F5F3F4F808190E0C6
:1016B000890D911D2817390711F48AE201C080E2D3
:1016C0000E943101E801CC0FDD1FC00FD11F219610
:1016D00083E0CC0FDD1F8A95E1F7CC0DDD1D10E016
:1016E00006C08991882331F00E9431011F5F1A15CD
:1016F000C0F306C080E20E9431011F5F1A15D0F3CB
:10170000B394F7018281B816D8F4F6018081482F8E
:1017100050E08281282F30E0241B350BA0CFF70149
:1017200061816B0D80810E94150110E004C080E290
:101730000E9431011F5FF70183811817C0F3B39432
:10174000F7018281B81658F3DF91CF911F910F9165
:10175000FF90EF90DF90CF90BF90AF909F90089553
:10176000FC01DB018481958114969C938E931397E1
:1017700075836483CF010E941D0B0895DC011496CC
:10178000ED91FC91159783819481009739F015961E
:101790009C938E931497CD010E941D0B0895CF93B7
:1017A000DF93EC01AC81BD8111962C91119722231E
:1017B000E1F02150822F90E0FC01EE0FFF1FE80FB7
:1017C000F91F83E0EE0FFF1F8A95E1F7EA0FFB1F79
:1017D000858181FDECCF11962C9311978C91281760
:1017E00008F42C93CE010E941D0BDF91CF91089538
:1017F000CF93DF93EC01AC81BD8111962C911197B1
:1018000012969C9112972F5F291710F5422F50E0E6
:10181000FA01EE0FFF1FE40FF51F63E0EE0FFF1F4D
:101820006A95E1F7EA0FFB1F858181FDECCF1196E8
:101830002C9311973A818C9190E0830F911D48175A
:1018400059071CF0231B2F5F2C93CE010E941D0B08
:10185000DF91CF9108950F931F93CF93DF938C0166
:10186000FC01C481D581898190E09C01220F331F46
:10187000280F391FD901F3E0AA0FBB1FFA95E1F732
:10188000AC0FBD1F15968C91159780FF08C05B9615
:101890006D917C915C97C8010E94B00B13C0C90187
:1018A0000196E3E0880F991FEA95E1F7C80FD91F69
:1018B0001696ED91FC9117975B968D919C915C9794
:1018C000BE010995C8010E941D0BDF91CF911F91A8
:1018D0000F910895629FD001739FF001829FE00DE8
:1018E000F11D649FE00DF11D929FF00D839FF00D9F
:1018F000749FF00D659FF00D9927729FB00DE11D4B
:10190000F91F639FB00DE11DF91FBD01CF01112427
:10191000089597FB092E07260AD077FD04D027D01B
:1019200006D000201AF4709561957F4F0895F6F760
:10193000909581959F4F089597FB092E05260ED00F
:1019400057FD04D028D00AD0001C38F4509540959B
:10195000309521953F4F4F4F5F4F0895F6F7909583
:101960008095709561957F4F8F4F9F4F0895AA1B6B
:10197000BB1B51E107C0AA1FBB1FA617B70710F07A
:10198000A61BB70B881F991F5A95A9F780959095AC
:10199000BC01CD010895A1E21A2EAA1BBB1BFD01BB
:1019A0000DC0AA1FBB1FEE1FFF1FA217B307E4073E
:1019B000F50720F0A21BB30BE40BF50B661F771F96
:1019C000881F991F1A9469F7609570958095909576
:1019D0009B01AC01BD01CF010895A0E0B0E0E3EFB1
:1019E000FCE00C94030EEC01A880B980CA80DB8077
:1019F000A114B104C104D10441F484E2A82E89EDFC
:101A0000B82E8BE5C82E87E0D82EC601B5012DE192
:101A100033EF41E050E00E949C0C27EA31E440E0C3
:101A200050E00E946A0C7B018C01C601B5012DE1DA
:101A300033EF41E050E00E949C0CCA01B9012CEE4A
:101A400034EF4FEF5FEF0E946A0C6E0D7F1D801F19
:101A5000911F97FF04C06150704080409048688398
:101A600079838A839B839B013F77C901CDB7DEB71A
:101A7000EAE00C941F0E0E94ED0C08958DE597E0AE
:101A80000E94ED0C0895A0E0B0E080935D07909374
:101A90005E07A0935F07B09360070895FC01882755
:101AA0009927E89421912032E9F3293010F02E3063
:101AB000C8F32B3241F02D3239F4689404C00E94EF
:101AC000E30D820F911D219120532A30C0F31EF4A3
:101AD000909581959F4F0895FB01DC010D900020AA
:101AE000E9F7119701900D920020E1F70895FB01AD
:101AF000DC018D91019080190110D9F3990B0895A3
:101B0000FB01DC014150504030F08D910190801973
:101B100019F40020B9F7881B990B0895FB019F0168
:101B2000E8944230C4F04532B4F44A3029F497FBCB
:101B30001EF4909581959F4F642F77270E94B70CD4
:101B4000805D8A330CF0895D8193CB010097A1F70A
:101B500016F45DE251931082C9010C94EB0DFA0169
:101B6000CF93FF93EF93223044F1253234F5C22F07
:101B7000E894CA3049F497FB3EF4909580957095AF
:101B800061957F4F8F4F9F4F2C2F33274427552729
:101B9000FF93EF930E94CB0CEF91FF91605D6A334E
:101BA0000CF0695D6193B901CA01605070408040DA
:101BB000904051F716F4CDE2C19310828F919F911E
:101BC000CF910C94EB0D7AE0979F902D879F802DFD
:101BD000910D11240895DC01FC01672F7191772389
:101BE000E1F7329704C07C916D9370836291AE17D8
:101BF000BF07C8F308952F923F924F925F926F9262
:101C00007F928F929F92AF92BF92CF92DF92EF928C
:101C1000FF920F931F93CF93DF93CDB7DEB7CA1B0D
:101C2000DB0B0FB6F894DEBF0FBECDBF09942A8838
:101C3000398848885F846E847D848C849B84AA84E0
:101C4000B984C884DF80EE80FD800C811B81AA816D
:101C5000B981CE0FD11D0FB6F894DEBF0FBECDBF38
:081C6000ED010895F894FFCF97
:101C680031480A00506F736974696F6E3A20000A30
:101C7800005374617475732067656D656C64657471
:101C88002100202020202020202020302C2020204F
:101C9800202020202020302C4B2C4B2C520D0A00C9
:101CA800202020202020202020392C202020202007
:101CB80020202020302C4B2C4B2C520D0A002020A9
:101CC80020202020202039392C20202020202020CE
:101CD8002020302C4B2C4B2C520D0A002020202089
:101CE8002020203939392C20202020202020202095
:101CF800302C4B2C4B2C520D0A00203939393939EC
:101D0800393939392C202020202020202020302C3F
:101D18004B2C4B2C520D0A00315F4D494E5F5350EE
:101D28004545443A00315F4D41585F53504545445D
:101D38003A00315F4143435F53504545443A0030D0
:101D48000D0A0032303030000053656C65637465ED
:101D5800643A20004D616E75656C6C6572204D6F3C
:101D68006475730A004175666E61686D65207374E9
:101D7800617274656E0A004E616368204175666E13
:101D880061686D6520535733206472FC636B656E20
:101D9800210A004D2031363030300D0030004163CB
:101DA8006873653A20002028526F746174696F6EF9
:101DB800290A002028486F656865292020200A0024
:101DC800546573743A200057696C6C6B6F6D6D6560
:101DD8006E20696D205465726D696E616C204D6F5F
:101DE8006475730D0A006DF6676C69636865204257
:101DF800656665686C652073696E643A200D0A0033
:101E08002041202D204D6F746F7273746174757347
:101E18000D0A204D202D204D6F7665205374657076
:101E2800730D0A00546573742062657374616E647F
:101E3800656E20202020200A005465737420626596
:101E48007374616E64656E00202020202020200AB3
:101E580000210021540053746174757361626672C5
:101E680061676520202020200A00483A2020202091
:101E7800202020202020202020202020200A004D63
:101E88006F746F72207374617274656E0A005F4DAF
:101E98006F7665210A004D203136303030300D0A1A
:101EA80000522F423F00520D0A00483120656D70E4
:101EB80066616E67656E202020202020200A00556C
:101EC8005F423A200021454E442020202020202037
:101ED8000A004572666F6C6772656963680A004537
:101EE80072726F720A00310D0A00546573742062B1
:101EF800657374616E64656E0A00416E74776F7203
:101F0800743A2000210A00526573657276650D0ADD
:101F180000546573742062657374616E64656E0D38
:101F28000A00496E6974005374617475736162665E
:101F3800726167653A20202020200A00410A00309B
:101F480023004665686C67657363686C6167656ED6
:101F580020202020200A002D310D0A00506F733AEE
:101F6800004B65696E65204265776567756E672108
:101F78000A0072756E6E696E6720746F0A004B6591
:101F8800696E6520416E74776F72740A00312300A0
:101F9800506F736974696F6E3A200A002045727237
:101FA80065696368740A004953454C3A202020202B
:101FB8000A00556E62656B616E6E746572204D6FB6
:101FC800746F72210A0042656665686C206E2E2067
:101FD8006265737461657469670A0072756E6E690B
:101FE8006E670A000D0A3E200D0A3E200D0A3E20AB
:101FF8000D0A3E20004543484F300D005A3A005321
:10200800656E643A2000300A004265747265746532
:10201800204D656EFC210A0048656C6C6F204A6F84
:1020280065210A00486176652061206E6963652034
:10203800446179210A004265206120486F6E657904
:1020480020426565210A004D203132353030300A92
:10205800004D202D3132353030300A004D203130DE
:102068003030300A004D202D31303030300A004DEC
:102078004120300A00000005000000D2092B393049
:102088000000000000000000000000000000000048
:10209800E70400D2092D39300000000000000000DC
:1020A8000000000000000000F10400D2092B3130CC
:1020B8002E303030205363687269747465000000F4
:1020C800FC0400D2092D31302E30303020536368A3
:1020D8007269747465000000050500D209476568D7
:1020E80065207A756D205572737072756E67000081
:1020F8000F05440A00510A004E20310A003F0A0029
:10210800000004000000D2094D6F746F727374618F
:102118007475730000000000000000DC0300D209A1
:102128005365747A65205572737072756E67000016
:10213800000000920500D209577269746520746F17
:1021480020454550524F4D00000000950500D2092A
:102158004E65776C696E6520310000000000000054
:10216800000000980500D209506172612E20617547
:10217800736C6573656E00000000009D0500000328
:1021880000000100004265776567656E202D2052CA
:102198006F746174696F6E00150501000042657700
:1021A8006567656E202D20486F6568650000000032
:1021B80015050100004B6F6E666967757269657277
:1021C800656E000000000000A00500000413000078
:1021D80004077C00000000077C00000000FFFF40AF
:1021E800303100513A004543484F30002154657260
:1021F8006D696E616C007F06830686068C0600009A
:1022080021434C53005465737400214D616E756110
:102218006C00215959595900A006A506AA06B2060C
:102228000000474F0057414954002158585858005A
:10223800434F4D4558004D4131004431313235004E
:10224800413800563800505345543000A006A506C2
:10225800C206C506CA06D006D606DA06E006E306B2
:102268008606E6060000546573743200443A32006C
:10227800483A0047004D3A004831000607A006A535
:102288000683060C07100713071507F10218070045
:102298000058585858585858004030520040304D4F
:1022A800003107A006A5067F0639073D0700002371
:1022B8000045004F075107A006A5060000010000D1
:0222C800000014
:00000001FF
