:100000000C943E000C945B000C945B000C945B0021
:100010000C945B000C945B000C945B000C945002FD
:100020000C94FB010C945B000C945B000C945B0043
:100030000C945B000C945B000C945B000C945B00D4
:100040000C945B000C945B000C9474010C945B00AA
:100050000C945B000C945B000C945B000C945B00B4
:100060000C945B000C945B000C945B000C945B00A4
:100070000C945B000C945B000C945B0011241FBE7D
:10008000CFEFD8E0DEBFCDBF17E0A0E0B1E0ECE2FB
:10009000FCE102C005900D92A43BB107D9F718E02E
:1000A000A4EBB7E001C01D92A232B107E1F70E94B4
:1000B000070A0C94140E0C940000662311F0469A63
:1000C00001C0469845983B9A3A9A399A389A40988E
:1000D00041984298439887FD409A86FD419A85FD54
:1000E000429A84FD439A449A00C0449840984198AB
:1000F0004298439883FD409A82FD419A81FD429A3D
:1001000080FD439A449A00C04498439A429A419A87
:10011000409A0895882311F0469A01C04698459A5E
:100120003B983A9839983898449A00C0339B02C05B
:1001300080E101C080E03299806231998064309919
:100140008068449800C0449A00C033998160329915
:10015000826031998460309988604498089580E085
:100160000E948A0087FDFBCF82E090E00197F1F7C3
:1001700080E00E948A0008951F93182F0E94AF000C
:10018000812F60E00E945D001F9108951F93182F3A
:100190000E94AF00812F61E00E945D001F910895D1
:1001A000662311F4805809C0613011F4805405C0F1
:1001B000623011F48C5601C08C520E94BC0008952C
:1001C0000E94AF0090E0089581E00E94BC00089575
:1001D00082E00E94BC0008951F93182F0E94AF0078
:1001E000982F1A3099F4843110F480E40BC08054B5
:1001F000843110F484E106C094519C3210F080E008
:1002000001C084E580580E94BC0018C0833111F4FD
:1002100080EC0BC0833511F484E907C0873211F4F8
:1002200084ED03C0873621F480E860E00E945D0021
:100230000E94AF00812F61E00E945D001F91089530
:10024000CF93DF93EC0102C00E94EC0089918823D8
:10025000D9F7DF91CF910895CF93DF93EC0102C0DE
:100260000E94EC00FE01219684918823C9F7DF915A
:10027000CF9108951F93182F3E9A3D9A3C9A3B9A2E
:100280003A9A399A389A80E89EE30197F1F7429AB0
:10029000439A449A00C0449880E893E10197F1F7AB
:1002A000449A00C0449880E490E0FC013197F1F753
:1002B000449A00C04498FC013197F1F74398449A5E
:1002C00000C044980197F1F788E20E94BC0088E0E2
:1002D0000E94BC000E94E40086E00E94BC00812FC6
:1002E0000E94BC001F9108951F920F920FB60F92AB
:1002F00011242F938F939F9382EB86BD80912108C9
:1003000020B1209528278091BA0782238095809379
:10031000BA079091B907922398279093B90782233F
:1003200089239091210898279093210820912008F3
:10033000909121088923822B8093200880912108A5
:10034000877819F482E38093B8078091B8078150C9
:100350008093B807882359F484E18093B80790917B
:10036000BB07809121088778892B8093BB079F91D9
:100370008F912F910F900FBE0F901F901895F894AA
:100380009091200889239091200898279093200825
:1003900078940895F8949091BB0789239091BB07B6
:1003A00098279093BB0778940895F894909121082A
:1003B000F894209120089095892382239091200819
:1003C00098279093200878940895982FF894809116
:1003D000BB0798238091BB0789278093BB0778943C
:1003E000F894809120088923909120089827909371
:1003F0002008789408951F920F920FB60F9211243F
:100400008F939F9385B191E0892785B99F918F91B3
:100410000F900FBE0F901F9018951092C50023E308
:100420002093C40096E09093C200E1ECF0E080815C
:10043000886080838081806180831092CD002093CA
:10044000CC009093CA00E9ECF0E080818860808362
:100450008081806180830895982F672B39F4809183
:10046000C00085FFFCCF9093C60008958091C8001E
:1004700085FFFCCF9093CE0008950F931F93CF93E9
:10048000DF93EC018B0104C0B8010E942C0221967D
:1004900088818823C9F7DF91CF911F910F9108952B
:1004A0001F920F920FB60F9211242F933F934F93E9
:1004B0005F936F937F938F939F93AF93BF93EF93CC
:1004C000FF9380E091E061E070E00E943D0285B121
:1004D00091E0892785B9FF91EF91BF91AF919F91ED
:1004E0008F917F916F915F914F913F912F910F90DD
:1004F0000FBE0F901F901895009739F48091C0009F
:1005000087FFFCCF8091C6000BC0019719F02FEF39
:100510003FEF08C08091C80087FFFCCF8091CE00DC
:10052000282F30E0C9010895EF92FF920F931F9397
:10053000CF93DF938C017B01C0E0D0E0C7010E9424
:100540007C028D3021F0F80181938F012196C43611
:10055000D10524F48D3011F08A3081F7F801108232
:10056000DF91CF911F910F91FF90EF90089584E05C
:1005700091E060E070E00E943D02089541E050E0AB
:10058000A8ECB0E061E070E021C0FD013197F1F727
:100590000197D9F725B1CB01042E02C0880F991F0E
:1005A0000A94E2F78095822385B925B141505040E5
:1005B000CB01042E02C0880F991F0A94E2F7282B62
:1005C00025B94E5F5F4F4930510519F080E293E045
:1005D000DCCF089581B111B882B18FEF82B985E087
:1005E00085BD83EF86BDEEE6F0E08081816080838B
:1005F0007894089585B1982F990F907F8770982BE4
:10060000903F08F4986095B90895F894A895E0E6AD
:10061000F0E080818861808389E680837894089502
:100620000E9405038FEF84B985B9E3E7F0E080818C
:1006300080618083E8E6F0E08081886080830E94AA
:10064000BE028EE00E943A010E94E4000E94E8008F
:100650000E94EA020E940D0208950F931F938B01DE
:100660000E94E40082E291E00E942001C8010E9401
:1006700020018EEE92E0A0EDB7E01197F1F701971F
:10068000D1F71F910F9108958DE291E00E94200112
:100690008EE391E00E94200180E591E00E9420011C
:1006A000F894909120089870809120088927809371
:1006B00020087894992331F08EE691E061E070E0B3
:1006C0000E943D020895CF92DF92EF92FF920F9326
:1006D0001F93DF93CF93CDB7DEB761970FB6F89432
:1006E000DEBF0FBECDBF6C0182E390E3A0E3B0E0BC
:1006F0008E839F83A887B9871B861A86DE011C9686
:10070000E4EAF1E085E001900D928150E1F7198A69
:1007100082E390E3A0E3B0E089839A83AB83BC8358
:100720001D8284E0E82EF12CA0E0B0E09E012A5F5B
:100730003F4FF601EE0DFF1D8081863441F0F90137
:10074000EA0FFB1F808311960894E11CF11CA63070
:10075000B10524F4882311F0863459F78E010A5F1D
:100760001F4FA00FB11F1C9287E791E00E9420014C
:10077000C8010E94200184E891E00E9420010894B1
:10078000E11CF11CA0E0B0E09E01245F3F4FF601A8
:10079000EE0DFF1D8081823541F0F901EA0FFB1F4C
:1007A00080830894E11CF11C1196A630B10524F455
:1007B000882311F0823559F78E01045F1F4FA00F77
:1007C000B11F1C9286E891E00E942001C8010E949E
:1007D000200184E891E00E942001C7010196A0E079
:1007E000B0E0AE014F5F5F4FF601E80FF91F2081C7
:1007F000233531F0FA01EA0FFB1F20830196119691
:10080000A430B10524F4222311F0233569F78E01B9
:100810000F5F1F4FA00FB11F1C9283E991E00E9450
:100820002001C8010E94200184E891E00E9420017B
:1008300080EA91E060E070E00E943D0261960FB6B0
:10084000F894DEBF0FBECDBFCF91DF911F910F9106
:10085000FF90EF90DF90CF900895EF92FF920F936B
:100860001F93CF93DF93EC0186B590E00E94E90CD3
:1008700090EDE92E97E0F92E17C00E94E40C61EF8D
:1008800070E00E942F0C8C01065F1F4F88810E9430
:10089000EC0080E090E004C0F7013197F1F7019699
:1008A00080179107CCF321968881882331F7DF9157
:1008B000CF911F910F91FF90EF90089588EE93E0F4
:1008C00028EC30E0F9013197F1F70197D9F78AEA7E
:1008D00091E00E942D0480ED97E028EC30E0F901D2
:1008E0003197F1F70197D9F786EB91E00E942D043B
:1008F00088E893E128EC30E0F9013197F1F70197AE
:10090000D9F788EC91E00E942D0480E797E128EC6C
:1009100030E0F9013197F1F70197D9F70E94E4002F
:1009200008950F931F93CF93DF938C01C0E0D0E025
:10093000DE011196FD01E454F84FE081EC3211F430
:10094000DE0103C0C00FD11FE883A431B10534F428
:10095000EE2321F0EC3211F0ED01EACFA00FB11F30
:100960001C92C8010E94120D29E030E040E050E0E6
:100970000E94420CCA01B901A8012AE030E00E949D
:100980007C0DDF91CF911F910F9108950F931F93CD
:10099000CF93DF938C01EB0189ED91E00E94F40C81
:1009A000892B61F48BED91E00E94200189ED91E0AB
:1009B0000E94200183EE91E00E94200189ED91E0E8
:1009C0000E94F40C019761F48BED91E00E942001EC
:1009D00089ED91E00E94200180EF91E00E942001CA
:1009E0008DEF91E00E942001CE010E942001A0E045
:1009F000B0E0F801EA0FFB1F83818C3229F0FE0181
:100A0000EA0FFB1F80831196A431B10524F48823DB
:100A100011F08C3271F7AC0FBD1F1C92CE010E94F9
:100A2000120D27EC35E141E050E00E94100C20E06F
:100A300034E040E050E00E94420CCA01B901AE012E
:100A40002AE030E00E947C0DDF91CF911F910F9141
:100A50000895CF92DF92EF92FF920F931F93CF935F
:100A6000DF936C017A018B01CFEFDFEF08C0C60185
:100A7000A7010E944D0D0E5F1F4F009749F0219670
:100A8000F801608171816115710589F7C3E6D0E0D5
:100A9000CE01DF91CF911F910F91FF90EF90DF90EA
:100AA000CF900895DF93CF93CDB7DEB72A970FB6D7
:100AB000F894DEBF0FBECDBFDE011196E8EEF6E082
:100AC0002AE001900D922150E1F7BE016F5F7F4F48
:100AD00043E050E00E9429058130910561F08230A9
:100AE00091051CF4892B51F012C08230910549F018
:100AF000039769F409C021E030E00BC020E030E04A
:100B000008C022E030E005C023E030E002C02EEF54
:100B10003FEFC9012A960FB6F894DEBF0FBECDBFD6
:100B2000CF91DF9108950F931F93DF93CF93CDB7AC
:100B3000DEB72A970FB6F894DEBF0FBECDBF8C018B
:100B4000DE011196EAE0F7E08AE001900D92815013
:100B5000E1F78091B6079091B707892BC1F481E046
:100B600090E09093B7078093B60784E092E060E04E
:100B700070E00E943D0283E292E060E070E00E943B
:100B80003D028FE392E060E070E00E943D02C80108
:100B9000BE016F5F7F4F42E050E00E942905813027
:100BA000910561F0823091051CF4892B21F00FC072
:100BB00004976CF41EC00E94E4001BC083E692E020
:100BC0000E94200188E792E060E070E010C0C80158
:100BD0000E94200187E892E00E942001C80161E0A4
:100BE00070E00E943D0284E891E061E070E00E94C4
:100BF0003D022A960FB6F894DEBF0FBECDBFCF914F
:100C0000DF911F910F9108950F931F93DF93CF935F
:100C1000CDB7DEB7A0970FB6F894DEBF0FBECDBF3D
:100C20008C01DE011B96EDE6F7E086E101900D9266
:100C30008150E1F7C801BE01655F7F4F42E050E09F
:100C40000E94290584309105C1F18530910584F415
:100C50008130910529F1823091051CF4892BE9F04E
:100C600065C082309105F9F0039709F05FC01EC09E
:100C70008730910581F1883091053CF485309105EC
:100C800001F1069709F052C023C08830910509F49C
:100C90003FC0099709F04AC046C080E992E04FC0C2
:100CA0000E94E4004EC082E992E049C085E992E0EA
:100CB0000E9420010E94B70244C0C8010E94630341
:100CC00040C089EA92E00E94200180EA91E026C0BB
:100CD0008EEB92E034C08091B4079091B5070196F5
:100CE0009093B5078093B4078E010F5F1F4FB80133
:100CF0004AE050E00E945B0DC8010E9420018DEC8B
:100D000092E00E94200185ED92E061E070E008C071
:100D100080EE92E00E94200185EE92E060E070E0BB
:100D20000E943D020EC089EE92E009C08EEF92E073
:100D30000E942001C8010E94200184E093E00E94EB
:100D40002001A0960FB6F894DEBF0FBECDBFCF91A5
:100D5000DF911F910F910895DF93CF93CDB7DEB749
:100D60002A970FB6F894DEBF0FBECDBFDE011196F5
:100D7000E5EAF7E02AE001900D922150E1F7BE018B
:100D80006F5F7F4F41E050E00E942905813091055F
:100D900079F0823091051CF4892B39F01CC0823027
:100DA000910589F00397B9F411C081E193E010C077
:100DB0008EE193E00E94200185E293E060E070E024
:100DC0000E943D0210C00E94E4000DC089E293E041
:100DD0000E94200108C08AE090E0A0EDB7E01197E2
:100DE000F1F70197D1F72A960FB6F894DEBF0FBE40
:100DF000CDBFCF91DF910895CF92DF92EF92FF9216
:100E00000F931F93DF93CF93CDB7DEB7C755D04075
:100E10000FB6F894DEBF0FBECDBF6C01DE01119698
:100E2000E3E9F7E08EE001900D928150E1F7C60111
:100E3000BE016F5F7F4F43E050E00E942905823082
:100E40009105C9F08330910534F4009771F0019752
:100E500009F0FEC00DC084309105F9F08430910591
:100E60008CF0059709F0F4C041C089E393E0F5C028
:100E70000E94E400F4C089E293E00E94200183E430
:100E800093E0E1C08AE090E0A0EDB7E01197F1F7C0
:100E90000197D1F784E593E0D2C089E593E00E9401
:100EA00020018EE693E061E070E00E943D0282E363
:100EB00090E0A0EDB7E01197F1F70197D1F780919D
:100EC000C80087FF04C081E090E00E943F08C6018F
:100ED00061E773E00E94440D009709F4B2C084E713
:100EE00093E00E94200189E893E0ADC08AE090E0A1
:100EF000A0EDB7E01197F1F70197D1F73FE0E32EAE
:100F0000F12CEC0EFD1E81E2F70111928A95E9F7B2
:100F1000C601B7010E94C6048E01005D1F4F88E222
:100F2000F80111928A95E9F78DE488AB81E489ABE9
:100F300080E28AAB1BAAC801B7010E94390DC80123
:100F400064E871E00E94390D8EE893E00E94200170
:100F5000C8010E942001C80161E070E00E943D02CA
:100F600002E310E0F801A0EDB7E01197F1F7019767
:100F7000D1F78091C80087FF72C081E090E00E94A5
:100F80003F088EE693E061E070E00E943D02F801C8
:100F9000A0EDB7E01197F1F70197D1F78091C80064
:100FA00087FF05C081E090E00E943F0830C083E9E0
:100FB00093E00E9420012BC08EE693E061E070E098
:100FC0000E943D02F701A0EDB7E01197F1F70197FC
:100FD000D1F78091C80087FF14C081E090E00E94A3
:100FE0003F080E94E40084EA93E00E94200180EB25
:100FF00093E00E942001C8010E94200184E891E052
:1010000002C08BEB93E00E942001A89506C022E36A
:10101000E22EF12C8E01015F1F4FC6016AEC73E0D6
:101020000E94440D009709F4C7CF8DEC93E00E9415
:101030002001CE010F960E94200189ED93E00E94CD
:10104000200180EA91E060E070E00E943D0207C06C
:1010500084EE93E00E942001C6010E942001C95A3B
:10106000DF4F0FB6F894DEBF0FBECDBFCF91DF913B
:101070001F910F91FF90EF90DF90CF9008950F9305
:101080001F938C018CEB97E0B8010E949402013011
:10109000110529F48CEB97E00E94AC0648C08091C2
:1010A000CF069091D0068E5F9F4F51F48FEE93E064
:1010B0000E9420018FEF9FEF9093D0068093CF0680
:1010C0008091CF069091D0068F5F9F4F41F48CEBBB
:1010D00097E00E9452059093D0068093CF068091AE
:1010E000CF069091D006892B21F48CEB97E00E94DB
:1010F000FC068091CF069091D006019721F48CEBED
:1011000097E00E9404068091CF069091D006029746
:1011100021F48CEB97E00E94C5088091CF06909156
:10112000D006039721F48CEB97E00E9493051F9162
:101130000F9108950F931F938C0161E070E00E945E
:101140003D020E94E40083E094E00E942001C80177
:101150000E94200184E891E00E94200184E690E052
:10116000A0EDB7E01197F1F70197D1F781E090E09A
:101170000E943F0888EE93E0A0EDB7E01197F1F7E9
:101180000197D1F71F910F910895AF92BF92CF921F
:10119000DF92EF92FF920F931F93DF93CF93CDB720
:1011A000DEB7C356D0400FB6F894DEBF0FBECDBF3A
:1011B0007C01DE011196EEE3F7E08AE101900D92E9
:1011C0008150E1F78E01045C1F4F88E2D8011D9227
:1011D0008A95E9F78DE48CAF81E48DAF80E28EAF24
:1011E0001FAEC701BE016F5F7F4F41E050E00E941C
:1011F0002905873091056CF4833091050CF0F5C01A
:101200008130910501F18230910504F5892BC1F0FF
:10121000E1C08930910509F4CFC08A30910544F4CA
:101220008730910509F4BDC0089709F0D3C0DDC02F
:101230008A30910509F4CBC00B9709F0CBC0D5C01B
:101240000E94E400D2C083E692E0CDC084E690E044
:10125000A0EDB7E01197F1F70197D1F7C801BE01F2
:10126000655E7F4F0E94390DC80164E871E00E94FD
:10127000390DC80161E070E00E943D0202E310E018
:10128000F801A0EDB7E01197F1F70197D1F7809140
:10129000C80087FF16C081E090E00E943F088EE6FC
:1012A00093E061E070E00E943D02F801A0EDB7E03C
:1012B0001197F1F70197D1F78091C80088234CF47A
:1012C00003C08AE094E08FC081E090E00E943F0874
:1012D0004CC083E993E00E94200147C08FE194E075
:1012E00061E070E00E943D02F501A0EDB7E01197CA
:1012F000F1F70197D1F78091C80087FF10C081E016
:1013000090E00E943F080E94E40082E294E00E9484
:101310002001C7010E94200187E394E002C08BEB0B
:1013200093E00E942001A8958EE693E061E070E0D2
:101330000E943D02F601A0EDB7E01197F1F7019789
:10134000D1F78091C80087FF0AC081E090E00E9439
:101350003F08C8010E94200184E891E002C08BEBA5
:1013600093E00E942001A89509C054E6A52EB12C57
:1013700042E3C42ED12C8E01055E1F4FC7016AECDB
:1013800073E00E94440D009709F4A8CF8DEC93E020
:101390000E942001CE014B960E94200189ED93E02E
:1013A0000DC0FE017B9681E2DF011D928A95E9F76F
:1013B000CF010E94910419C08CE494E00E942001A6
:1013C0008BE394E060E070E00E943D020EC081E695
:1013D00094E009C086E794E00E942001C7010E94C2
:1013E000200189E794E00E942001CD59DF4F0FB61C
:1013F000F894DEBF0FBECDBFCF91DF911F910F914B
:10140000FF90EF90DF90CF90BF90AF9008950E9433
:101410001003A895F894909120089170809120086D
:101420008927809320087894992361F4F894909107
:10143000BB0791708091BB0789278093BB07789485
:10144000992311F00E94FA02F8949091200892706A
:10145000809120088927809320087894992331F07F
:101460008EE794E060E070E00E943D02F894909175
:101470002008947080912008892780932008789410
:10148000992311F00E94E400F8949091200898703C
:10149000809120088927809320087894992351F01F
:1014A00081E894E00E94200189EC96E06CE776E008
:1014B0000E94560BF894909120089071809120081A
:1014C0008927809320087894992321F089EC96E06D
:1014D0000E94D10BF894909120089072809120087E
:1014E0008927809320087894992361F4F894909147
:1014F000BB0790728091BB0789278093BB077894C4
:10150000992321F089EC96E00E949E0BF89490912B
:10151000200890748091200889278093200878946F
:10152000992361F4F8949091BB0790748091BB0764
:1015300089278093BB077894992321F089EC96E062
:101540000E94750BF8949091200890788091200863
:101550008927809320087894992321F089EC96E0DC
:101560000E94640B8091C00087FF04C080E090E07F
:101570000E943F088091C80087FF4BCF81E090E038
:101580000E943F0846CF9F92AF92BF92CF92DF92C8
:10159000EF92FF920F931F93CF93DF937C01FC0197
:1015A000C480D580BB24992452C0E92DF0E0E21715
:1015B000F3070CF06BC08F01040F151F9394F80113
:1015C000EE0FFF1FE00FF11F63E0EE0FFF1F6A95A4
:1015D000E1F7EC0DFD1D858181FDE7CFF70161810C
:1015E0006B0D80810E94D000F701A380AA94F601C0
:1015F000218130E02F5F3F4F808190E0890D911D68
:101600002817390711F48AE201C080E20E94EC0039
:10161000E801CC0FDD1FC00FD11F219683E0CC0F56
:10162000DD1F8A95E1F7CC0DDD1D10E006C0899124
:10163000882331F00E94EC001F5F1A15C0F306C02A
:1016400080E20E94EC001F5F1A15D0F3B394F701FB
:101650008281B816D8F4F6018081482F50E082814B
:10166000282F30E0241B350BA0CFF70161816B0DD3
:1016700080810E94D00010E004C080E20E94EC0053
:101680001F5FF70183811817C0F3B394F7018281BC
:10169000B81658F3DF91CF911F910F91FF90EF9003
:1016A000DF90CF90BF90AF909F900895FC01DB0139
:1016B0008481958114969C938E931397758364838C
:1016C000CF010E94C30A0895DC011496ED91FC91AC
:1016D000159783819481009739F015969C938E938A
:1016E0001497CD010E94C30A0895CF93DF93EC01B4
:1016F000AC81BD8111962C9111972223E1F02150EC
:10170000822F90E0FC01EE0FFF1FE80FF91F83E02E
:10171000EE0FFF1F8A95E1F7EA0FFB1F858181FD20
:10172000ECCF11962C9311978C91281708F42C93D9
:10173000CE010E94C30ADF91CF910895CF93DF932A
:10174000EC01AC81BD8111962C91119712969C9160
:1017500012972F5F291710F5422F50E0FA01EE0F74
:10176000FF1FE40FF51F63E0EE0FFF1F6A95E1F71F
:10177000EA0FFB1F858181FDECCF11962C93119709
:101780003A818C9190E0830F911D481759071CF006
:10179000231B2F5F2C93CE010E94C30ADF91CF91B0
:1017A00008950F931F93CF93DF938C01FC01C481A5
:1017B000D581898190E09C01220F331F280F391FAA
:1017C000D901F3E0AA0FBB1FFA95E1F7AC0FBD1FDB
:1017D00015968C91159780FF08C05B966D917C9152
:1017E0005C97C8010E94560B13C0C9010196E3E043
:1017F000880F991FEA95E1F7C80FD91F1696ED914A
:10180000FC9117975B968D919C915C97BE01099511
:10181000C8010E94C30ADF91CF911F910F910895D3
:10182000629FD001739FF001829FE00DF11D649FC4
:10183000E00DF11D929FF00D839FF00D749FF00D50
:10184000659FF00D9927729FB00DE11DF91F639FF1
:10185000B00DE11DF91FBD01CF011124089597FBC3
:10186000092E07260AD077FD04D027D006D0002005
:101870001AF4709561957F4F0895F6F790958195CC
:101880009F4F089597FB092E05260ED057FD04D0D3
:1018900028D00AD0001C38F45095409530952195F9
:1018A0003F4F4F4F5F4F0895F6F790958095709595
:1018B00061957F4F8F4F9F4F0895AA1BBB1B51E12E
:1018C00007C0AA1FBB1FA617B70710F0A61BB70BB0
:1018D000881F991F5A95A9F780959095BC01CD0155
:1018E0000895A1E21A2EAA1BBB1BFD010DC0AA1F61
:1018F000BB1FEE1FFF1FA217B307E407F50720F079
:10190000A21BB30BE40BF50B661F771F881F991FF3
:101910001A9469F760957095809590959B01AC013C
:10192000BD01CF010895A0E0B0E0E9E9FCE00C942E
:10193000E50DEC01A880B980CA80DB80A114B10458
:10194000C104D10441F484E2A82E89EDB82E8BE5C0
:10195000C82E87E0D82EC601B5012DE133EF41E056
:1019600050E00E94420C27EA31E440E050E00E943F
:10197000100C7B018C01C601B5012DE133EF41E074
:1019800050E00E94420CCA01B9012CEE34EF4FEF37
:101990005FEF0E94100C6E0D7F1D801F911F97FF3F
:1019A00004C06150704080409048688379838A8386
:1019B0009B839B013F77C901CDB7DEB7EAE00C946A
:1019C000010E0E94930C08958FEA97E00E94930CF9
:1019D0000895A0E0B0E08093AF079093B007A09384
:1019E000B107B093B2070895FC0188279927E894BE
:1019F00021912032E9F3293010F02E30C8F32B3238
:101A000041F02D3239F4689404C00E94C50D820F54
:101A1000911D219120532A30C0F31EF49095819599
:101A20009F4F08951F93FC0199278827BC01E894D4
:101A300011911032E9F3193010F01E30C8F31B3247
:101A400051F01D3249F4689406C00E94B00D610F38
:101A5000711D811D911D119110531A30B0F33EF488
:101A600090958095709561957F4F8F4F9F4F1F91F7
:101A70000895FB01DC010D900020E9F7119701901A
:101A80000D920020E1F70895FB01DC018D9101909A
:101A900080190110D9F3990B0895FB01DC01415025
:101AA000504030F08D910190801919F40020B9F761
:101AB000881B990B0895FB019F01E8944230C4F004
:101AC0004532B4F44A3029F497FB1EF49095819581
:101AD0009F4F642F77270E945D0C805D8A330CF046
:101AE000895D8193CB010097A1F716F45DE25193D4
:101AF0001082C9010C94CD0DFA01CF93FF93EF939F
:101B0000223044F1253234F5C22FE894CA3049F42A
:101B100097FB3EF490958095709561957F4F8F4F20
:101B20009F4F2C2F332744275527FF93EF930E9475
:101B3000710CEF91FF91605D6A330CF0695D619308
:101B4000B901CA01605070408040904051F716F4CE
:101B5000CDE2C19310828F919F91CF910C94CD0DC6
:101B6000592F482F372F262F660F771F881F991F51
:101B7000660F771F881F991F620F731F841F951FA1
:101B8000660F771F881F991F08957AE0979F902D01
:101B9000879F802D910D11240895DC01FC01672F92
:101BA00071917723E1F7329704C07C916D93708334
:101BB0006291AE17BF07C8F308952F923F924F92DC
:101BC0005F926F927F928F929F92AF92BF92CF92CD
:101BD000DF92EF92FF920F931F93CF93DF93CDB7D6
:101BE000DEB7CA1BDB0B0FB6F894DEBF0FBECDBF4E
:101BF00009942A88398848885F846E847D848C841F
:101C00009B84AA84B984C884DF80EE80FD800C8127
:101C10001B81AA81B981CE0FD11D0FB6F894DEBF0A
:0C1C20000FBECDBFED010895F894FFCF7A
:101C2C0031480A00203939393939393939392C20B8
:101C3C002020202020202020302C4B2C4B2C520DEF
:101C4C000A0053656C65637465643A20004D616EDF
:101C5C0075656C6C6572204D6F6475730A00417507
:101C6C00666E61686D65207374617274656E0A00CE
:101C7C004E616368204175666E61686D65205357CF
:101C8C0033206472EFBFBD636B656E210A004D207B
:101C9C0031363030300D00315F4D494E5F53504579
:101CAC0045443A000A00315F4D41585F5350454559
:101CBC00443A00315F4143435F53504545443A0039
:101CCC00300D0A0032303030000048656C6C6F20EB
:101CDC004A6F65210A00486176652061206E696350
:101CEC006520446179210A004265206120486F6EAD
:101CFC00657920426565210A00300041636873658F
:101D0C003A20002028526F746174696F6E290A00A2
:101D1C002028486F656865292020200A00546573C7
:101D2C00743A200057696C6C6B6F6D6D656E206931
:101D3C006D205465726D696E616C204D6F647573A6
:101D4C000D0A006DEFBFBD676C6963686520426565
:101D5C006665686C652073696E643A200D0A002014
:101D6C0041202D204D6F746F727374617475730DF7
:101D7C000A204D202D204D6F7665205374657073AD
:101D8C000D0A00546573742062657374616E64652A
:101D9C006E20202020200A00546573742062657325
:101DAC0074616E64656E00202020202020200A00C3
:101DBC002100215400537461747573616266726101
:101DCC00676520202020200A00483A20202020206F
:101DDC002020202020202020202020200A004D6FB1
:101DEC00746F72207374617274656E0A005F4D6F4C
:101DFC007665210A004D203136303030300D0A0026
:101E0C00522F423F00520D0A00483120656D70661A
:101E1C00616E67656E202020202020200A00555F0F
:101E2C00423A200021454E44202020202020200A28
:101E3C00004572666F6C6772656963680A0045726B
:101E4C00726F720A00310D0A00546573742062655A
:101E5C007374616E64656E0A0052657365727665A3
:101E6C000D0A00546573742062657374616E646549
:101E7C006E0D0A00496E6974005374617475736158
:101E8C006266726167653A20202020200A00410AB0
:101E9C00003023004665686C67657363686C616726
:101EAC00656E20202020200A002D310D0A00506F75
:101EBC00733A004B65696E65204265776567756E90
:101ECC0067210A0072756E6E696E6720746F0A0066
:101EDC00506F736974696F6E3A20004B65696E655B
:101EEC0020416E74776F72740A00312300506F7347
:101EFC006974696F6E3A200A0020457272656963D5
:101F0C0068740A004953454C3A202020200A005599
:101F1C006E62656B616E6E746572204D6F746F725C
:101F2C00210A0053656E643A200042656665686C50
:101F3C00206E2E206265737461657469670A0057A0
:101F4C000A00506F736974696F6E28416B742F4768
:101F5C006573293A200A00202F20000D0A3E200D1F
:101F6C000A3E200D0A3E200D0A3E20005370656586
:101F7C006420736574202020202020202020200A3B
:101F8C00004563686F206F6666202020202020208B
:101F9C00202020200A005A3A002020200A00300A73
:101FAC000042657472657465204D656EEFBFBD218E
:101FBC000A004D203132353030300A004D202D31A1
:101FCC0032353030300A004D2031303030300A009C
:101FDC004D202D31303030300A004D4120300A0078
:101FEC000000050000009A082B39300000000000AA
:101FFC0000000000000000000000009204009A089D
:10200C002D3930000000000000000000000000002E
:10201C000000009C04009A082B31302E3030302008
:10202C005363687269747465000000A704009A0811
:10203C002D31302E303030205363687269747465E2
:10204C00000000B004009A0847656865207A756D39
:10205C00205572737072756E670000BA04324D2091
:10206C003530303030300A00324D202D35303030A4
:10207C0030300A00324D20313030303030300A00F0
:10208C00324D202D313030303030300A00324D415D
:10209C0020300A000000050000009A082B35303073
:1020AC002E30303000000000000000000000003D29
:1020BC0005009A082D3530302E30303000000000ED
:1020CC00000000000000004805009A082B312E305B
:1020DC0030302E303030205363687269747465541C
:1020EC0005009A082D312E3030302E3030302053F0
:1020FC00636872697474656005009A084765686561
:10210C00207A756D205572737072756E6700006D54
:10211C0005440A00510A004E20310A003F0A000013
:10212C0000040000009A084D6F746F727374617430
:10213C00757300000000000000006E03009A085345
:10214C0065747A65205572737072756E6700000045
:10215C000000F105009A08577269746520746F20AD
:10216C00454550524F4D00000000F405009A084EB2
:10217C0065776C696E65203100000000000000007E
:10218C000000F705009A08506172612E206175738A
:10219C006C6573656E0000000000FC050000030018
:1021AC00000100004265776567656E202D20526F37
:1021BC00746174696F6E00C004010000426577653C
:1021CC0067656E202D20486F6568650000000074FF
:1021DC00050100004B6F6E66696775726965726503
:1021EC006E000000000000FF05000004130000FF5B
:1021FC00FF40303100513A004543484F30002154E4
:10220C0065726D696E616C00D106D506D806DE0666
:10221C00000021434C53005465737400214D616ED2
:10222C0075616C00215959595900F206F706FC06E4
:10223C0004070000474F0057414954002158585893
:10224C005800434F4D4558004D4131004431313217
:10225C003500413800563800505345543000F206D2
:10226C00F706140717071C07220728072C07320745
:10227C003507D80638070000546573743200443AA9
:10228C003200483A0047004D3A004831005807F2F6
:10229C0006F706D5065E0762076507670790026AB0
:1022AC0007000058585858585858004030520040B1
:1022BC00304D008307F206F706D1068B078F070017
:1022CC000023004500A107A307F206F70600000152
:0422DC0000000000FE
:00000001FF
