:100000000C94A1000C94BE000C94BE000C94BE0095
:100010000C94BE000C94BE000C94BE000C94E6023E
:100020000C9491020C94BE000C94BE000C94BE0083
:100030000C94BE000C94BE000C94BE000C94BE0048
:100040000C94BE000C94BE000C94B8010C94BE003D
:100050000C94BE000C94BE000C94BE000C94BE0028
:100060000C94BE000C94BE000C94BE000C94BE0018
:100070000C94BE000C94BE000C94BE00496E6974D2
:100080000A00000000000000000000000000004026
:1000900030310000000000000000000000000000FF
:1000A0000000000000000000000000000000000050
:1000B00000000000000000300D0A000000000000F9
:1000C0000000000000000000000000000000000030
:1000D00000000000000000000000000000000048D8
:1000E0006F6D650A000000000000000000000000C5
:1000F000000040303100000000000000000000005F
:1001000000000000000000000000000000000000EF
:1001100000000000000000000000300D0A00000098
:1001200000000000000000000000000000000000CF
:1001300000000000000000000000000000000000BF
:10014000000011241FBECFEFD8E0DEBFCDBF15E009
:10015000A0E0B1E0E6E7FBE102C005900D92A43516
:10016000B107D9F715E0A4E5B5E001C01D92A43CA4
:10017000B107E1F70E94A6090C94B90D0C94000098
:10018000282F662311F0469A01C04698459887B1FA
:100190008F6087B998B1907F822F82958F70892B5D
:1001A00088B9449A00C044982F70292B28B9449AE2
:1001B00000C044989F6098B90895882311F0469A2A
:1001C00001C04698459A87B1807F87B9449A00C09C
:1001D00096B1449800C0449A00C086B18F70929541
:1001E000907F4498892B089580E00E94DD0087FD70
:1001F000FBCF82E090E00197F1F780E00E94DD0004
:1002000008951F93182F0E94F400812F60E00E9430
:10021000C0001F9108951F93182F0E94F400812F92
:1002200061E00E94C0001F910895662311F4805878
:1002300009C0613011F4805405C0623011F48C564D
:1002400001C08C520E94010108950E94F40090E0C8
:10025000089581E00E940101089582E00E94010159
:1002600008951F93182F0E94F400982F1A3099F4C4
:10027000843110F480E40BC08054843110F484E1A4
:1002800006C094519C3210F080E001C084E5805893
:100290000E94010118C0833111F480EC0BC083353A
:1002A00011F484E907C0873211F484ED03C0873666
:1002B00021F480E860E00E94C0000E94F400812FD9
:1002C00061E00E94C0001F910895CF93DF93EC017D
:1002D00002C00E94310189918823D9F7DF91CF9123
:1002E0000895CF93DF93EC0102C00E943101FE011B
:1002F000219684918823C9F7DF91CF9108951F93A8
:10030000182F87B18F6087B93E9A3D9A3C9A80E852
:100310009EE30197F1F7419A409A449A00C04498AD
:1003200080E893E10197F1F7449A00C0449880E493
:1003300090E0FC013197F1F7449A00C04498FC0129
:100340003197F1F74098449A00C044980197F1F72B
:1003500088E20E94010188E00E9401010E942901B7
:1003600086E00E940101812F0E9401011F910895E2
:100370001F920F920FB60F9211242F938F939F937A
:1003800082EB86BD8091C30520B1209528278091FE
:100390005C058223809580935C0590915B05922398
:1003A000982790935B05822389239091C305982712
:1003B0009093C3052091C2059091C3058923822B98
:1003C0008093C2058091C305877819F482E38093F6
:1003D0005A0580915A05815080935A05882359F413
:1003E00084E180935A0590915D058091C3058778DB
:1003F000892B80935D059F918F912F910F900FBE58
:100400000F901F901895F8949091C20589239091B0
:10041000C20598279093C20578940895F894909116
:100420005D05892390915D05982790935D057894EB
:100430000895F8949091C305F8942091C205909581
:10044000892382239091C20598279093C2057894BE
:100450000895982FF89480915D05982380915D050B
:10046000892780935D057894F8948091C20589234B
:100470009091C20598279093C2057894089541E021
:1004800050E0A8ECB0E061E070E021C0FD013197E0
:10049000F1F70197D9F725B1CB01042E02C0880FDF
:1004A000991F0A94E2F78095822385B925B14150BE
:1004B0005040CB01042E02C0880F991F0A94E2F726
:1004C000282B25B94E5F5F4F4930510519F080E266
:1004D00093E0DCCF089581B111B882B18FEF82B97A
:1004E00085E085BD83EF86BDEEE6F0E0808181602A
:1004F00080837894089585B1982F990F907F8770A5
:10050000982B903F08F4986095B90895F894A895B1
:10051000E0E6F0E080818861808389E680837894DA
:1005200008951F920F920FB60F9211248F939F93ED
:1005300085B191E0892785B99F918F910F900FBE6A
:100540000F901F9018951092C50023E32093C400CC
:1005500096E09093C200E1ECF0E0808188608083B7
:100560008081806180831092CD002093CC00909395
:10057000CA00E9ECF0E0808188608083808180613E
:1005800080830895982F672B39F48091C00085FFF0
:10059000FCCF9093C60008958091C80085FFFCCFE2
:1005A0009093CE0008950F931F93CF93DF93EC01A8
:1005B0008B0104C0B8010E94C20221968881882361
:1005C000C9F7DF91CF911F910F9108951F920F925C
:1005D0000FB60F9211242F933F934F935F936F9316
:1005E0007F938F939F93AF93BF93EF93FF9380E09D
:1005F00091E061E070E00E94D30285B191E089272B
:1006000085B9FF91EF91BF91AF919F918F917F91AC
:100610006F915F914F913F912F910F900FBE0F906F
:100620001F901895009739F48091C00087FFFCCF88
:100630008091C6000BC0019719F02FEF3FEF08C063
:100640008091C80087FFFCCF8091CE00282F30E03A
:10065000C9010895EF92FF920F931F93CF93DF93F9
:100660008C017B01C0E0D0E0C7010E9412038D30F5
:1006700021F0F80181938F012196C436D10524F42D
:100680008D3011F08A3081F7F8011082DF91CF911F
:100690001F910F91FF90EF90089520915405309194
:1006A000550587E2203138070CF047C083E0283E2B
:1006B00038071CF084E090E014C0243631051CF0AB
:1006C00083E090E00EC02A3031051CF082E090E01B
:1006D00008C02115310519F480E090E002C081E0E6
:1006E00090E02F5F3F4F30935505209354058130A4
:1006F000910599F0823091051CF4892B39F01AC0CC
:100700008230910569F00397A9F40DC084E091E06F
:100710000E94650185E191E008C083E391E005C096
:1007200081E591E002C08FE691E060E070E00E9418
:10073000D30208958DE891E0F8CF85E090E0D1CF25
:10074000CF92DF92EF92FF920F931F93DF93CF939D
:10075000CDB7DEB761970FB6F894DEBF0FBECDBF41
:100760006C0182E390E3A0E3B0E08E839F83A887CF
:10077000B9871B861A86DE011C96E8EDF1E085E05C
:1007800001900D928150E1F7198A82E390E3A0E392
:10079000B0E089839A83AB83BC831D8284E0E82E1A
:1007A000F12CA0E0B0E09E012A5F3F4FF601EE0D74
:1007B000FF1D8081863441F0F901EA0FFB1F808321
:1007C00011960894E11CF11CA630B10524F488238D
:1007D00011F0863459F78E010A5F1F4FA00FB11F29
:1007E0001C928BEA91E00E946501C8010E9465019C
:1007F00088EB91E00E9465010894E11CF11CA0E0E7
:10080000B0E09E01245F3F4FF601EE0DFF1D808199
:10081000823541F0F901EA0FFB1F80830894E11C47
:10082000F11C1196A630B10524F4882311F082350D
:1008300059F78E01045F1F4FA00FB11F1C928AEB66
:1008400091E00E946501C8010E94650188EB91E07A
:100850000E946501C7010196A0E0B0E0AE014F5FC4
:100860005F4FF601E80FF91F2081233531F0FA01BF
:10087000EA0FFB1F208301961196A430B10524F4E2
:10088000222311F0233569F78E010F5F1F4FA00F50
:10089000B11F1C9287EC91E00E946501C8010E9483
:1008A000650188EB91E00E9465018091540590916B
:1008B00055050196909355058093540584ED91E07C
:1008C00060E070E00E94D30261960FB6F894DEBF3C
:1008D0000FBECDBFCF91DF911F910F91FF90EF9091
:1008E000DF90CF900895CF93DF93EB01A0E0B0E0CD
:1008F000FC01EA0FFB1F22812C3229F0FE01EA0FD6
:10090000FB1F20831196A431B10524F4222311F09A
:100910002C3271F7AC0FBD1F1C92CE010E94A70CA8
:100920009B01AC01E3E0660F771F881F991FEA95D2
:10093000D1F7620F731F841F951FAE012AE030E0CC
:100940000E94210DDF91CF9108950F931F93CF93B4
:10095000DF938C01EB018EED91E00E94890C892BD5
:1009600061F480EE91E00E9465018EED91E00E94BD
:10097000650188EE91E00E9465018EED91E00E9494
:10098000890C019761F480EE91E00E9465018EED83
:1009900091E00E94650185EF91E00E94650182E08F
:1009A00092E00E946501CE010E946501A0E0B0E0E6
:1009B000F801EA0FFB1F83818C3229F0FE01EA0F58
:1009C000FB1F80831196A431B10524F4882311F014
:1009D0008C3271F7AC0FBD1F1C92CE010E94890CA6
:1009E000AA2797FDA095BA2FBC01CD0127EC35E1D0
:1009F00041E050E00E94A50B20E034E040E050E0F0
:100A00000E94D70BCA01B901AE012AE030E00E9472
:100A1000210DDF91CF911F910F910895CF92DF9219
:100A2000EF92FF920F931F93CF93DF936C017A01A4
:100A30008B01CFEFDFEF08C0C601A7010E94F20CC7
:100A40000E5F1F4F009749F02196F8016081718178
:100A50006115710589F7C3E6D0E0CE01DF91CF9132
:100A60001F910F91FF90EF90DF90CF900895DF934B
:100A7000CF93CDB7DEB72A970FB6F894DEBF0FBE7F
:100A8000CDBFDE011196E8E8F4E02AE001900D9276
:100A90002150E1F7BE016F5F7F4F43E050E00E94BD
:100AA0000E058130910561F0823091051CF4892B8F
:100AB00051F012C08230910549F0039769F409C0E2
:100AC00021E030E00BC020E030E008C022E030E060
:100AD00005C023E030E002C02EEF3FEFC9012A96A7
:100AE0000FB6F894DEBF0FBECDBFCF91DF91089552
:100AF0000F931F93DF93CF93CDB7DEB72A970FB62F
:100B0000F894DEBF0FBECDBF8C01DE011196EAEA7C
:100B1000F4E08AE001900D928150E1F78091580550
:100B200090915905892BC1F481E090E0909359058B
:100B30008093580589E092E060E070E00E94D30263
:100B400088E292E060E070E00E94D30282E492E0EA
:100B500060E070E00E94D302C801BE016F5F7F4F6A
:100B600042E050E00E940E058130910561F0823034
:100B700091051CF4892B21F00FC004976CF41EC062
:100B80000E9429011BC086E692E00E9465018BE766
:100B900092E060E070E010C0C8010E9465018AE840
:100BA00092E00E946501C80161E070E00E94D302FA
:100BB00088EB91E061E070E00E94D3022A960FB6C4
:100BC000F894DEBF0FBECDBFCF91DF911F910F9183
:100BD00008950F931F93DF93CF93CDB7DEB7A09700
:100BE0000FB6F894DEBF0FBECDBF8C01DE011B96A1
:100BF000EDE0F5E086E101900D928150E1F7C8014A
:100C0000BE01655F7F4F42E050E00E940E058430D8
:100C10009105C1F18530910584F48130910529F168
:100C2000823091051CF4892BE9F065C08230910572
:100C3000F9F0039709F05FC01EC08730910581F17C
:100C4000883091053CF48530910501F1069709F053
:100C500052C023C08830910509F43FC0099709F0BC
:100C60004AC046C083E992E04FC00E9429014EC0AD
:100C700085E992E049C088E992E00E9465010E94FE
:100C80004D0344C0C8010E94A00340C08CEA92E01A
:100C90000E94650184ED91E026C081EC92E034C0B1
:100CA0008091560590915705019690935705809332
:100CB00056058E010F5F1F4FB8014AE050E00E94B9
:100CC000000DC8010E94650180ED92E00E9465015F
:100CD00088ED92E061E070E008C083EE92E00E944F
:100CE000650188EE92E060E070E00E94D3020EC0E1
:100CF0008CEE92E009C081E093E00E946501C8019A
:100D00000E94650187E093E00E946501A0960FB6FE
:100D1000F894DEBF0FBECDBFCF91DF911F910F9131
:100D200008950F931F93DF93CF93CDB7DEB72A9724
:100D30000FB6F894DEBF0FBECDBF8C01DE01119659
:100D4000E5E4F5E08AE001900D928150E1F7C801F9
:100D5000BE016F5F7F4F41E050E00E940E05813081
:100D6000910579F0823091051CF4892B39F01AC075
:100D70008230910589F00397A9F411C084E193E0D2
:100D80001AC081E293E00E94650188E293E060E08E
:100D900070E00E94D30211C00E9429010EC08CE2B3
:100DA00093E009C08CE393E00E946501C8010E94B2
:100DB000650186E493E00E9465012A960FB6F894D7
:100DC000DEBF0FBECDBFCF91DF911F910F91089570
:100DD000CF92DF92EF92FF920F931F93DF93CF9307
:100DE000CDB7DEB7C957D0400FB6F894DEBF0FBEFF
:100DF000CDBF6C01DE011396E3E3F5E08EE00190D8
:100E00000D928150E1F7C601BE016D5F7F4F43E057
:100E100050E00E940E0582309105C9F083309105A3
:100E200034F4009771F0019709F000C10DC08430CF
:100E3000910581F1843091058CF0059709F0F6C099
:100E400052C089E493E0F7C00E942901F6C08CE209
:100E500093E00E94650183E593E0E3C08AE090E0BF
:100E6000A0EDB7E01197F1F70197D1F76091640415
:100E700070916504CE01019642E050E00E94CE0CD4
:100E80008E010F5E1F4F69817A81C8010E94D70CC5
:100E9000C801C3C084E693E00E94650189E793E03E
:100EA00061E070E00E94D30282E390E0A0EDB7E041
:100EB0001197F1F70197D1F78091C80087FF04C01F
:100EC00081E090E00E942D08C6016CE773E00E946B
:100ED000E90C009709F4A3C08FE793E00E94650135
:100EE00084E993E09EC08AE090E0A0EDB7E011971E
:100EF000F1F70197D1F7F1E3EF2EF12CEC0EFD1E87
:100F000081E2F70111928A95E9F7C601B7010E94C3
:100F1000A5048E010E5A1F4F88E2F80111928A959E
:100F2000E9F78DE4F801808381E4818380E28283A4
:100F30001382C801B7010E94DE0CC80168EB71E0A2
:100F40000E94DE0C89E993E00E946501C8010E94BD
:100F50006501C80161E070E00E94D30202E310E085
:100F6000F801A0EDB7E01197F1F70197D1F7809163
:100F7000C80087FF62C081E090E00E942D0889E7E9
:100F800093E061E070E00E94D302F801A0EDB7E0C9
:100F90001197F1F70197D1F78091C80087FF05C03D
:100FA00081E090E00E942D0825C08EE993E00E9428
:100FB000650120C089E793E061E070E00E94D30200
:100FC000F801A0EDB7E01197F1F70197D1F7809103
:100FD000C80087FF09C081E090E00E942D080E94B0
:100FE00029018FEA93E002C088EB93E00E9465013B
:100FF000A89502C002E310E0C60167EC73E00E940E
:10100000E90C0097B9F28AEC93E00E946501CE01E9
:10101000C1960E94650186ED93E00E94650184ED12
:1010200091E060E070E00E94D30207C081EE93E09F
:101030000E946501C6010E946501C758DF4F0FB6C7
:10104000F894DEBF0FBECDBFCF91DF911F910F91FE
:10105000FF90EF90DF90CF9008950F931F938C0136
:101060008EE595E0B8010E942A030130110529F4AC
:101070008EE595E00E94910648C080916F049091A2
:1010800070048E5F9F4F51F48CEE93E00E946501D7
:101090008FEF9FEF9093700480936F0480916F04A3
:1010A000909170048F5F9F4F41F48EE595E00E9410
:1010B00037059093700480936F0480916F04909132
:1010C0007004892B21F48EE595E00E94E80680915A
:1010D0006F0490917004019721F48EE595E00E94D1
:1010E000E90580916F0490917004029721F48EE5D8
:1010F00095E00E94880880916F0490917004039796
:1011000021F48EE595E00E9478051F910F910895D6
:10111000EF92FF920F931F93DF93CF93CDB7DEB77C
:10112000C356D0400FB6F894DEBF0FBECDBF7C01D2
:10113000DE011196EEEDF4E08AE101900D9281500E
:10114000E1F78E01045C1F4F88E2D8011D928A9559
:10115000E9F78DE48CAF81E48DAF80E28EAF1FAEF6
:10116000C701BE016F5F7F4F41E050E00E940E0556
:10117000873091056CF4833091050CF0BCC0813050
:101180009105C1F082309105C4F4892B81F0A8C08B
:101190008A30910524F408970CF0ADC08EC08A30D7
:1011A000910509F496C00B9709F09AC0A4C00E945B
:1011B0002901A1C086E692E09CC084E690E0A0ED03
:1011C000B7E01197F1F70197D1F7C801BE01655E4D
:1011D0007F4F0E94DE0CC80168EB71E00E94DE0CBC
:1011E000C80161E070E00E94D30202E310E0F80160
:1011F000A0EDB7E01197F1F70197D1F78091C80002
:1012000087FF16C081E090E00E942D0889E793E0F7
:1012100061E070E00E94D302F801A0EDB7E0119701
:10122000F1F70197D1F78091C80088234CF403C0EF
:1012300080E094E05EC081E090E00E942D0825C02F
:101240008EE993E00E94650120C089E793E061E0A8
:1012500070E00E94D302F801A0EDB7E01197F1F71A
:101260000197D1F78091C80087FF09C081E090E025
:101270000E942D080E9429018FEA93E002C088EBAA
:1012800093E00E946501A89502C002E310E0C70147
:1012900067EC73E00E94E90C0097B9F28AEC93E0E6
:1012A0000E946501CE014B960E94650186ED93E098
:1012B0000E94650185E194E00EC0FE017B9681E20B
:1012C000DF011D928A95E9F7C701BF010E947304EF
:1012D00012C086E294E060E070E00E94D3020BC08E
:1012E0008DE294E00E946501C7010E9465018AE8D1
:1012F00092E00E946501CD59DF4F0FB6F894DEBF32
:101300000FBECDBFCF91DF911F910F91FF90EF9056
:1013100008950E9486028FEF84B985B9E3E7F0E073
:10132000808180618083E8E6F0E08081886080834E
:101330000E943F028EE00E947F010E9429010E94CC
:101340002D010E946B020E94A30208950E94890948
:10135000A895F8949091C20591708091C205892753
:101360008093C2057894992361F4F89490915D0577
:10137000917080915D05892780935D05789499230C
:1013800011F00E947B02F8949091C20592708091B6
:10139000C20589278093C2057894992331F080E3B0
:1013A00094E060E070E00E94D302F8949091C2054E
:1013B00094708091C20589278093C20578949923FF
:1013C00011F00E9429018091C00087FF04C080E0D5
:1013D00090E00E942D088091C80087FFB9CF81E07E
:1013E00090E00E942D08B4CFEF92FF920F931F93CD
:1013F000CF93DF93EC0186B590E00E947E0CA0EDC8
:10140000EA2EA7E0FA2E17C00E94790C61EF70E077
:101410000E94C40B8C01065F1F4F88810E9431011E
:1014200080E090E004C0F7013197F1F70196801752
:101430009107CCF321968881882331F7DF91CF91F2
:101440001F910F91FF90EF90089588EE93E028ECA4
:1014500030E0F9013197F1F70197D9F783E394E090
:101460000E94F40980ED97E028EC30E0F901319713
:10147000F1F70197D9F78FE394E00E94F40988E827
:1014800093E128EC30E0F9013197F1F70197D9F7B2
:1014900081E594E00E94F40980E797E128EC30E0D0
:1014A000F9013197F1F70197D9F70E9429010895C1
:1014B0009F92AF92BF92CF92DF92EF92FF920F93E3
:1014C0001F93CF93DF937C01FC01C480D580BB24A4
:1014D000992452C0E92DF0E0E217F3070CF06BC03D
:1014E0008F01040F151F9394F801EE0FFF1FE00FFB
:1014F000F11F63E0EE0FFF1F6A95E1F7EC0DFD1D94
:10150000858181FDE7CFF70161816B0D80810E94AC
:101510001501F701A380AA94F601218130E02F5F25
:101520003F4F808190E0890D911D2817390711F4F4
:101530008AE201C080E20E943101E801CC0FDD1F88
:10154000C00FD11F219683E0CC0FDD1F8A95E1F7F4
:10155000CC0DDD1D10E006C08991882331F00E947A
:1015600031011F5F1A15C0F306C080E20E943101ED
:101570001F5F1A15D0F3B394F7018281B816D8F41F
:10158000F6018081482F50E08281282F30E0241B13
:10159000350BA0CFF70161816B0D80810E94150191
:1015A00010E004C080E20E9431011F5FF7018381D7
:1015B0001817C0F3B394F7018281B81658F3DF917E
:1015C000CF911F910F91FF90EF90DF90CF90BF9040
:1015D000AF909F900895FC01DB0184819581149662
:1015E0009C938E93139775836483CF010E94580A4E
:1015F0000895DC011496ED91FC91159783819481F7
:10160000009739F015969C938E931497CD010E9404
:10161000580A0895CF93DF93EC01AC81BD811196F8
:101620002C9111972223E1F02150822F90E0FC01B0
:10163000EE0FFF1FE80FF91F83E0EE0FFF1F8A95E3
:10164000E1F7EA0FFB1F858181FDECCF11962C930A
:1016500011978C91281708F42C93CE010E94580AF8
:10166000DF91CF910895CF93DF93EC01AC81BD81E1
:1016700011962C91119712969C9112972F5F291712
:1016800010F5422F50E0FA01EE0FFF1FE40FF51F97
:1016900063E0EE0FFF1F6A95E1F7EA0FFB1F8581FC
:1016A00081FDECCF11962C9311973A818C9190E0AB
:1016B000830F911D481759071CF0231B2F5F2C9394
:1016C000CE010E94580ADF91CF9108950F931F9386
:1016D000CF93DF938C01FC01C481D581898190E097
:1016E0009C01220F331F280F391FD901F3E0AA0FE5
:1016F000BB1FFA95E1F7AC0FBD1F15968C9115979E
:1017000080FF08C05B966D917C915C97C8010E9438
:10171000EB0A13C0C9010196E3E0880F991FEA950F
:10172000E1F7C80FD91F1696ED91FC9117975B96BC
:101730008D919C915C97BE010995C8010E94580A41
:10174000DF91CF911F910F910895629FD001739FF8
:10175000F001829FE00DF11D649FE00DF11D929F4D
:10176000F00D839FF00D749FF00D659FF00D99278C
:10177000729FB00DE11DF91F639FB00DE11DF91FB0
:10178000BD01CF011124089597FB092E07260AD029
:1017900077FD04D027D006D000201AF4709561950B
:1017A0007F4F0895F6F7909581959F4F089597FB89
:1017B000092E05260ED057FD04D028D00AD0001CD3
:1017C00038F450954095309521953F4F4F4F5F4FDE
:1017D0000895F6F790958095709561957F4F8F4F9E
:1017E0009F4F0895AA1BBB1B51E107C0AA1FBB1F37
:1017F000A617B70710F0A61BB70B881F991F5A959D
:10180000A9F780959095BC01CD010895A1E21A2E0B
:10181000AA1BBB1BFD010DC0AA1FBB1FEE1FFF1F94
:10182000A217B307E407F50720F0A21BB30BE40BE4
:10183000F50B661F771F881F991F1A9469F760952B
:101840007095809590959B01AC01BD01CF010895E5
:10185000A0E0B0E0EEE2FCE00C948A0DEC01A88080
:10186000B980CA80DB80A114B104C104D10441F461
:1018700084E2A82E89EDB82E8BE5C82E87E0D82EFD
:10188000C601B5012DE133EF41E050E00E94D70BD6
:1018900027EA31E440E050E00E94A50B7B018C0177
:1018A000C601B5012DE133EF41E050E00E94D70BB6
:1018B000CA01B9012CEE34EF4FEF5FEF0E94A50B88
:1018C0006E0D7F1D801F911F97FF04C061507040F7
:1018D00080409048688379838A839B839B013F770C
:1018E000C901CDB7DEB7EAE00C94A60D0E94280C22
:1018F00008958FE495E00E94280C0895A0E0B0E0E0
:1019000080934F0590935005A0935105B0935205D5
:101910000895FC0188279927E89421912032E9F362
:10192000293010F02E30C8F32B3241F02D3239F42B
:10193000689404C00E946A0D820F911D219120536A
:101940002A30C0F31EF4909581959F4F08951F9300
:10195000FC0199278827BC01E89411911032E9F322
:10196000193010F01E30C8F31B3251F01D3249F40B
:10197000689406C00E94550D610F711D811D911D57
:10198000119110531A30B0F33EF4909580957095F4
:1019900061957F4F8F4F9F4F1F910895FB01DC0191
:1019A00002C005900D9241505040D8F70895FB01B8
:1019B000DC0105900D920020E1F70895FB01DC01A8
:1019C0000D900020E9F7119701900D920020E1F7AA
:1019D0000895FB01DC018D91019080190110D9F36C
:1019E000990B0895FB01DC014150504030F08D917E
:1019F0000190801919F40020B9F7881B990B0895FC
:101A0000FB019F01E8944230C4F04532B4F44A30FF
:101A100029F497FB1EF4909581959F4F642F7727AB
:101A20000E94F20B805D8A330CF0895D8193CB01BB
:101A30000097A1F716F45DE251931082C9010C944E
:101A4000720DFA01CF93FF93EF93223044F12532C8
:101A500034F5C22FE894CA3049F497FB3EF49095D0
:101A60008095709561957F4F8F4F9F4F2C2F332717
:101A700044275527FF93EF930E94060CEF91FF91A7
:101A8000605D6A330CF0695D6193B901CA01605011
:101A900070408040904051F716F4CDE2C19310821F
:101AA0008F919F91CF910C94720D592F482F372F02
:101AB000262F660F771F881F991F660F771F881FB5
:101AC000991F620F731F841F951F660F771F881F52
:101AD000991F08957AE0979F902D879F802D910DF3
:101AE00011240895DC01FC01672F71917723E1F740
:101AF000329704C07C916D9370836291AE17BF07DB
:101B0000C8F308952F923F924F925F926F927F9207
:101B10008F929F92AF92BF92CF92DF92EF92FF92FD
:101B20000F931F93CF93DF93CDB7DEB7CA1BDB0BA9
:101B30000FB6F894DEBF0FBECDBF09942A8839884E
:101B400048885F846E847D848C849B84AA84B98455
:101B5000C884DF80EE80FD800C811B81AA81B98161
:101B6000CE0FD11D0FB6F894DEBF0FBECDBFED0175
:061B70000895F894FFCF78
:101B760031480A005374617475732067656D656C2E
:101B86006465742100202020202020202020302C75
:101B9600202020202020202020302C4B2C4B2C5283
:101BA6000D0A00202020202020202020392C202053
:101BB60020202020202020302C4B2C4B2C520D0A8C
:101BC60000202020202020202039392C20202020F1
:101BD6002020202020302C4B2C4B2C520D0A00208C
:101BE6002020202020203939392C20202020202098
:101BF600202020302C4B2C4B2C520D0A002039393A
:101C0600393939393939392C202020202020202013
:101C160020302C4B2C4B2C520D0A00315F4D494E77
:101C26005F53504545443A000A00315F4D41585FC5
:101C360053504545443A00315F4143435F53504555
:101C460045443A00300D0A00323030300000300092
:101C560041636873653A20002028526F7461746985
:101C66006F6E290A002028486F65686529202020A4
:101C76000A00546573743A200057696C6C6B6F6D7B
:101C86006D656E20696D205465726D696E616C209C
:101C96004D6F6475730D0A006DF6676C6963686550
:101CA6002042656665686C652073696E643A200D2E
:101CB6000A002041202D204D6F746F727374617479
:101CC60075730D0A204D202D204D6F7665205374B7
:101CD6006570730D0A0054657374206265737461D0
:101CE6006E64656E20202020200A005465737420DF
:101CF60062657374616E64656E002020202020206A
:101D0600200A0021002154005374617475736162C6
:101D1600667261676520202020200A00483A20204C
:101D26002020202020202020202020202020200AC3
:101D3600004D6F746F72207374617274656E0A0061
:101D46005F4D6F7665210A004D20313630303030D8
:101D56000D0A00522F423F00520D0A0048312065FD
:101D66006D7066616E67656E202020202020200A37
:101D760000555F423A200021454E44202020202075
:101D860020200A004572666F6C6772656963680A8F
:101D9600004572726F720A00310D0A005465737441
:101DA6002062657374616E64656E0A00416E7477B5
:101DB6006F72743A2000210A005265736572766567
:101DC6000D0A00546573742062657374616E6465F0
:101DD6006E0D0A0053746174757361626672616791
:101DE600653A20202020200A00410A0030230046C0
:101DF60065686C67657363686C6167656E20202033
:101E060020200A002D310D0A00506F733A004B65F1
:101E1600696E65204265776567756E67210A00728F
:101E2600756E6E696E670A004B65696E6520416E58
:101E360074776F72740A00312300506F7369746986
:101E46006F6E3A200A002045727265696368740AEB
:101E5600004953454C3A202020200A00556E626501
:101E66006B616E6E746572204D6F746F72210A001D
:101E760042656665686C206E2E20626573746165C6
:101E86007469670A000D0A3E200D0A3E200D0A3EBF
:101E9600200D0A3E20004543484F300D005A3A00B7
:101EA600300A0048656C6C6F204A6F65210A00484D
:101EB6006176652061206E69636520446179210A37
:101EC600004265206120486F6E6579204265652174
:101ED6000A0004077C00000000077C00000000FFE9
:101EE600FF40303100513A004543484F30002154FD
:101EF60065726D696E616C007104750478047E0408
:101F0600000021434C53005465737400214D616EEB
:101F160075616C00215959595900920497049C0423
:101F2600A4040000474F005741495400215858580F
:101F36005800434F4D4558004D4131004431313230
:101F4600350041380056380050534554300092044D
:101F56009704B404B704BC04C204C804CC04D20475
:101F6600D5047804D8040000546573743200443AEA
:101F76003200483A0047004D3A00483100F80492D2
:101F86000497047504FE0402050505070593020A75
:101F960005000058585858585858004030520040CC
:101FA600304D0023059204970471042B052F05007C
:101FB60000230045004105430592049704000001F3
:041FC6000000000017
:00000001FF
