:100000000C943E000C945B000C945B000C945B0021
:100010000C945B000C945B000C94D9030C940504C5
:100020000C9431040C945B000C945B000C945B000A
:100030000C945B000C945B000C945B000C945B00D4
:100040000C945B000C945B000C9474010C945B00AA
:100050000C945B000C945B000C945B000C945B00B4
:100060000C945B000C945B000C945B000C945B00A4
:100070000C945B000C945B000C945B0011241FBE7D
:10008000CFEFD8E0DEBFCDBF17E0A0E0B1E0EEE2F9
:10009000FCE102C005900D92A43DB107D9F718E02C
:1000A000A4EDB7E001C01D92A234B107E1F70E94B0
:1000B0006A0A0C94150E0C940000662311F0469AFF
:1000C00001C0469845983B9A3A9A399A389A40988E
:1000D00041984298439887FD409A86FD419A85FD54
:1000E000429A84FD439A449A00C0449840984198AB
:1000F0004298439883FD409A82FD419A81FD429A3D
:1001000080FD439A449A00C04498439A429A419A87
:10011000409A0895882311F0469A01C04698459A5E
:100120003B983A9839983898449A00C0339B02C05B
:1001300080E101C080E03299806231998064309919
:100140008068449800C0449A00C033998160329915
:10015000826031998460309988604498089580E085
:100160000E948A0087FDFBCF82E090E00197F1F7C3
:1001700080E00E948A0008951F93182F0E94AF000C
:10018000812F60E00E945D001F9108951F93182F3A
:100190000E94AF00812F61E00E945D001F910895D1
:1001A000662311F4805809C0613011F4805405C0F1
:1001B000623011F48C5601C08C520E94BC0008952C
:1001C0000E94AF0090E0089581E00E94BC00089575
:1001D00082E00E94BC0008951F93182F0E94AF0078
:1001E000982F1A3099F4843110F480E40BC08054B5
:1001F000843110F484E106C094519C3210F080E008
:1002000001C084E580580E94BC0018C0833111F4FD
:1002100080EC0BC0833511F484E907C0873211F4F8
:1002200084ED03C0873621F480E860E00E945D0021
:100230000E94AF00812F61E00E945D001F91089530
:10024000CF93DF93EC0102C00E94EC0089918823D8
:10025000D9F7DF91CF910895CF93DF93EC0102C0DE
:100260000E94EC00FE01219684918823C9F7DF915A
:10027000CF9108951F93182F3E9A3D9A3C9A3B9A2E
:100280003A9A399A389A80E89EE30197F1F7429AB0
:10029000439A449A00C0449880E893E10197F1F7AB
:1002A000449A00C0449880E490E0FC013197F1F753
:1002B000449A00C04498FC013197F1F74398449A5E
:1002C00000C044980197F1F788E20E94BC0088E0E2
:1002D0000E94BC000E94E40086E00E94BC00812FC6
:1002E0000E94BC001F9108951F920F920FB60F92AB
:1002F00011242F938F939F9382EB86BD80914108A9
:1003000020B1209528278091DA0782238095809359
:10031000DA079091D907922398279093D9078223DF
:100320008923909141089827909341082091400893
:10033000909141088923822B809340088091410845
:10034000877819F482E38093D8078091D807815089
:100350008093D807882359F484E18093D80790913B
:10036000DB07809141088778892B8093DB079F9179
:100370008F912F910F900FBE0F901F901895F894AA
:1003800090914008892390914008982790934008C5
:1003900078940895F8949091DB0789239091DB0776
:1003A00098279093DB0778940895F89490914108EA
:1003B000F8942091400890958923822390914008D9
:1003C00098279093400878940895982FF8948091F6
:1003D000DB0798238091DB0789278093DB077894DC
:1003E000F894809140088923909140089827909331
:1003F0004008789408951092C50023E32093C40028
:1004000096E09093C200E1ECF0E080818860808308
:100410008081806180831092CD002093CC009093E6
:10042000CA00E9ECF0E0808188608083808180618F
:1004300080830895982F672B39F48091C00085FF41
:10044000FCCF9093C60008958091C80085FFFCCF33
:100450009093CE0008950F931F93CF93DF93EC01F9
:100460008B0104C0B8010E941A022196888188235A
:10047000C9F7DF91CF911F910F910895009739F43B
:100480008091C00087FFFCCF8091C6000BC0019710
:1004900019F02FEF3FEF08C08091C80087FFFCCF15
:1004A0008091CE00282F30E0C9010895EF92FF928D
:1004B0000F931F93CF93DF938C017B01C0E0D0E0BB
:1004C000C7010E943E028D3021F0F80181938F0117
:1004D0002196C436D10524F48D3011F08A3081F78D
:1004E000F8011082F1E0EF16F10411F42B9A01C02B
:1004F0002A9ADF91CF911F910F91FF90EF9008956D
:1005000080E091E060E070E00E942B02089541E0FD
:1005100050E0A8ECB0E061E070E021C0FD0131974F
:10052000F1F70197D9F725B1CB01042E02C0880F4E
:10053000991F0A94E2F78095822385B925B141502D
:100540005040CB01042E02C0880F991F0A94E2F795
:10055000282B25B94E5F5F4F4930510519F080E2D5
:1005600093E0DCCF089581B111B882B18FEF82B9E9
:1005700085E085BD83EF86BDEEE6F0E08081816099
:1005800080837894089585B1880F8E3F08F4816048
:1005900085B90895F894A895E0E6F0E08081886137
:1005A000808389E68083789408950F931F938B014D
:1005B0000E94E4008EE191E00E942001C8010E94A7
:1005C00020018EEE92E0A0EDB7E01197F1F70197D0
:1005D000D1F71F910F91089589E291E00E942001C7
:1005E0008AE391E00E9420018DE491E00E942001C5
:1005F0008CE591E00E942001F89490914008907160
:10060000809140088927809340087894992331F09D
:100610008EE691E061E070E00E942B020895CF9297
:10062000DF92EF92FF920F931F93DF93CF93CDB79B
:10063000DEB761970FB6F894DEBF0FBECDBF6C0179
:1006400082E390E3A0E3B0E08E839F83A887B9871D
:100650001B861A86DE011C96E4EAF1E085E0019033
:100660000D928150E1F7198A82E390E3A0E3B0E0B4
:1006700089839A83AB83BC831D82A0E0B0E084E0D1
:10068000E82EF12C9E012A5F3F4FF601EE0DFF1D73
:100690008081863441F0F901EA0FFB1F80831196B7
:1006A0000894E11CF11CA630B10524F4882311F054
:1006B000863459F78E010A5F1F4FA00FB11F1C929D
:1006C00087E791E00E942001C8010E94200184E890
:1006D00091E00E9420010894E11CF11CA0E0B0E030
:1006E0009E01245F3F4FF601EE0DFF1D8081823594
:1006F00041F0F901EA0FFB1F80830894E11CF11C13
:100700001196A630B10524F4882311F0823559F7EB
:100710008E01045F1F4FA00FB11F1C9286E891E06D
:100720000E942001C8010E94200184E891E00E94FB
:100730002001C7010196A0E0B0E0AE014F5F5F4F1E
:10074000F601E80FF91F2081233531F0FA01EA0F95
:10075000FB1F208301961196A430B10524F42223B7
:1007600011F0233569F78E010F5F1F4FA00FB11FE6
:100770001C9283E991E00E942001C8010E9420019F
:1007800084E891E00E94200180EA91E060E070E05E
:100790000E942B0261960FB6F894DEBF0FBECDBF4C
:1007A000CF91DF911F910F91FF90EF90DF90CF904D
:1007B00008951F920F920FB60F9211242F933F931B
:1007C0004F935F936F937F938F939F93AF93BF9359
:1007D000EF93FF930E94E4008AEA91E00E942001D7
:1007E00085B198E0892785B9FF91EF91BF91AF91CD
:1007F0009F918F917F916F915F914F913F912F9139
:100800000F900FBE0F901F9018951F920F920FB66A
:100810000F9211242F933F934F935F936F937F9386
:100820008F939F93AF93BF93EF93FF930E94E40046
:1008300087EC91E00E94200185B198E0892785B975
:10084000FF91EF91BF91AF919F918F917F916F91A8
:100850005F914F913F912F910F900FBE0F901F907E
:1008600018951F920F920FB60F9211242F933F935A
:100870004F935F936F937F938F939F93AF93BF93A8
:10088000EF93FF932C980E94E40083EE91E00E9486
:100890002001FF91EF91BF91AF919F918F917F9137
:1008A0006F915F914F913F912F910F900FBE0F90DD
:1008B0001F901895EF92FF920F931F93CF93DF93A2
:1008C000EC0186B590E00E94EA0C90EDE92E97E0ED
:1008D000F92E17C00E94E50C61EF70E00E94300C09
:1008E0008C01065F1F4F88810E94EC0080E090E041
:1008F00004C0F7013197F1F7019680179107CCF307
:1009000021968881882331F7DF91CF911F910F9134
:10091000FF90EF90089588EE93E028EC30E0F90125
:100920003197F1F70197D9F78EE092E00E945A04CF
:1009300080EA9FE028EC30E0F9013197F1F7019768
:10094000D9F78AE192E00E945A0480EA9FE028ECFD
:1009500030E0F9013197F1F70197D9F70E94E400EF
:1009600008950E94CA028FEF84B985B9E3E7F0E0E9
:10097000808180618083E8E6F0E080818860808308
:100980003F9A88B1807888B98EE00E943A010E942F
:100990008B040E9487020E94B3020E94FB018AEE30
:1009A00096E06DE976E00E94570B08950F931F9330
:1009B000CF93DF938C01C0E0D0E0DE011196FD0102
:1009C000E452F84FE081EC3211F4DE0103C0C00FB5
:1009D000D11FE883A431B10534F4EE2321F0EC32C9
:1009E00011F0ED01EACFA00FB11F1C92C8010E94C7
:1009F000130D29E030E040E050E00E94430CCA01B2
:100A0000B901A8012AE030E00E947D0DDF91CF916D
:100A10001F910F9108958F929F92AF92BF92CF92A4
:100A2000DF92EF92FF920F931F93CF93DF938C018E
:100A3000EB014A0183E292E00E94F50C892B61F4FC
:100A400085E292E00E94200183E292E00E94200170
:100A50008DE292E00E94200183E292E00E94F50C78
:100A6000019761F485E292E00E94200183E292E026
:100A70000E9420018AE392E00E942001A0E0B0E001
:100A8000F801EA0FFB1F83818C3229F0FE01EA0F87
:100A9000FB1F80831196A431B10524F4882311F043
:100AA0008C3271F7AC0FBD1F1C92CE010E94130D4A
:100AB0007B018C0127EC35E141E050E00E94110CF4
:100AC0005B016C01C801B70120E23CE140E050E06D
:100AD0000E94430CCA01B901A4012AE030E00E943F
:100AE0007D0DC601B50120E034E040E050E00E94F9
:100AF000430CCA01B901AE012AE030E00E947D0D2D
:100B0000DF91CF911F910F91FF90EF90DF90CF90E9
:100B1000BF90AF909F908F900895CF92DF92EF9209
:100B2000FF920F931F93CF93DF936C017A018B0198
:100B3000CFEFDFEF08C0C601A7010E944E0D0E5F88
:100B40001F4F009749F02196F8016081718161156E
:100B5000710589F7C3E6D0E0CE01DF91CF911F91F7
:100B60000F91FF90EF90DF90CF900895DF93CF9398
:100B7000CDB7DEB72A970FB6F894DEBF0FBECDBF54
:100B8000DE011196E9E0F7E02AE001900D92215094
:100B9000E1F7BE016F5F7F4F43E050E00E948D059B
:100BA0008130910561F0823091051CF4892B51F060
:100BB00012C08230910549F0039769F409C021E021
:100BC00030E00BC020E030E008C022E030E005C09B
:100BD00023E030E002C02EEF3FEFC9012A960FB6A6
:100BE000F894DEBF0FBECDBFCF91DF9108950F9374
:100BF0001F93DF93CF93CDB7DEB72A970FB6F89444
:100C0000DEBF0FBECDBF8C01DE011196EBE2F7E037
:100C10008AE001900D928150E1F78091D607909182
:100C2000D707892BC1F481E090E09093D707809398
:100C3000D60787E492E060E070E00E942B0286E62F
:100C400092E060E070E00E942B0281E892E060E0B8
:100C500070E00E942B02C801BE016F5F7F4F42E02F
:100C600050E00E948D058130910561F08230910540
:100C70001CF4892B21F00FC004976CF41EC00E9455
:100C8000E4001BC085EA92E00E9420018AEB92E01A
:100C900060E070E010C0C8010E94200189EC92E081
:100CA0000E942001C80161E070E00E942B0284E8EC
:100CB00091E061E070E00E942B022A960FB6F89452
:100CC000DEBF0FBECDBFCF91DF911F910F91089571
:100CD0000F931F93DF93CF93CDB7DEB7A0970FB6D7
:100CE000F894DEBF0FBECDBF8C01DE011B96EEE88F
:100CF000F7E086E101900D928150E1F7C801BE0155
:100D0000655F7F4F42E050E00E948D058430910581
:100D1000C1F18530910584F48130910529F182304B
:100D200091051CF4892BE9F065C082309105F9F03A
:100D3000039709F05FC01EC08730910581F18830AC
:100D400091053CF48530910501F1069709F052C0F8
:100D500023C08830910509F43FC0099709F04AC0C3
:100D600046C082ED92E04FC00E94E4004EC084ED88
:100D700092E049C087ED92E00E9420010E9480022B
:100D800044C0C8010E940F0340C08BEE92E00E9455
:100D9000200180EA91E026C080E093E034C0809199
:100DA000D4079091D50701969093D5078093D407E7
:100DB0008E010F5F1F4FB8014AE050E00E945C0DAA
:100DC000C8010E9420018FE093E00E94200187E18A
:100DD00093E061E070E008C082E293E00E942001AD
:100DE00087E293E060E070E00E942B020EC08BE28D
:100DF00093E009C080E493E00E942001C8010E94B2
:100E0000200186E493E00E942001A0960FB6F8949A
:100E1000DEBF0FBECDBFCF91DF911F910F9108951F
:100E2000DF93CF93CDB7DEB72A970FB6F894DEBF26
:100E30000FBECDBFDE011196E6ECF7E02AE001908F
:100E40000D922150E1F7BE016F5F7F4F41E050E00E
:100E50000E948D058130910579F0823091051CF456
:100E6000892B39F01CC08230910589F00397B9F4C1
:100E700011C083E593E010C080E693E00E9420015A
:100E800087E693E060E070E00E942B0210C00E94B1
:100E9000E4000DC08BE693E00E94200108C08AE0C8
:100EA00090E0A0EDB7E01197F1F70197D1F72A96FE
:100EB0000FB6F894DEBF0FBECDBFCF91DF9108957E
:100EC000CF92DF92EF92FF920F931F93DF93CF9316
:100ED000CDB7DEB7CD55D0400FB6F894DEBF0FBE0C
:100EE000CDBF6C01DE011796E4EBF7E08EE00190D8
:100EF0000D928150E1F7C601BE01695F7F4F43E06B
:100F000050E00E948D0582309105C9F08330910533
:100F100034F4009771F0019709F001C10DC08430DD
:100F20009105F9F0843091058CF0059709F0F7C030
:100F300041C08BE793E0F4C00E94E400F3C08BE66D
:100F400093E00E94200185E893E0E4C08AE090E00D
:100F5000A0EDB7E01197F1F70197D1F786E993E09B
:100F6000D5C08BE993E00E94200180EB93E061E023
:100F700070E00E942B0282E390E0A0EDB7E01197B1
:100F8000F1F70197D1F78091C80087FF04C081E095
:100F900090E00E94A208C60163EB73E00E94450D39
:100FA000009709F4B5C086EB93E00E94200187E624
:100FB00093E0B0C08AE090E0A0EDB7E01197F1F7C0
:100FC0000197D1F735E1E32EF12CEC0EFD1E81E205
:100FD000D7011D928A95E9F7FE01319686E0DF017F
:100FE0001D928A95E9F7C601B701AF010E940B0572
:100FF0008E010A5C1F4F88E2F80111928A95E9F789
:101000008DE48EAB81E48FAB80E288AF19AEC8016E
:10101000B7010E943A0DC80164E871E00E943A0DE0
:101020008BEC93E00E942001C8010E942001C801BE
:1010300061E070E00E942B0202E310E0F801A0EDF5
:10104000B7E01197F1F70197D1F78091C80087FFBA
:1010500069C081E090E00E94A20880EB93E061E02B
:1010600070E00E942B02F801A0EDB7E01197F1F7B4
:101070000197D1F78091C80087FF05C081E090E01B
:101080000E94A2082CC080ED93E00E94200127C09E
:1010900080EB93E061E070E00E942B02F701A0ED8D
:1010A000B7E01197F1F70197D1F78091C80087FF5A
:1010B00010C081E090E00E94A2080E94E40081EE4E
:1010C00093E00E942001C8010E94200184E891E081
:1010D00002C082EF93E00E942001A89506C022E39F
:1010E000E22EF12C8E010F5F1F4FC60161E074E00C
:1010F0000E94450D009761F284E094E00E94200177
:10110000CE0101960E9420018DE094E00E94200112
:1011100080EA91E060E070E00E942B0203C0C6010B
:101120000E942001C35ADF4F0FB6F894DEBF0FBEF6
:10113000CDBFCF91DF911F910F91FF90EF90DF9086
:10114000CF9008950F931F938C018CED97E0B80119
:101150000E9456020130110529F48CED97E00E949F
:10116000100748C08091F0069091F1068E5F9F4F66
:1011700051F488E194E00E9420018FEF9FEF90935B
:10118000F1068093F0068091F0069091F1068F5F52
:101190009F4F41F48CED97E00E94B6059093F106C5
:1011A0008093F0068091F0069091F106892B21F44E
:1011B0008CED97E00E9460078091F0069091F10617
:1011C000019721F48CED97E00E9468068091F0066B
:1011D0009091F106029721F48CED97E00E94280986
:1011E0008091F0069091F106039721F48CED97E041
:1011F0000E94F7051F910F9108950F931F938C0183
:1012000061E070E00E942B020E94E4008CE294E016
:101210000E942001C8010E94200184E891E00E9400
:10122000200184E690E0A0EDB7E01197F1F7019777
:10123000D1F781E090E00E94A20888EE93E0A0ED53
:10124000B7E01197F1F70197D1F71F910F9108952A
:10125000AF92BF92CF92DF92EF92FF920F931F93C4
:10126000DF93CF93CDB7DEB7C356D0400FB6F89417
:10127000DEBF0FBECDBF7C01DE011196EFE5F7E0CA
:101280008AE101900D928150E1F78E01045C1F4FBD
:1012900088E2D8011D928A95E9F78DE48CAF81E44C
:1012A0008DAF80E28EAF1FAEC701BE016F5F7F4F73
:1012B00041E050E00E948D05873091056CF4833049
:1012C00091050CF0F5C08130910501F18230910556
:1012D00004F5892BC1F0E1C08930910509F4D7C02C
:1012E0008A30910544F48730910509F4C5C0089708
:1012F00009F0D3C0DDC08A30910509F4CBC00B974B
:1013000009F0CBC0D5C00E94E400D2C085EA92E0CB
:10131000CDC084E690E0A0EDB7E01197F1F701971A
:10132000D1F7C801BE01655E7F4F0E943A0DC8012A
:1013300064E871E00E943A0DC80161E070E00E942B
:101340002B0202E310E0F801A0EDB7E01197F1F7EE
:101350000197D1F78091C80087FF16C081E090E027
:101360000E94A20880EB93E061E070E00E942B02F3
:10137000F801A0EDB7E01197F1F70197D1F780914F
:10138000C80088234CF403C083E394E08FC081E05D
:1013900090E00E94A2084CC080ED93E00E942001E2
:1013A00047C088E494E061E070E00E942B02F50100
:1013B000A0EDB7E01197F1F70197D1F78091C80040
:1013C00087FF10C081E090E00E94A2080E94E40024
:1013D0008BE494E00E942001C7010E94200180E676
:1013E00094E002C082EF93E00E942001A89580EB78
:1013F00093E061E070E00E942B02F601A0EDB7E0FF
:101400001197F1F70197D1F78091C80087FF0AC0C3
:1014100081E090E00E94A208C8010E94200184E8B7
:1014200091E002C082EF93E00E942001A89509C0DC
:1014300054E6A52EB12C42E3C42ED12C8E01055EBC
:101440001F4FC70161E074E00E94450D009709F449
:10145000A8CF84E694E00E942001CE014B960E9422
:1014600020018DE094E00E94200180E794E060E09C
:1014700070E00E942B021CC0FE017B9681E2DF011E
:101480001D928A95E9F7CF010E94D60411C081E828
:1014900094E00CC086E994E009C08BEA94E00E94D5
:1014A0002001C7010E9420018EEA94E00E942001E1
:1014B000CD59DF4F0FB6F894DEBF0FBECDBFCF9131
:1014C000DF911F910F91FF90EF90DF90CF90BF9031
:1014D000AF9008950E94B104A895F89490914008A7
:1014E00092708091400889278093400878949923CE
:1014F00021F08AEE96E00E94650BF89490914008E6
:1015000094708091400889278093400878949923AB
:1015100021F08AEE96E00E94760BF89490914008B4
:101520009870809140088927809340087894992387
:1015300021F08AEE96E00E949F0BF894909140086B
:10154000907180914008892780934008789499236E
:1015500021F08AEE96E00E94D20B8091C00087FFB6
:1015600007C085B1847085B980E090E00E94A20830
:101570008091C80087FFB0CF85B1887085B981E0C0
:1015800090E00E94A208A8CF9F92AF92BF92CF9204
:10159000DF92EF92FF920F931F93CF93DF937C0123
:1015A000FC01C480D580BB24992452C0E92DF0E011
:1015B000E217F3070CF06BC08F01040F151F939413
:1015C000F801EE0FFF1FE00FF11F63E0EE0FFF1FAA
:1015D0006A95E1F7EC0DFD1D858181FDE7CFF701EF
:1015E00061816B0D80810E94D000F701A380AA94D5
:1015F000F601218130E02F5F3F4F808190E0890D1F
:10160000911D2817390711F48AE201C080E20E9477
:10161000EC00E801CC0FDD1FC00FD11F219683E045
:10162000CC0FDD1F8A95E1F7CC0DDD1D10E006C063
:101630008991882331F00E94EC001F5F1A15C0F3D6
:1016400006C080E20E94EC001F5F1A15D0F3B3942D
:10165000F7018281B816D8F4F6018081482F50E056
:101660008281282F30E0241B350BA0CFF701618148
:101670006B0D80810E94D00010E004C080E20E94C7
:10168000EC001F5FF70183811817C0F3B394F701D3
:101690008281B81658F3DF91CF911F910F91FF907F
:1016A000EF90DF90CF90BF90AF909F900895FC0196
:1016B000DB018481958114969C938E931397758397
:1016C0006483CF010E94C40A0895DC011496ED9151
:1016D000FC91159783819481009739F015969C931E
:1016E0008E931497CD010E94C40A0895CF93DF937F
:1016F000EC01AC81BD8111962C9111972223E1F070
:101700002150822F90E0FC01EE0FFF1FE80FF91F20
:1017100083E0EE0FFF1F8A95E1F7EA0FFB1F85813B
:1017200081FDECCF11962C9311978C91281708F41A
:101730002C93CE010E94C40ADF91CF910895CF93DC
:10174000DF93EC01AC81BD8111962C91119712961B
:101750009C9112972F5F291710F5422F50E0FA0144
:10176000EE0FFF1FE40FF51F63E0EE0FFF1F6A95FA
:10177000E1F7EA0FFB1F858181FDECCF11962C93D9
:1017800011973A818C9190E0830F911D481759076A
:101790001CF0231B2F5F2C93CE010E94C40ADF9103
:1017A000CF9108950F931F93CF93DF938C01FC018A
:1017B000C481D581898190E09C01220F331F280FBD
:1017C000391FD901F3E0AA0FBB1FFA95E1F7AC0F5F
:1017D000BD1F15968C91159780FF08C05B966D9183
:1017E0007C915C97C8010E94570B13C0C9010196F8
:1017F000E3E0880F991FEA95E1F7C80FD91F169605
:10180000ED91FC9117975B968D919C915C97BE0131
:101810000995C8010E94C40ADF91CF911F910F91D1
:101820000895629FD001739FF001829FE00DF11D2A
:10183000649FE00DF11D929FF00D839FF00D749F4A
:10184000F00D659FF00D9927729FB00DE11DF91FF6
:10185000639FB00DE11DF91FBD01CF011124089553
:1018600097FB092E07260AD077FD04D027D006D093
:1018700000201AF4709561957F4F0895F6F79095C2
:1018800081959F4F089597FB092E05260ED057FD91
:1018900004D028D00AD0001C38F4509540953095DB
:1018A00021953F4F4F4F5F4F0895F6F790958095E4
:1018B000709561957F4F8F4F9F4F0895AA1BBB1B5B
:1018C00051E107C0AA1FBB1FA617B70710F0A61B40
:1018D000B70B881F991F5A95A9F780959095BC0161
:1018E000CD010895A1E21A2EAA1BBB1BFD010DC05C
:1018F000AA1FBB1FEE1FFF1FA217B307E407F507C0
:1019000020F0A21BB30BE40BF50B661F771F881F9B
:10191000991F1A9469F760957095809590959B0131
:10192000AC01BD01CF010895A0E0B0E0EAE9FCE020
:101930000C94E60DEC01A880B980CA80DB80A1146C
:10194000B104C104D10441F484E2A82E89EDB82E7B
:101950008BE5C82E87E0D82EC601B5012DE133EF07
:1019600041E050E00E94430C27EA31E440E050E0BF
:101970000E94110C7B018C01C601B5012DE133EFF2
:1019800041E050E00E94430CCA01B9012CEE34EF53
:101990004FEF5FEF0E94110C6E0D7F1D801F911F96
:1019A00097FF04C0615070408040904868837983FD
:1019B0008A839B839B013F77C901CDB7DEB7EAE0FD
:1019C0000C94020E0E94940C089580ED97E00E9402
:1019D000940C0895A0E0B0E08093D0079093D107D5
:1019E000A093D207B093D3070895FC0188279927C5
:1019F000E89421912032E9F3293010F02E30C8F319
:101A00002B3241F02D3239F4689404C00E94C60D87
:101A1000820F911D219120532A30C0F31EF490951E
:101A200081959F4F08951F93FC0199278827BC013A
:101A3000E89411911032E9F3193010F01E30C8F318
:101A40001B3251F01D3249F4689406C00E94B10D5A
:101A5000610F711D811D911D119110531A30B0F34A
:101A60003EF490958095709561957F4F8F4F9F4F75
:101A70001F910895FB01DC010D900020E9F71197FB
:101A800001900D920020E1F70895FB01DC018D919A
:101A9000019080190110D9F3990B0895FB01DC0125
:101AA0004150504030F08D910190801919F4002080
:101AB000B9F7881B990B0895FB019F01E894423008
:101AC000C4F04532B4F44A3029F497FB1EF49095E3
:101AD00081959F4F642F77270E945E0C805D8A332B
:101AE0000CF0895D8193CB010097A1F716F45DE2BC
:101AF00051931082C9010C94CE0DFA01CF93FF933C
:101B0000EF93223044F1253234F5C22FE894CA30E5
:101B100049F497FB3EF490958095709561957F4FC1
:101B20008F4F9F4F2C2F332744275527FF93EF9339
:101B30000E94720CEF91FF91605D6A330CF0695D59
:101B40006193B901CA01605070408040904051F7E4
:101B500016F4CDE2C19310828F919F91CF910C9496
:101B6000CE0D592F482F372F262F660F771F881F2E
:101B7000991F660F771F881F991F620F731F841F9D
:101B8000951F660F771F881F991F08957AE0979F0A
:101B9000902D879F802D910D11240895DC01FC016B
:101BA000672F71917723E1F7329704C07C916D9391
:101BB00070836291AE17BF07C8F308952F923F92CA
:101BC0004F925F926F927F928F929F92AF92BF924D
:101BD000CF92DF92EF92FF920F931F93CF93DF93F9
:101BE000CDB7DEB7CA1BDB0B0FB6F894DEBF0FBE56
:101BF000CDBF09942A88398848885F846E847D84A3
:101C00008C849B84AA84B984C884DF80EE80FD80A4
:101C10000C811B81AA81B981CE0FD11D0FB6F8941A
:0E1C2000DEBF0FBECDBFED010895F894FFCFDB
:101C2E00202020202020202020302C20202020208A
:101C3E0020202020302C4B2C4B2C520D0A005365AB
:101C4E006C65637465643A20004D616E75656C6CED
:101C5E006572204D6F6475730A004175666E61681A
:101C6E006D65207374617274656E210A0044616E35
:101C7E006163682053656C6563740A002D3E2044D1
:101C8E00726568756E6720756D2034350A004D20BB
:101C9E0035353735300D00315F4D494E5F53504568
:101CAE0045443A000A00315F4D41585F5350454557
:101CBE00443A00315F4143435F53504545443A0037
:101CCE00300D0A00323030300000556E746572658A
:101CDE000A456E64706F736974696F6E0A4572722D
:101CEE00656963687421004F626572650A456E64AA
:101CFE00706F736974696F6E0A4572726569636895
:101D0E00742100536F6D657468696E672077656E18
:101D1E0074200A7465727269626C792077726F6EC4
:101D2E0067210A5265626F6F74696E67210047758D
:101D3E0074656E20546167210A004265726569748C
:101D4E00210A00300041636873653A200020285252
:101D5E006F746174696F6E290A002028486F656878
:101D6E0065292020200A0057696C6C6B6F6D6D65BC
:101D7E006E20696D205465726D696E616C204D6FB9
:101D8E006475730D0A006D6F65676C696368652015
:101D9E0042656665686C652073696E643A200D0A4B
:101DAE00002041202D204D6F746F72737461747515
:101DBE00730D0A204D202D204D6F766520537465CE
:101DCE0070730D0A00546573742062657374616ECE
:101DDE0064656E20202020200A00546573742062F2
:101DEE00657374616E64656E0020202020202020B3
:101DFE000A00210021540053746174757361626688
:101E0E007261676520202020200A00483A20202099
:101E1E0020202020202020202020202020200A00EA
:101E2E004D6F746F72207374617274656E0A005F09
:101E3E004D6F7665210A004D203136303030300D31
:101E4E000A00522F423F00520D0A00483120656DA4
:101E5E007066616E67656E202020202020200A00AB
:101E6E00555F423A200021454E442020202020205C
:101E7E00200A004572666F6C6772656963680A00B6
:101E8E004572726F720A00310D0A00546573742028
:101E9E0062657374616E64656E0A00526573657275
:101EAE0076650D0A00546573742062657374616EF5
:101EBE0064656E0D0A00496E697400537461747521
:101ECE0073616266726167653A20202020200A00E5
:101EDE00410A003023004665686C67657363686C61
:101EEE006167656E20202020200A00506F733A0033
:101EFE004B65696E65204265776567756E67210A69
:101F0E000047656865207A752057696E6B656C3A77
:101F1E0020004B65696E6520416E74776F72740A8E
:101F2E000031230057696E6B656C3A2000204572B4
:101F3E007265696368740A00556E62656B616E6ED8
:101F4E00746572204D6F746F72210A0053656E6452
:101F5E003A200042656665686C206E2E20626573BD
:101F6E007461657469670A00570A00506F7369746B
:101F7E00696F6E28416B742F476573293A200A00EA
:101F8E00202F2000506F736974696F6E3A200A001B
:101F9E000D0A3E200D0A3E200D0A3E200D0A3E205F
:101FAE000053706565642073657420202020202006
:101FBE00202020200A004563686F206F666620206F
:101FCE002020202020202020200A005A3A00202005
:101FDE00200A004D203132353030300A004D202D90
:101FEE003132353030300A004D2031303030300A49
:101FFE00004D202D31303030300A004D4120300A56
:10200E0000000005000000FD082B39300000000024
:10201E00000000000000000000000000B30400FDFE
:10202E00082D393000000000000000000000000004
:10203E0000000000BD0400FD082B31302E30303082
:10204E00205363687269747465000000C80400FD53
:10205E00082D31302E30303020536368726974741D
:10206E0065000000D10400FD0847656865207A759B
:10207E006D205572737072756E670000DB04324D01
:10208E00203530303030300A00324D202D35303092
:10209E003030300A00324D20313030303030300A9E
:1020AE0000324D202D313030303030300A00324D7C
:1020BE004120300A00000005000000FD082B3530DD
:1020CE00302E303030000000000000000000000014
:1020DE005E0500FD082D3530302E3030300000000A
:1020EE000000000000000000690500FD082B312EE5
:1020FE003030302E3030302053636872697474651E
:10210E00750500FD082D312E3030302E3030302048
:10211E005363687269747465810500FD08476568CC
:10212E0065207A756D205572737072756E6700003A
:10213E008E05440A00510A004E20310A003F0A0063
:10214E00000004000000FD084D6F746F727374611F
:10215E007475730000000000000000B00300FD085D
:10216E005365747A65205572737072756E670000D0
:10217E00000000120600FD08577269746520746F26
:10218E0020454550524F4D00000000150600FD0839
:10219E004E65776C696E652031000000000000000E
:1021AE00000000180600FD08506172612E20617556
:1021BE00736C6573656E00000000001D0600000361
:1021CE0000000100004265776567656E202D205284
:1021DE006F746174696F6E00E104010000426577EF
:1021EE006567656E202D20486F65686500000000EC
:1021FE0095050100004B6F6E6669677572696572B1
:10220E00656E0000000000002006000004130000B0
:10221E00FFFF40303100513A004543484F30002116
:10222E005465726D696E616C00F206F606F906FF72
:10223E0006000021434C53005465737400214D6118
:10224E006E75616C00215959595900130718071DF5
:10225E000725070000474F005741495400215858A1
:10226E00585800434F4D4558004D413100443131CF
:10227E003235004138005638005053455430001363
:10228E00071807350738073D07430749074D07531A
:10229E00075607F906590700005465737432004457
:1022AE003A3200483A0047004D3A0048310079076B
:1022BE0013071807F6067F07830786078807D202DB
:1022CE008B07000058585858585858004030520044
:1022DE0040304D00A40713071807F206AC07B007ED
:1022EE00000023004500C207C407130718070000AB
:0422FE0001000000DB
:00000001FF
