:100000000C943E000C945B000C945B000C945B0021
:100010000C945B000C945B000C945B000C94A202AB
:100020000C942E020C945B000C945B000C945B000F
:100030000C945B000C945B000C945B000C945B00D4
:100040000C945B000C945B000C9455010C945B00C9
:100050000C945B000C945B000C945B000C945B00B4
:100060000C945B000C945B000C945B000C945B00A4
:100070000C945B000C945B000C945B0011241FBE7D
:10008000CFEFD8E0DEBFCDBF17E0A0E0B1E0E6EFF4
:10009000FCE102C005900D92AE30B107D9F717E030
:1000A000AEE0B7E001C01D92AA31B107E1F70E94AE
:1000B000F0090C94790E0C940000282F662311F09F
:1000C000469A01C04698459887B18F6087B998B124
:1000D000907F822F82958F70892B88B9449A00C0B7
:1000E00044982F70292B28B9449A00C044989F60E7
:1000F00098B90895882311F0469A01C04698459A08
:1001000087B1807F87B9449A00C096B1449800C0F7
:10011000449A00C086B18F709295907F4498892B45
:10012000089580E00E947A0087FDFBCF82E090E096
:100130000197F1F780E00E947A0008951F93182F2D
:100140000E949100812F60E00E945D001F91089540
:100150001F93182F0E949100812F61E00E945D0083
:100160001F910895662311F4805809C0613011F47D
:10017000805405C0623011F48C5601C08C520E942C
:100180009E0008950E94910090E0089581E00E94F1
:100190009E00089582E00E949E0008951F93182FEC
:1001A0000E949100982F1A3099F4843110F480E461
:1001B0000BC08054843110F484E106C094519C3209
:1001C00010F080E001C084E580580E949E0018C0B5
:1001D000833111F480EC0BC0833511F484E907C03E
:1001E000873211F484ED03C0873621F480E860E0A3
:1001F0000E945D000E949100812F61E00E945D00DD
:100200001F910895CF93DF93EC0102C00E94CE00AE
:1002100089918823D9F7DF91CF910895CF93DF9308
:10022000EC0102C00E94CE00FE0121968491882339
:10023000C9F7DF91CF9108951F93182F87B18F6071
:1002400087B93E9A3D9A3C9A80E89EE30197F1F780
:10025000419A409A449A00C0449880E893E10197FB
:10026000F1F7449A00C0449880E490E0FC01319793
:10027000F1F7449A00C04498FC013197F1F7409897
:10028000449A00C044980197F1F788E20E949E00CA
:1002900088E00E949E000E94C60086E00E949E00A8
:1002A000812F0E949E001F9108951F920F920FB6FA
:1002B0000F9211242F938F939F9382EB86BD809191
:1002C000190720B120952827809116078223809551
:1002D00080931607909115079223982790931507FE
:1002E00082238923909119079827909319072091C9
:1002F0001807909119078923822B80931807809102
:100300001907877819F482E3809314078091140702
:10031000815080931407882359F484E18093140753
:1003200090911707809119078778892B8093170779
:100330009F918F912F910F900FBE0F901F90189546
:10034000F894909118078923909118079827909313
:10035000180778940895F89490911707892390913D
:10036000170798279093170778940895F894909119
:100370001907F8942091180790958923822390916A
:10038000180798279093180778940895982FF89451
:100390008091170798238091170789278093170763
:1003A0007894F894809118078923909118079827DA
:1003B000909318077894089541E050E0A8ECB0E0DD
:1003C00061E070E021C0FD013197F1F70197D9F7A5
:1003D00025B1CB01042E02C0880F991F0A94E2F7C1
:1003E0008095822385B925B141505040CB01042E20
:1003F00002C0880F991F0A94E2F7282B25B94E5F97
:100400005F4F4930510519F080E293E0DCCF089549
:1004100081B111B882B18FEF82B985E085BD83EFDC
:1004200086BDEEE6F0E08081816080837894089557
:1004300085B1982F990F907F8770982B903F08F483
:10044000986095B90895F894A895E0E6F0E0808169
:100450008861808389E68083789408951F920F9243
:100460000FB60F9211242F933F938F939F93AF93C7
:10047000BF93CF93DF93EF93FF9320E030E0E8EE5C
:10048000F3E091E0A0EDB7E01197F1F72197D1F7F4
:1004900085B1892785B92F5F3F4F2A30310591F704
:1004A000FF91EF91DF91CF91BF91AF919F918F918C
:1004B0003F912F910F900FBE0F901F9018951092A3
:1004C000C50023E32093C40096E09093C200E1ECC2
:1004D000F0E08081886080838081806180831092D9
:1004E000CD002093CC009093CA00E9ECF0E080812D
:1004F000886080838081806180830895982F672B36
:1005000039F48091C00085FFFCCF9093C600089518
:100510008091C80085FFFCCF9093CE0008950F9383
:100520001F93CF93DF93EC018B0104C0B8010E94AD
:100530007E02219688818823C9F7DF91CF911F9190
:100540000F9108951F920F920FB60F9211242F93BF
:100550003F934F935F936F937F938F939F93AF934B
:10056000BF93EF93FF9380E091E061E070E00E9421
:100570008F0285B191E0892785B9FF91EF91BF91F5
:10058000AF919F918F917F916F915F914F913F912B
:100590002F910F900FBE0F901F901895009739F470
:1005A0008091C00087FFFCCF8091C6000BC00197EF
:1005B00019F02FEF3FEF08C08091C80087FFFCCFF4
:1005C0008091CE00282F30E0C9010895CF92DF92AC
:1005D000EF92FF920F931F93CF93DF938C016B01E8
:1005E0007A01C0E0D0E0C7010E94CE028D3021F038
:1005F000F80181938F012196C436D10524F48D3002
:1006000011F08A3081F7F80110822196F601D1832A
:10061000C083DF91CF911F910F91FF90EF90DF90FA
:10062000CF90089520910E0730910F0787E2203177
:1006300038070CF047C083E0283E38071CF084E000
:1006400090E014C0243631051CF083E090E00EC029
:100650002A3031051CF082E090E008C021153105F8
:1006600019F480E090E002C081E090E02F5F3F4FFE
:1006700030930F0720930E078130910599F0823057
:1006800091051CF4892B39F01AC08230910569F06C
:100690000397A9F40DC084E091E00E94020185E176
:1006A00091E008C083E391E005C081E591E002C0DC
:1006B0008FE691E060E070E00E948F0208958DE87F
:1006C00091E0F8CF85E090E0D1CFCF92DF92EF922A
:1006D000FF920F931F93DF93CF93CDB7DEB7619750
:1006E0000FB6F894DEBF0FBECDBF6C0182E390E37E
:1006F000A0E3B0E08E839F83A887B9871B861A8604
:10070000DE011C96E8EDF1E085E001900D9281504C
:10071000E1F7198A82E390E3A0E3B0E089839A834A
:10072000AB83BC831D8284E0E82EF12CA0E0B0E016
:100730009E012A5F3F4FF601EE0DFF1D808186343A
:1007400041F0F901EA0FFB1F808311960894E11C28
:10075000F11CA630B10524F4882311F0863459F732
:100760008E010A5F1F4FA00FB11F1C928BEA91E010
:100770000E940201C8010E94020188EB91E00E94E0
:1007800002010894E11CF11CA0E0B0E09E01245F8E
:100790003F4FF601EE0DFF1D8081823541F0F901DA
:1007A000EA0FFB1F80830894E11CF11C1196A63010
:1007B000B10524F4882311F0823559F78E01045FC6
:1007C0001F4FA00FB11F1C928AEB91E00E94020103
:1007D000C8010E94020188EB91E00E940201C7015A
:1007E0000196A0E0B0E0AE014F5F5F4FF601E80F69
:1007F000F91F2081233531F0FA01EA0FFB1F208316
:1008000001961196A430B10524F4222311F023356A
:1008100069F78E010F5F1F4FA00FB11F1C9287EC6D
:1008200091E00E940201C8010E94020188EB91E060
:100830000E94020180910E0790910F0701969093FC
:100840000F0780930E0784ED91E060E070E00E9456
:100850008F0261960FB6F894DEBF0FBECDBFCF9169
:10086000DF911F910F91FF90EF90DF90CF9008954F
:100870008EED91E00E9402018FEE91E00E94020154
:1008800081E092E00E940201F8949091180798701C
:10089000809118078927809318077894992331F05D
:1008A0008DE192E061E070E00E948F0208950F9365
:1008B0001F938B010E94C60086E292E00E94020113
:1008C000C8010E9402018EEE92E0A0EDB7E0119700
:1008D000F1F70197D1F71F910F910895CF93DF930F
:1008E000EB01A0E0B0E0FC01EA0FFB1F22812C32FB
:1008F00029F0FE01EA0FFB1F20831196A431B105F8
:1009000024F4222311F02C3271F7AC0FBD1F1C927E
:10091000CE010E94770D9B01AC01E3E0660F771FCB
:10092000881F991FEA95D1F7620F731F841F951FC7
:10093000AE012AE030E00E94E10DDF91CF910895F1
:100940000F931F93CF93DF938C01EB0181E392E030
:100950000E94590D892B61F483E392E00E94020109
:1009600081E392E00E9402018BE392E00E94020187
:1009700081E392E00E94590D019761F483E392E0D4
:100980000E94020181E392E00E94020188E492E069
:100990000E94020185E592E00E940201CE010E94C0
:1009A0000201A0E0B0E0F801EA0FFB1F83818C3266
:1009B00029F0FE01EA0FFB1F80831196A431B105D7
:1009C00024F4882311F08C3271F7AC0FBD1F1C92F8
:1009D000CE010E94590DAA2797FDA095BA2FBC0100
:1009E000CD0127EC35E141E050E00E94750C20E09C
:1009F00034E040E050E00E94A70CCA01B901AE010A
:100A00002AE030E00E94E10DDF91CF911F910F911C
:100A10000895CF92DF92EF92FF920F931F93CF939F
:100A2000DF936C017A018B01CFEFDFEF08C0C601C5
:100A3000A7010E94B20D0E5F1F4F009749F021964B
:100A4000F801608171816115710589F7CFEFDFEFE2
:100A5000CE01DF91CF911F910F91FF90EF90DF902A
:100A6000CF900895DF93CF93CDB7DEB72A970FB617
:100A7000F894DEBF0FBECDBFDE011196EAE4F6E0CA
:100A80002AE001900D922150E1F7BE016F5F7F4F88
:100A900043E050E00E9409058130910561F0823009
:100AA00091051CF4892B51F012C08230910549F058
:100AB000039769F409C021E030E00BC020E030E08A
:100AC00008C022E030E005C023E030E002C02EEF95
:100AD0003FEFC9012A960FB6F894DEBF0FBECDBF17
:100AE000CF91DF9108950F931F93DF93CF93CDB7ED
:100AF000DEB72A970FB6F894DEBF0FBECDBF8C01CC
:100B0000DE011196E4E6F6E08AE001900D92815054
:100B1000E1F78091120790911307892BC1F481E0CE
:100B200090E090931307809312078CE592E060E0C9
:100B300070E00E948F028BE792E060E070E00E941C
:100B40008F0285E992E060E070E00E948F02C801A8
:100B5000BE016F5F7F4F42E050E00E940905813087
:100B6000910561F0823091051CF4892B21F011C0B0
:100B700004977CF430C00E94C6002DC089EB92E03F
:100B80000E9402018EEC92E060E070E00E948F0211
:100B900022C0C8010E9402018DED92E00E94020174
:100BA000C80161E070E00E948F0288EB91E061E093
:100BB00070E00E948F02C8010E94320590933406B3
:100BC000809333068E5F9F4F31F483E090E09093E3
:100BD0003406809333062A960FB6F894DEBF0FBE14
:100BE000CDBFCF91DF911F910F9108950F931F9368
:100BF000DF93CF93CDB7DEB7A0970FB6F894DEBFE3
:100C00000FBECDBF8C01DE011B96E7ECF6E086E15E
:100C100001900D928150E1F7C801BE01655F7F4FE1
:100C200042E050E00E94090584309105D1F1853001
:100C3000910584F48130910529F1823091051CF4ED
:100C4000892BE9F067C082309105F9F0039709F02C
:100C500061C020C08730910591F1883091053CF446
:100C60008530910511F1069709F054C025C08830F0
:100C7000910509F441C0099709F04CC048C086EEBF
:100C800092E005C00E94C60057C088EE92E00E9424
:100C9000020152C08BEE92E00E9402010E941203F8
:100CA0004BC0C8010E94650347C08FEF92E00E94CD
:100CB000020184ED91E026C084E193E0E8CF8091C9
:100CC00010079091110701969093110780931007D8
:100CD0008E010F5F1F4FB8014AE050E00E94C00D27
:100CE000C8010E94020183E293E00E9402018BE2AC
:100CF00093E061E070E008C086E393E00E940201A7
:100D00008BE393E060E070E00E948F0215C08FE3F8
:100D100093E0BDCF84E593E00E940201C8010E94E8
:100D200002018AE593E00E940201C8010E94320597
:100D30009093340680933306A0960FB6F894DEBFE6
:100D40000FBECDBFCF91DF911F910F9108950F93EB
:100D50001F93DF93CF93CDB7DEB72A970FB6F894E2
:100D6000DEBF0FBECDBF8C01DE011196EFEFF6E0C6
:100D70008AE001900D928150E1F7C801BE016F5FDA
:100D80007F4F41E050E00E9409058130910579F0E4
:100D9000823091051CF4892B39F01AC082309105FC
:100DA00089F00397A9F411C087E693E01AC084E79D
:100DB00093E00E9402018BE793E060E070E00E9404
:100DC0008F0211C00E94C6000EC08FE793E009C0D9
:100DD0008FE893E00E940201C8010E94020189E9A4
:100DE00093E00E9402012A960FB6F894DEBF0FBE70
:100DF000CDBFCF91DF911F910F910895CF92DF92D8
:100E0000EF92FF920F931F93DF93CF93CDB7DEB78F
:100E1000C755D0400FB6F894DEBF0FBECDBF6C01F2
:100E2000DE011196EDEEF6E08EE001900D9281501C
:100E3000E1F7C601BE016F5F7F4F43E050E00E94C3
:100E4000090582309105D1F08330910534F4009783
:100E500079F0019709F0EAC00EC084309105B9F02D
:100E6000843091050CF4DBC0059709F0DFC039C070
:100E70008CE993E0DDC00E94C600DCC08FE793E000
:100E80000E94020186EA93E061E070E0CCC087EB4B
:100E900093E00E9402018CEC93E061E070E00E941C
:100EA0008F0282E390E0A0EDB7E01197F1F7019790
:100EB000D1F78091C80087FF05C081E090E0B601BE
:100EC0000E942A08C6016FEC73E00E94A90D0097EA
:100ED00009F4A5C082ED93E00E94020187EE93E041
:100EE000A0C08AE090E0A0EDB7E01197F1F701977C
:100EF000D1F7FFE0EF2EF12CEC0EFD1E81E2F701A1
:100F000011928A95E9F7C601B7010E94A0048E01EB
:100F1000005D1F4F88E2F80111928A95E9F78DE490
:100F200088AB81E489AB80E28AAB1BAAC801B70118
:100F30000E949E0DC80168EB71E00E949E0D8CEE30
:100F400093E00E940201C8010E940201C80161E011
:100F500070E00E948F0202E310E0F801A0EDB7E01C
:100F60001197F1F70197D1F78091C80087FF62C010
:100F700081E090E0B6010E942A088CEC93E061E0E9
:100F800070E00E948F02F801A0EDB7E01197F1F731
:100F90000197D1F78091C80087FF06C081E090E0FB
:100FA000B6010E942A0826C081EF93E00E94020148
:100FB00021C08CEC93E061E070E00E948F02F801A8
:100FC000A0EDB7E01197F1F70197D1F78091C80034
:100FD00087FF0AC081E090E0B6010E942A080E94C3
:100FE000C60082E094E002C08BE094E00E9402011F
:100FF000A89502C002E310E0C6016AE174E00E9415
:10100000A90D0097B1F28DE194E00E940201CE019A
:101010000F960E94020189E294E00E94020184ED91
:1010200091E060E070E00E948F0204C084E394E0ED
:101030000E940201C95ADF4F0FB6F894DEBF0FBEFF
:10104000CDBFCF91DF911F910F91FF90EF90DF9077
:10105000CF9008950F931F93CF93DF938C01EB01F3
:10106000CB0160E070E0A8010E94E60201301105AA
:1010700021F4CE010E94A70647C0809133069091CB
:1010800034068E5F9F4F71F488E394E00E94020162
:1010900080E060E00E94B2008FEF9FEF90933406F3
:1010A0008093330680913306909134068F5F9F4F73
:1010B00039F4CE010E9432059093340680933306B2
:1010C0008091330690913406892B19F4CE010E9449
:1010D000FE068091330690913406019719F4CE01F3
:1010E0000E94F6058091330690913406029719F418
:1010F000CE010E94890880913306909134060397AF
:1011000019F4CE010E947305DF91CF911F910F91C9
:101110000895EF92FF920F931F93DF93CF93CDB774
:10112000DEB7C356D0400FB6F894DEBF0FBECDBFBA
:101130008C01DE011196E8E9F6E08AE101900D925A
:101140008150E1F78CE3E82EF12CEC0EFD1E88E2D5
:10115000D7011D928A95E9F78DE48CAF81E48DAFBC
:1011600080E28EAF1FAEC801BE016F5F7F4F41E0CE
:1011700050E00E940905873091056CF48330910599
:101180000CF0C1C081309105C1F082309105C4F4EA
:10119000892B81F0ADC08A30910524F408970CF0BA
:1011A000B2C093C08A30910509F49BC00B9709F037
:1011B0009FC0A9C00E94C600A6C089EB92E0A1C052
:1011C00084E690E0A0EDB7E01197F1F70197D1F731
:1011D000C701BE01655E7F4F0E949E0DC70168EB8F
:1011E00071E00E949E0DC70161E070E00E948F02D5
:1011F000B2E3EB2EF12CF701A0EDB7E01197F1F778
:101200000197D1F78091C80087FF17C081E090E077
:10121000B8010E942A088CEC93E061E070E00E9423
:101220008F02F701A0EDB7E01197F1F70197D1F721
:101230008091C800882354F403C08AE494E061C01C
:1012400081E090E0B8010E942A0826C081EF93E077
:101250000E94020121C08CEC93E061E070E00E94EA
:101260008F02F701A0EDB7E01197F1F70197D1F7E1
:101270008091C80087FF0AC081E090E0B8010E9419
:101280002A080E94C60082E094E002C08BE094E04D
:101290000E940201A89503C0A2E3EA2EF12CC80126
:1012A0006AE174E00E94A90D0097A9F28DE194E033
:1012B0000E940201CE014B960E94020189E294E055
:1012C0000E9402018FE594E00EC0FE017B9681E250
:1012D000DF011D928A95E9F7C801BF010E946E04E3
:1012E00012C080E794E060E070E00E948F020BC0C3
:1012F00087E794E00E940201C8010E9402018DED7F
:1013000092E00E940201CD59DF4F0FB6F894DEBF84
:101310000FBECDBFCF91DF911F910F91FF90EF9046
:1013200008950F931F93DF93CF93CDB7DEB7C456C5
:10133000D0400FB6F894DEBF0FBECDBF8C0161E088
:1013400070E00E948F020E94C6008AE794E00E942B
:101350000201C8010E94020188EB91E00E94020193
:1013600084E690E0A0EDB7E01197F1F70197D1F78F
:1013700081E090E0BE016F5F7F4F0E942A0888EEF7
:1013800093E0A0EDB7E01197F1F70197D1F7CC59B1
:10139000DF4F0FB6F894DEBF0FBECDBFCF91DF9108
:1013A0001F910F9108950E9423028FEF84B985B990
:1013B000E3E7F0E0808180618083E8E6F0E080810F
:1013C000886080830E94DC018EE00E941C010E94E4
:1013D000C6000E94CA000E9408020E945F0208958F
:1013E000EF92FF920F931F93DF93CF93CDB7DEB7AA
:1013F000C85CD0400FB6F894DEBF0FBECDBF0E94D0
:10140000D3097E010894E11CF11C8E010B591F4F7A
:10141000A895F894909118079170809118078927E2
:10142000809318077894992361F4F89490911707A2
:1014300091708091170789278093170778949923D3
:1014400011F00E941802F894909118079270809100
:1014500018078927809318077894992331F081E839
:1014600094E060E070E00E948F02F8949091180779
:10147000947080911807892780931807789499238E
:1014800011F00E94C600F89490911807987080910E
:1014900018078927809318077894992351F084E8D6
:1014A00094E00E9402018DE296E060EE75E00E94F9
:1014B000BB0BF894909118079071809118078927B9
:1014C000809318077894992321F08DE296E00E948A
:1014D000360CF8949091180790728091180789271C
:1014E000809318077894992361F4F89490911707E2
:1014F0009072809117078927809317077894992312
:1015000021F08DE296E00E94030CF8949091180768
:1015100090748091180789278093180778949923ED
:1015200061F4F894909117079074809117078927B8
:10153000809317077894992321F08DE296E00E941A
:10154000DA0BF89490911807907880911807892702
:10155000809318077894992321F08DE296E00E94F9
:10156000C90B8091C00087FF05C080E090E0B70103
:101570000E942A088091C80087FF4ACF81E090E04E
:10158000B8010E942A0844CFEF92FF920F931F9355
:10159000CF93DF93EC0186B590E00E944E0D90ED65
:1015A000E92E97E0F92E17C00E94490D61EF70E017
:1015B0000E94940C8C01065F1F4F88810E94CE0010
:1015C00080E090E004C0F7013197F1F701968017B1
:1015D0009107CCF321968881882331F7DF91CF9151
:1015E0001F910F91FF90EF90089588EE93E028EC03
:1015F00030E0F9013197F1F70197D9F783E994E0E9
:101600000E94C40A80ED97E028EC30E0F9013197A0
:10161000F1F70197D9F78FE994E00E94C40A88E8AE
:1016200093E128EC30E0F9013197F1F70197D9F710
:1016300081EB94E00E94C40A80E797E128EC30E057
:10164000F9013197F1F70197D9F70E94C600089583
:101650009F92AF92BF92CF92DF92EF92FF920F9341
:101660001F93CF93DF937C01FC01C480D580BB2402
:10167000992452C0E92DF0E0E217F3070CF06BC09B
:101680008F01040F151F9394F801EE0FFF1FE00F59
:10169000F11F63E0EE0FFF1F6A95E1F7EC0DFD1DF2
:1016A000858181FDE7CFF70161816B0D80810E940B
:1016B000B200F701A380AA94F601218130E02F5FE8
:1016C0003F4F808190E0890D911D2817390711F453
:1016D0008AE201C080E20E94CE00E801CC0FDD1F4B
:1016E000C00FD11F219683E0CC0FDD1F8A95E1F753
:1016F000CC0DDD1D10E006C08991882331F00E94D9
:10170000CE001F5F1A15C0F306C080E20E94CE0013
:101710001F5F1A15D0F3B394F7018281B816D8F47D
:10172000F6018081482F50E08281282F30E0241B71
:10173000350BA0CFF70161816B0D80810E94B20053
:1017400010E004C080E20E94CE001F5FF701838199
:101750001817C0F3B394F7018281B81658F3DF91DC
:10176000CF911F910F91FF90EF90DF90CF90BF909E
:10177000AF909F900895FC01DB01848195811496C0
:101780009C938E93139775836483CF010E94280BDB
:101790000895DC011496ED91FC9115978381948155
:1017A000009739F015969C938E931497CD010E9463
:1017B000280B0895CF93DF93EC01AC81BD81119686
:1017C0002C9111972223E1F02150822F90E0FC010F
:1017D000EE0FFF1FE80FF91F83E0EE0FFF1F8A9542
:1017E000E1F7EA0FFB1F858181FDECCF11962C9369
:1017F00011978C91281708F42C93CE010E94280B86
:10180000DF91CF910895CF93DF93EC01AC81BD813F
:1018100011962C91119712969C9112972F5F291770
:1018200010F5422F50E0FA01EE0FFF1FE40FF51FF5
:1018300063E0EE0FFF1F6A95E1F7EA0FFB1F85815A
:1018400081FDECCF11962C9311973A818C9190E009
:10185000830F911D481759071CF0231B2F5F2C93F2
:10186000CE010E94280BDF91CF9108950F931F9313
:10187000CF93DF938C01FC01C481D581898190E0F5
:101880009C01220F331F280F391FD901F3E0AA0F43
:10189000BB1FFA95E1F7AC0FBD1F15968C911597FC
:1018A00080FF08C05B966D917C915C97C8010E9497
:1018B000BB0B13C0C9010196E3E0880F991FEA959D
:1018C000E1F7C80FD91F1696ED91FC9117975B961B
:1018D0008D919C915C97BE010995C8010E94280BCF
:1018E000DF91CF911F910F910895629FD001739F57
:1018F000F001829FE00DF11D649FE00DF11D929FAC
:10190000F00D839FF00D749FF00D659FF00D9927EA
:10191000729FB00DE11DF91F639FB00DE11DF91F0E
:10192000BD01CF011124089597FB092E07260AD087
:1019300077FD04D027D006D000201AF47095619569
:101940007F4F0895F6F7909581959F4F089597FBE7
:10195000092E05260ED057FD04D028D00AD0001C31
:1019600038F450954095309521953F4F4F4F5F4F3C
:101970000895F6F790958095709561957F4F8F4FFC
:101980009F4F0895AA1BBB1B51E107C0AA1FBB1F95
:10199000A617B70710F0A61BB70B881F991F5A95FB
:1019A000A9F780959095BC01CD010895A1E21A2E6A
:1019B000AA1BBB1BFD010DC0AA1FBB1FEE1FFF1FF3
:1019C000A217B307E407F50720F0A21BB30BE40B43
:1019D000F50B661F771F881F991F1A9469F760958A
:1019E0007095809590959B01AC01BD01CF01089544
:1019F000A0E0B0E0EEEFFCE00C944A0EEC01A88011
:101A0000B980CA80DB80A114B104C104D10441F4BF
:101A100084E2A82E89EDB82E8BE5C82E87E0D82E5B
:101A2000C601B5012DE133EF41E050E00E94A70C63
:101A300027EA31E440E050E00E94750C7B018C0104
:101A4000C601B5012DE133EF41E050E00E94A70C43
:101A5000CA01B9012CEE34EF4FEF5FEF0E94750C15
:101A60006E0D7F1D801F911F97FF04C06150704055
:101A700080409048688379838A839B839B013F776A
:101A8000C901CDB7DEB7EAE00C94660E0E94F80CEF
:101A9000089589E097E00E94F80C0895A0E0B0E076
:101AA0008093090790930A07A0930B07B0930C0744
:101AB0000895FC0188279927E89421912032E9F3C1
:101AC000293010F02E30C8F32B3241F02D3239F48A
:101AD000689404C00E942A0E820F911D2191205308
:101AE0002A30C0F31EF4909581959F4F08951F935F
:101AF000FC0199278827BC01E89411911032E9F381
:101B0000193010F01E30C8F31B3251F01D3249F469
:101B1000689406C00E94150E610F711D811D911DF4
:101B2000119110531A30B0F33EF490958095709552
:101B300061957F4F8F4F9F4F1F910895FB01DC01EF
:101B40000D900020E9F7119701900D920020E1F728
:101B50000895FB01DC018D91019080190110D9F3EA
:101B6000990B0895FB01DC014150504030F08D91FC
:101B70000190801919F40020B9F7881B990B08957A
:101B8000FB019F01E8944230C4F04532B4F44A307E
:101B900029F497FB1EF4909581959F4F642F77272A
:101BA0000E94C20C805D8A330CF0895D8193CB0169
:101BB0000097A1F716F45DE251931082C9010C94CD
:101BC000320EFA01CF93FF93EF93223044F1253286
:101BD00034F5C22FE894CA3049F497FB3EF490954F
:101BE0008095709561957F4F8F4F9F4F2C2F332796
:101BF00044275527FF93EF930E94D60CEF91FF9156
:101C0000605D6A330CF0695D6193B901CA0160508F
:101C100070408040904051F716F4CDE2C19310829D
:101C20008F919F91CF910C94320E592F482F372FBF
:101C3000262F660F771F881F991F660F771F881F33
:101C4000991F620F731F841F951F660F771F881FD0
:101C5000991F08957AE0979F902D879F802D910D71
:101C600011240895DC01FC01672F71917723E1F7BE
:101C7000329704C07C916D9370836291AE17BF0759
:101C8000C8F308952F923F924F925F926F927F9286
:101C90008F929F92AF92BF92CF92DF92EF92FF927C
:101CA0000F931F93CF93DF93CDB7DEB7CA1BDB0B28
:101CB0000FB6F894DEBF0FBECDBF09942A883988CD
:101CC00048885F846E847D848C849B84AA84B984D4
:101CD000C884DF80EE80FD800C811B81AA81B981E0
:101CE000CE0FD11D0FB6F894DEBF0FBECDBFED01F4
:061CF0000895F894FFCFF7
:101CF60031480A005374617475732067656D656CAD
:101D06006465742100202020202020202020302CF3
:101D1600202020202020202020302C4B2C4B2C5201
:101D26000D0A00202020202020202020392C2020D1
:101D360020202020202020302C4B2C4B2C520D0A0A
:101D460000202020202020202039392C202020206F
:101D56002020202020302C4B2C4B2C520D0A00200A
:101D66002020202020203939392C20202020202016
:101D7600202020302C4B2C4B2C520D0A00203939B8
:101D8600393939393939392C202020202020202092
:101D960020302C4B2C4B2C520D0A00315F4D494EF6
:101DA6005F53504545443A000A00315F4D41585F44
:101DB60053504545443A00315F4143435F535045D4
:101DC60045443A00300D0A003230303000004D6193
:101DD6006E75656C6C6572204D6F6475730A004193
:101DE60075666E61686D65207374617274656E0ADE
:101DF600004E616368204175666E61686D652053AB
:101E06005733206472FC636B656E210A004D2031E6
:101E1600363030300D0053656C65637465643A2066
:101E260000300041636873653A20002028526F74C1
:101E36006174696F6E290A002028486F65686529F4
:101E46002020200A00546573743A200057696C6C90
:101E56006B6F6D6D656E20696D205465726D696E70
:101E6600616C204D6F6475730D0A006DF6676C69C1
:101E76006368652042656665686C652073696E6493
:101E86003A200D0A002041202D204D6F746F727389
:101E960074617475730D0A204D202D204D6F766583
:101EA6002053746570730D0A00546573742062655F
:101EB6007374616E64656E20202020200A005465CC
:101EC60073742062657374616E64656E00202020F1
:101ED600202020200A0021002154005374617475CB
:101EE600736162667261676520202020200A0048BF
:101EF6003A202020202020202020202020202020C2
:101F060020200A004D6F746F7220737461727465BD
:101F16006E0A005F4D6F7665210A004D203136301E
:101F26003030300D0A00522F423F00520D0A004851
:101F36003120656D7066616E67656E2020202020F9
:101F460020200A00555F423A200021454E442020B9
:101F560020202020200A004572666F6C6772656932
:101F660063680A004572726F720A00310D0A0054E6
:101F76006573742062657374616E64656E0A0041F0
:101F86006E74776F72743A2000210A005265736589
:101F96007276650D0A005465737420626573746108
:101FA6006E64656E0D0A00537461747573616266C2
:101FB600726167653A20202020200A00410A00301D
:101FC60023004665686C67657363686C6167656E58
:101FD60020202020200A002D310D0A00506F733A70
:101FE600004B65696E65204265776567756E67218A
:101FF6000A0072756E6E696E670A004B65696E65DA
:1020060020416E74776F72740A00312300506F732B
:102016006974696F6E3A200A0020457272656963B9
:1020260068740A00553A2000556E62656B616E6EE3
:10203600746572204D6F746F720042656665686CD8
:10204600206E2E206265737461657469670A000DDF
:102056000A3E200D0A3E200D0A3E200D0A3E2000B3
:102066004543484F300D005A3A0053656E643A2096
:1020760000300A0042657472657465204D656EFC19
:10208600210A0048656C6C6F204A6F65210A00487A
:102096006176652061206E69636520446179210A55
:1020A600004265206120486F6E6579204265652192
:1020B6000A004D203136303030300A004D202D31A7
:1020C60036303030300A004D2031303030300A00A2
:1020D6004D202D31303030300A004D4120300A007D
:1020E60000000500000091092B39300000000000B7
:1020F6000000000000000000000000C2040091097A
:102106002D39300000000000000000000000000033
:10211600000000CC040091092B31302E30303020E5
:102126005363687269747465000000D704009109EE
:102136002D31302E303030205363687269747465E7
:10214600000000E00400910947656865207A756D16
:10215600205572737072756E670000EA04440A00B7
:10216600510A004E20310A003F0A0000000200001A
:102176000091095365747A65205572737072756E95
:102186006700000000006D050091095772697465CB
:1021960020746F20454550524F4D000000007005D9
:1021A6000091094E65776C696E652031000000006C
:1021B6000000000000007305009109506172612E55
:1021C600206175736C6573656E000000000078050C
:1021D60000000300000100004265776567656E0038
:1021E6000000000000000000000000F004010000F4
:1021F6004B6F6E6669677572696572656E00000081
:102206000000007B050091094D6F746F7273746155
:102216007475730000000000000000CC0300000489
:10222600130000FFFF40303100513A004543484F4C
:102236003000214D616E75616C00350639063C062D
:102246004206000021434C53005465737400215923
:10225600595959005406590642065E060000474F72
:10226600005741495400215858585800434F4D458E
:1022760058004D4131004431313235004138005665
:102286003800505345543000540659066E06710600
:1022960076067C06820686068C068F063C06920625
:1022A6000000546573743200443A3200483A0047DD
:1022B600004D3A00483100B206540659063906B8B0
:1022C60006BC06BF06C106E602C4060000585858FA
:1022D60058585858004030520040304D00DD0654E2
:1022E6000659063506E506E906000023004500FB0B
:0E22F60006FD06540659060000010000000017
:00000001FF
