:100000000C943E000C945B000C945B000C945B0021
:100010000C945B000C945B000C945B000C948302CA
:100020000C942E020C945B000C945B000C945B000F
:100030000C945B000C945B000C945B000C945B00D4
:100040000C945B000C945B000C9455010C945B00C9
:100050000C945B000C945B000C945B000C945B00B4
:100060000C945B000C945B000C945B000C945B00A4
:100070000C945B000C945B000C945B0011241FBE7D
:10008000CFEFD8E0DEBFCDBF18E0A0E0B1E0E2ECFA
:10009000FAE102C005900D92A436B107D9F718E035
:1000A000A4E6B8E001C01D92A037B107E1F70E94B5
:1000B00044090C945F0D0C940000282F662311F066
:1000C000469A01C04698459887B18F6087B998B124
:1000D000907F822F82958F70892B88B9449A00C0B7
:1000E00044982F70292B28B9449A00C044989F60E7
:1000F00098B90895882311F0469A01C04698459A08
:1001000087B1807F87B9449A00C096B1449800C0F7
:10011000449A00C086B18F709295907F4498892B45
:10012000089580E00E947A0087FDFBCF82E090E096
:100130000197F1F780E00E947A0008951F93182F2D
:100140000E949100812F60E00E945D001F91089540
:100150001F93182F0E949100812F61E00E945D0083
:100160001F910895662311F4805809C0613011F47D
:10017000805405C0623011F48C5601C08C520E942C
:100180009E0008950E94910090E0089581E00E94F1
:100190009E00089582E00E949E0008951F93182FEC
:1001A0000E949100982F1A3099F4843110F480E461
:1001B0000BC08054843110F484E106C094519C3209
:1001C00010F080E001C084E580580E949E0018C0B5
:1001D000833111F480EC0BC0833511F484E907C03E
:1001E000873211F484ED03C0873621F480E860E0A3
:1001F0000E945D000E949100812F61E00E945D00DD
:100200001F910895CF93DF93EC0102C00E94CE00AE
:1002100089918823D9F7DF91CF910895CF93DF9308
:10022000EC0102C00E94CE00FE0121968491882339
:10023000C9F7DF91CF9108951F93182F87B18F6071
:1002400087B93E9A3D9A3C9A80E89EE30197F1F780
:10025000419A409A449A00C0449880E893E10197FB
:10026000F1F7449A00C0449880E490E0FC01319793
:10027000F1F7449A00C04498FC013197F1F7409897
:10028000449A00C044980197F1F788E20E949E00CA
:1002900088E00E949E000E94C60086E00E949E00A8
:1002A000812F0E949E001F9108951F920F920FB6FA
:1002B0000F9211242F938F939F9382EB86BD809191
:1002C0006F0820B12095282780916C0882238095A3
:1002D00080936C0890916B089223982790936B08F9
:1002E0008223892390916F08982790936F0820911B
:1002F0006E0890916F088923822B80936E088091FD
:100300006F08877819F482E380936A0880916A08FD
:10031000815080936A08882359F484E180936A08A5
:1003200090916D0880916F088778892B80936D0874
:100330009F918F912F910F900FBE0F901F90189546
:10034000F89490916E08892390916E089827909365
:100350006E0878940895F89490916D08892390918F
:100360006D08982790936D0878940895F89490916B
:100370006F08F89420916E089095892382239091BC
:100380006E08982790936E0878940895982FF894A3
:1003900080916D08982380916D08892780936D085E
:1003A0007894F89480916E08892390916E0898272C
:1003B00090936E087894089541E050E0A8ECB0E086
:1003C00061E070E021C0FD013197F1F70197D9F7A5
:1003D00025B1CB01042E02C0880F991F0A94E2F7C1
:1003E0008095822385B925B141505040CB01042E20
:1003F00002C0880F991F0A94E2F7282B25B94E5F97
:100400005F4F4930510519F080E293E0DCCF089549
:1004100081B111B882B18FEF82B985E085BD83EFDC
:1004200086BDEEE6F0E08081816080837894089557
:1004300085B1982F990F907F8770982B903F08F483
:10044000986095B90895F894A895E0E6F0E0808169
:100450008861808389E68083789408951F920F9243
:100460000FB60F9211248F939F9385B191E0892746
:1004700085B99F918F910F900FBE0F901F90189587
:100480001092C50023E32093C40096E09093C2002D
:10049000E1ECF0E0808188608083808180618083EE
:1004A0001092CD002093CC009093CA00E9ECF0E0CC
:1004B0008081886080838081806180830895982F07
:1004C000672B39F48091C00085FFFCCF9093C60064
:1004D00008958091C80085FFFCCF9093CE000895C9
:1004E0000F931F93CF93DF93EC018B0104C0B801EE
:1004F0000E945F02219688818823C9F7DF91CF91FE
:100500001F910F9108951F920F920FB60F92112411
:100510002F933F934F935F936F937F938F939F930B
:10052000AF93BF93EF93FF9380E091E061E070E0C1
:100530000E94700285B191E0892785B9FF91EF9102
:10054000BF91AF919F918F917F916F915F914F91EB
:100550003F912F910F900FBE0F901F90189500970D
:1005600039F48091C00087FFFCCF8091C6000BC09A
:10057000019719F02FEF3FEF08C08091C80087FF67
:10058000FCCF8091CE00282F30E0C9010895CF9292
:10059000DF92EF92FF920F931F93CF93DF938C0123
:1005A0006B017A01C0E0D0E0C7010E94AF028D303C
:1005B00021F0F80181938F012196C436D10524F4EE
:1005C0008D3011F08A3081F7F80110822196F60102
:1005D000D183C083DF91CF911F910F91FF90EF9056
:1005E000DF90CF900895209164083091650887E2EC
:1005F000203138070CF047C083E0283E38071CF054
:1006000084E090E014C0243631051CF083E090E0D3
:100610000EC02A3031051CF082E090E008C02115A0
:10062000310519F480E090E002C081E090E02F5F96
:100630003F4F30936508209364088130910599F00D
:10064000823091051CF4892B39F01AC08230910553
:1006500069F00397A9F40DC084E091E00E940201C3
:1006600085E191E008C083E391E005C081E591E078
:1006700002C08FE691E060E070E00E947002089591
:100680008DE891E0F8CF85E090E0D1CFCF92DF9276
:10069000EF92FF920F931F93DF93CF93CDB7DEB707
:1006A00061970FB6F894DEBF0FBECDBF6C0182E339
:1006B00090E3A0E3B0E08E839F83A887B9871B8671
:1006C0001A86DE011C96E8EDF1E085E001900D92BE
:1006D0008150E1F7198A82E390E3A0E3B0E08983D7
:1006E0009A83AB83BC831D8284E0E82EF12CA0E0CA
:1006F000B0E09E012A5F3F4FF601EE0DFF1D8081A5
:10070000863441F0F901EA0FFB1F808311960894AB
:10071000E11CF11CA630B10524F4882311F08634C5
:1007200059F78E010A5F1F4FA00FB11F1C928BEA71
:1007300091E00E940201C8010E94020188EB91E051
:100740000E9402010894E11CF11CA0E0B0E09E01AF
:10075000245F3F4FF601EE0DFF1D8081823541F091
:10076000F901EA0FFB1F80830894E11CF11C11962C
:10077000A630B10524F4882311F0823559F78E0193
:10078000045F1F4FA00FB11F1C928AEB91E00E94E3
:100790000201C8010E94020188EB91E00E9402015F
:1007A000C7010196A0E0B0E0AE014F5F5F4FF601D8
:1007B000E80FF91F2081233531F0FA01EA0FFB1F02
:1007C000208301961196A430B10524F4222311F060
:1007D000233569F78E010F5F1F4FA00FB11F1C92C9
:1007E00087EC91E00E940201C8010E94020188EB9F
:1007F00091E00E9402018091640890916508019641
:10080000909365088093640884ED91E060E070E067
:100810000E94700261960FB6F894DEBF0FBECDBF86
:10082000CF91DF911F910F91FF90EF90DF90CF90CC
:100830000895CF93DF93EB01A0E0B0E0FC01EA0F55
:10084000FB1F22812C3229F0FE01EA0FFB1F2083BF
:100850001196A431B10524F4222311F02C3271F742
:10086000AC0FBD1F1C92CE010E945D0C9B01AC0120
:10087000E3E0660F771F881F991FEA95D1F7620F93
:10088000731F841F951FAE012AE030E00E94C70C41
:10089000DF91CF9108950F931F93CF93DF938C0136
:1008A000EB018EED91E00E943F0C892B61F480EE0C
:1008B00091E00E9402018EED91E00E94020188EE1B
:1008C00091E00E9402018EED91E00E943F0C0197A1
:1008D00061F480EE91E00E9402018EED91E00E94B1
:1008E000020185EF91E00E94020182E092E00E9405
:1008F0000201CE010E940201A0E0B0E0F801EA0F7F
:10090000FB1F83818C3229F0FE01EA0FFB1F8083DD
:100910001196A431B10524F4882311F08C3271F7BB
:10092000AC0FBD1F1C92CE010E943F0CAA2797FD61
:10093000A095BA2FBC01CD0127EC35E141E050E094
:100940000E945B0B20E034E040E050E00E948D0B01
:10095000CA01B901AE012AE030E00E94C70CDF9164
:10096000CF911F910F910895CF92DF92EF92FF9256
:100970000F931F93CF93DF936C017A018B01CFEF1D
:10098000DFEF08C0C601A7010E94980C0E5F1F4F41
:10099000009749F02196F801608171816115710518
:1009A00089F7C3E6D0E0CE01DF91CF911F910F917F
:1009B000FF90EF90DF90CF900895DF93CF93CDB766
:1009C000DEB72A970FB6F894DEBF0FBECDBFDE01AB
:1009D0001196E8E9F7E02AE001900D922150E1F745
:1009E000BE016F5F7F4F43E050E00E94B40481304E
:1009F000910561F0823091051CF4892B51F012C0F1
:100A00008230910549F0039769F409C021E030E094
:100A10000BC020E030E008C022E030E005C023E059
:100A200030E002C02EEF3FEFC9012A960FB6F894CE
:100A3000DEBF0FBECDBFCF91DF9108950F931F93FF
:100A4000DF93CF93CDB7DEB72A970FB6F894DEBF0A
:100A50000FBECDBF8C01DE011196EAEBF7E08AE014
:100A600001900D928150E1F780916808909169089A
:100A7000892BC1F481E090E0909369088093680825
:100A800089E092E060E070E00E94700288E292E00B
:100A900060E070E00E94700282E492E060E070E04A
:100AA0000E947002C801BE016F5F7F4F42E050E0BC
:100AB0000E94B4048130910561F0823091051CF4EC
:100AC000892B21F00FC004976CF41EC00E94C60051
:100AD0001BC086E692E00E9402018BE792E060E094
:100AE00070E010C0C8010E9402018AE892E00E94F2
:100AF0000201C80161E070E00E94700288EB91E0A1
:100B000061E070E00E9470022A960FB6F894DEBF92
:100B10000FBECDBFCF91DF911F910F9108950F931D
:100B20001F93DF93CF93CDB7DEB7A0970FB6F8949E
:100B3000DEBF0FBECDBF8C01DE011B96EDE1F8E0FC
:100B400086E101900D928150E1F7C801BE01655F19
:100B50007F4F42E050E00E94B40484309105C1F11F
:100B60008530910584F48130910529F18230910519
:100B70001CF4892BE9F065C082309105F9F00397E8
:100B800009F05FC01EC08730910581F18830910562
:100B90003CF48530910501F1069709F052C023C05D
:100BA0008830910509F43FC0099709F04AC046C052
:100BB00083E992E04FC00E94C6004EC085E992E0F2
:100BC00049C088E992E00E9402010E94F30244C0F9
:100BD000C8010E94460340C08CEA92E00E940201D4
:100BE00084ED91E026C081EC92E034C080916608EB
:100BF00090916708019690936708809366088E012C
:100C00000F5F1F4FB8014AE050E00E94A60CC801D8
:100C10000E94020180ED92E00E94020188ED92E0C4
:100C200061E070E008C083EE92E00E94020188EE6D
:100C300092E060E070E00E9470020EC08CEE92E0E4
:100C400009C081E093E00E940201C8010E940201F4
:100C500087E093E00E940201A0960FB6F894DEBFF1
:100C60000FBECDBFCF91DF911F910F9108950F93CC
:100C70001F93DF93CF93CDB7DEB72A970FB6F894C3
:100C8000DEBF0FBECDBF8C01DE011196E5E5F8E0B9
:100C90008AE001900D928150E1F7C801BE016F5FBB
:100CA0007F4F41E050E00E94B4048130910579F01B
:100CB000823091051CF4892B39F01AC082309105DD
:100CC00089F00397A9F411C084E193E01AC081E28E
:100CD00093E00E94020188E293E060E070E00E94ED
:100CE000700211C00E94C6000EC08CE293E009C0E1
:100CF0008CE393E00E940201C8010E94020186E495
:100D000093E00E9402012A960FB6F894DEBF0FBE50
:100D1000CDBFCF91DF911F910F910895CF92DF92B8
:100D2000EF92FF920F931F93DF93CF93CDB7DEB770
:100D3000C755D0400FB6F894DEBF0FBECDBF6C01D3
:100D4000DE011196E3E4F8E08EE001900D9281500F
:100D5000E1F7C601BE016F5F7F4F43E050E00E94A4
:100D6000B40482309105C9F08330910534F40097C2
:100D700071F0019709F0EEC00DC084309105D9F0F3
:100D8000843091058CF0059709F0E4C03EC089E4F9
:100D900093E0E5C00E94C600E4C08CE293E00E94AC
:100DA000020183E593E0D1C084E694E00E94020151
:100DB0008FE994E0CAC084E693E00E94020189E7CB
:100DC00093E061E070E00E94700282E390E0A0EDA9
:100DD000B7E01197F1F70197D1F78091C80087FF2D
:100DE00005C081E090E0B6010E94C107C6016CE732
:100DF00073E00E948F0C009709F4A5C08FE793E081
:100E00000E94020184E993E0A0C08AE090E0A0ED96
:100E1000B7E01197F1F70197D1F7FFE0EF2EF12C32
:100E2000EC0EFD1E81E2F70111928A95E9F7C601E9
:100E3000B7010E944B048E01005D1F4F88E2F8014C
:100E400011928A95E9F78DE488AB81E489AB80E261
:100E50008AAB1BAAC801B7010E94840CC80168EBC9
:100E600071E00E94840C89E993E00E940201C801AC
:100E70000E940201C80161E070E00E94700202E37A
:100E800010E0F801A0EDB7E01197F1F70197D1F765
:100E90008091C80087FF65C081E090E0B6010E94A4
:100EA000C10789E793E061E070E00E947002F801F9
:100EB000A0EDB7E01197F1F70197D1F78091C80045
:100EC00087FF06C081E090E0B6010E94C10726C0FE
:100ED0008EE993E00E94020121C089E793E061E07E
:100EE00070E00E947002F801A0EDB7E01197F1F7F1
:100EF0000197D1F78091C80087FF0AC081E090E098
:100F0000B6010E94C1070E94C6008FEA93E002C0AA
:100F100088EB93E00E940201A89502C002E310E072
:100F2000C60167EC73E00E948F0C0097B1F28AEC67
:100F300093E00E940201CE010F960E94020186ED0D
:100F400093E00E94020184ED91E060E070E00E9475
:100F5000700207C081EE93E00E940201C6010E9468
:100F60000201C95ADF4F0FB6F894DEBF0FBECDBFE6
:100F7000CF91DF911F910F91FF90EF90DF90CF9075
:100F800008950F931F93CF93DF938C01EB01CB0157
:100F900060E070E0A8010E94C7020130110521F451
:100FA000CE010E94370646C080917F07909180074E
:100FB0008E5F9F4F69F48CEE93E00E940201CE0198
:100FC0000E9402018FEF9FEF9093800780937F072D
:100FD00080917F07909180078F5F9F4F39F4CE01FA
:100FE0000E94DD049093800780937F0780917F07A4
:100FF00090918007892B19F4CE010E948E06809172
:101000007F0790918007019719F4CE010E948F0508
:1010100080917F0790918007029719F4CE010E947A
:101020001F0880917F0790918007039719F4CE01E4
:101030000E941E05DF91CF911F910F910895EF92AD
:10104000FF920F931F93DF93CF93CDB7DEB7C356B5
:10105000D0400FB6F894DEBF0FBECDBF8C01DE01CD
:101060001196EEEEF7E08AE101900D928150E1F7E2
:101070008CE3E82EF12CEC0EFD1E88E2D7011D92C8
:101080008A95E9F78DE48CAF81E48DAF80E28EAF75
:101090001FAEC801BE016F5F7F4F41E050E00E946C
:1010A000B404873091056CF4833091050CF0C1C015
:1010B00081309105C1F082309105C4F4892B81F013
:1010C000ADC08A30910524F408970CF0B2C093C0EB
:1010D0008A30910509F49BC00B9709F09FC0A9C005
:1010E0000E94C600A6C086E692E0A1C084E690E019
:1010F000A0EDB7E01197F1F70197D1F7C701BE0155
:10110000655E7F4F0E94840CC70168EB71E00E940E
:10111000840CC70161E070E00E947002B2E3EB2E24
:10112000F12CF701A0EDB7E01197F1F70197D1F796
:101130008091C80087FF17C081E090E0B8010E944D
:10114000C10789E793E061E070E00E947002F70157
:10115000A0EDB7E01197F1F70197D1F78091C800A2
:10116000882354F403C080E094E061C081E090E003
:10117000B8010E94C10726C08EE993E00E940201D7
:1011800021C089E793E061E070E00E947002F701FE
:10119000A0EDB7E01197F1F70197D1F78091C80062
:1011A00087FF0AC081E090E0B8010E94C1070E9459
:1011B000C6008FEA93E002C088EB93E00E94020130
:1011C000A89503C0A2E3EA2EF12CC80167EC73E0F6
:1011D0000E948F0C0097A9F28AEC93E00E94020112
:1011E000CE014B960E94020186ED93E00E9402011F
:1011F00085E194E00EC0FE017B9681E2DF011D9245
:101200008A95E9F7C801BF010E94190412C086E25D
:1012100094E060E070E00E9470020BC08DE294E008
:101220000E940201C8010E9402018AE892E00E9425
:101230000201CD59DF4F0FB6F894DEBF0FBECDBF10
:10124000CF91DF911F910F91FF90EF9008950E9431
:1012500023028FEF84B985B9E3E7F0E080818061F4
:101260008083E8E6F0E08081886080830E94DC0172
:101270008EE00E941C010E94C6000E94CA000E94CB
:1012800008020E9440020895EF92FF920F931F936D
:10129000DF93CF93CDB7DEB7C85CD0400FB6F894DC
:1012A000DEBF0FBECDBF0E9427097E010894E11C5E
:1012B000F11C8E010B591F4FA895F89490916E0860
:1012C000917080916E08892780936E087894992395
:1012D00061F4F89490916D08917080916D08892760
:1012E00080936D087894992311F00E941802F89465
:1012F00090916E08927080916E08892780936E0895
:101300007894992331F080E394E060E070E00E94EB
:101310007002F89490916E08947080916E088927FD
:1013200080936E087894992311F00E94C6008091F2
:10133000C00087FF05C080E090E0B7010E94C107B0
:101340008091C80087FFB8CF81E090E0B8010E948B
:10135000C107B2CFEF92FF920F931F93CF93DF930A
:10136000EC0186B590E00E94340C90EDE92E97E0F8
:10137000F92E17C00E942F0C61EF70E00E947A0BCB
:101380008C01065F1F4F88810E94CE0080E090E0B4
:1013900004C0F7013197F1F7019680179107CCF35C
:1013A00021968881882331F7DF91CF911F910F918A
:1013B000FF90EF90089588EE93E028EC30E0F9017B
:1013C0003197F1F70197D9F783E394E00E94AA09D6
:1013D00080ED97E028EC30E0F9013197F1F70197C3
:1013E000D9F78FE394E00E94AA0988E893E128ECFA
:1013F00030E0F9013197F1F70197D9F781E594E0F1
:101400000E94AA0980E797E128EC30E0F9013197C2
:10141000F1F70197D9F70E94C60008959F92AF9205
:10142000BF92CF92DF92EF92FF920F931F93CF93D1
:10143000DF937C01FC01C480D580BB24992452C079
:10144000E92DF0E0E217F3070CF06BC08F01040FF9
:10145000151F9394F801EE0FFF1FE00FF11F63E0DB
:10146000EE0FFF1F6A95E1F7EC0DFD1D858181FDF3
:10147000E7CFF70161816B0D80810E94B200F70117
:10148000A380AA94F601218130E02F5F3F4F808135
:1014900090E0890D911D2817390711F48AE201C0E7
:1014A00080E20E94CE00E801CC0FDD1FC00FD11FEB
:1014B000219683E0CC0FDD1F8A95E1F7CC0DDD1D71
:1014C00010E006C08991882331F00E94CE001F5F92
:1014D0001A15C0F306C080E20E94CE001F5F1A15E5
:1014E000D0F3B394F7018281B816D8F4F601808165
:1014F000482F50E08281282F30E0241B350BA0CFED
:10150000F70161816B0D80810E94B20010E004C080
:1015100080E20E94CE001F5FF70183811817C0F39D
:10152000B394F7018281B81658F3DF91CF911F91E0
:101530000F91FF90EF90DF90CF90BF90AF909F9072
:101540000895FC01DB018481958114969C938E9310
:10155000139775836483CF010E940E0A0895DC01FE
:101560001496ED91FC91159783819481009739F041
:1015700015969C938E931497CD010E940E0A0895A0
:10158000CF93DF93EC01AC81BD8111962C91119723
:101590002223E1F02150822F90E0FC01EE0FFF1F8B
:1015A000E80FF91F83E0EE0FFF1F8A95E1F7EA0FBE
:1015B000FB1F858181FDECCF11962C9311978C91A7
:1015C000281708F42C93CE010E940E0ADF91CF91C8
:1015D0000895CF93DF93EC01AC81BD8111962C91DE
:1015E000119712969C9112972F5F291710F5422F91
:1015F00050E0FA01EE0FFF1FE40FF51F63E0EE0F5E
:10160000FF1F6A95E1F7EA0FFB1F858181FDECCF93
:1016100011962C9311973A818C9190E0830F911D34
:10162000481759071CF0231B2F5F2C93CE010E94F3
:101630000E0ADF91CF9108950F931F93CF93DF93FD
:101640008C01FC01C481D581898190E09C01220F2D
:10165000331F280F391FD901F3E0AA0FBB1FFA95DA
:10166000E1F7AC0FBD1F15968C91159780FF08C050
:101670005B966D917C915C97C8010E94A10A13C092
:10168000C9010196E3E0880F991FEA95E1F7C80FB9
:10169000D91F1696ED91FC9117975B968D919C91B1
:1016A0005C97BE010995C8010E940E0ADF91CF9197
:1016B0001F910F910895629FD001739FF001829F47
:1016C000E00DF11D649FE00DF11D929FF00D839FD1
:1016D000F00D749FF00D659FF00D9927729FB00D6E
:1016E000E11DF91F639FB00DE11DF91FBD01CF0181
:1016F0001124089597FB092E07260AD077FD04D000
:1017000027D006D000201AF4709561957F4F089578
:10171000F6F7909581959F4F089597FB092E052622
:101720000ED057FD04D028D00AD0001C38F45095B4
:101730004095309521953F4F4F4F5F4F0895F6F7F5
:1017400090958095709561957F4F8F4F9F4F08952D
:10175000AA1BBB1B51E107C0AA1FBB1FA617B707D7
:1017600010F0A61BB70B881F991F5A95A9F78095F3
:101770009095BC01CD010895A1E21A2EAA1BBB1BB6
:10178000FD010DC0AA1FBB1FEE1FFF1FA217B3074D
:10179000E407F50720F0A21BB30BE40BF50B661F63
:1017A000771F881F991F1A9469F760957095809527
:1017B00090959B01AC01BD01CF010895A0E0B0E080
:1017C000E4EEFBE00C94300DEC01A880B980CA80F7
:1017D000DB80A114B104C104D10441F484E2A82E39
:1017E00089EDB82E8BE5C82E87E0D82EC601B5014D
:1017F0002DE133EF41E050E00E948D0B27EA31E408
:1018000040E050E00E945B0B7B018C01C601B501FA
:101810002DE133EF41E050E00E948D0BCA01B90188
:101820002CEE34EF4FEF5FEF0E945B0B6E0D7F1DD0
:10183000801F911F97FF04C0615070408040904806
:10184000688379838A839B839B013F77C901CDB7E6
:10185000DEB7EAE00C944C0D0E94DE0B08958FE594
:1018600098E00E94DE0B0895A0E0B0E080935F084E
:1018700090936008A0936108B09362080895FC01FA
:1018800088279927E89421912032E9F3293010F034
:101890002E30C8F32B3241F02D3239F4689404C055
:1018A0000E94100D820F911D219120532A30C0F308
:1018B0001EF4909581959F4F08951F93FC019927E1
:1018C0008827BC01E89411911032E9F3193010F027
:1018D0001E30C8F31B3251F01D3249F4689406C023
:1018E0000E94FB0C610F711D811D911D1191105300
:1018F0001A30B0F33EF490958095709561957F4FC6
:101900008F4F9F4F1F910895FB01DC010D90002028
:10191000E9F7119701900D920020E1F70895FB017E
:10192000DC018D91019080190110D9F3990B089574
:10193000FB01DC014150504030F08D910190801945
:1019400019F40020B9F7881B990B0895FB019F013A
:10195000E8944230C4F04532B4F44A3029F497FB9D
:101960001EF4909581959F4F642F77270E94A80BB6
:10197000805D8A330CF0895D8193CB010097A1F7DC
:1019800016F45DE251931082C9010C94180DFA010E
:10199000CF93FF93EF93223044F1253234F5C22FD9
:1019A000E894CA3049F497FB3EF490958095709581
:1019B00061957F4F8F4F9F4F2C2F332744275527FB
:1019C000FF93EF930E94BC0BEF91FF91605D6A3330
:1019D0000CF0695D6193B901CA01605070408040AC
:1019E000904051F716F4CDE2C19310828F919F91F0
:1019F000CF910C94180D592F482F372F262F660F93
:101A0000771F881F991F660F771F881F991F620F06
:101A1000731F841F951F660F771F881F991F0895D6
:101A20007AE0979F902D879F802D910D1124089526
:101A3000DC01FC01672F71917723E1F7329704C035
:101A40007C916D9370836291AE17BF07C8F30895C0
:101A50002F923F924F925F926F927F928F929F92BE
:101A6000AF92BF92CF92DF92EF92FF920F931F93AC
:101A7000CF93DF93CDB7DEB7CA1BDB0B0FB6F8945D
:101A8000DEBF0FBECDBF09942A88398848885F849D
:101A90006E847D848C849B84AA84B984C884DF800E
:101AA000EE80FD800C811B81AA81B981CE0FD11DF2
:101AB0000FB6F894DEBF0FBECDBFED010895F894C8
:021AC000FFCF56
:101AC20031480A005374617475732067656D656CE3
:101AD2006465742100202020202020202020302C2A
:101AE200202020202020202020302C4B2C4B2C5238
:101AF2000D0A00202020202020202020392C202008
:101B020020202020202020302C4B2C4B2C520D0A40
:101B120000202020202020202039392C20202020A5
:101B22002020202020302C4B2C4B2C520D0A002040
:101B32002020202020203939392C2020202020204C
:101B4200202020302C4B2C4B2C520D0A00203939EE
:101B5200393939393939392C2020202020202020C8
:101B620020302C4B2C4B2C520D0A00315F4D494E2C
:101B72005F53504545443A000A00315F4D41585F7A
:101B820053504545443A00315F4143435F5350450A
:101B920045443A00300D0A00323030300000300047
:101BA20041636873653A20002028526F746174693A
:101BB2006F6E290A002028486F6568652920202059
:101BC2000A00546573743A200057696C6C6B6F6D30
:101BD2006D656E20696D205465726D696E616C2051
:101BE2004D6F6475730D0A006DF6676C6963686505
:101BF2002042656665686C652073696E643A200DE3
:101C02000A002041202D204D6F746F72737461742D
:101C120075730D0A204D202D204D6F76652053746B
:101C22006570730D0A005465737420626573746184
:101C32006E64656E20202020200A00546573742093
:101C420062657374616E64656E002020202020201E
:101C5200200A00210021540053746174757361627B
:101C6200667261676520202020200A00483A202001
:101C72002020202020202020202020202020200A78
:101C8200004D6F746F72207374617274656E0A0016
:101C92005F4D6F7665210A004D203136303030308D
:101CA2000D0A00522F423F00520D0A0048312065B2
:101CB2006D7066616E67656E202020202020200AEC
:101CC20000555F423A200021454E4420202020202A
:101CD20020200A004572666F6C6772656963680A44
:101CE200004572726F720A00310D0A0054657374F6
:101CF2002062657374616E64656E0A00416E74776A
:101D02006F72743A2000210A00526573657276651B
:101D12000D0A00546573742062657374616E6465A4
:101D22006E0D0A0053746174757361626672616745
:101D3200653A20202020200A00410A003023004674
:101D420065686C67657363686C6167656E202020E7
:101D520020200A002D310D0A00506F733A004B65A6
:101D6200696E65204265776567756E67210A007244
:101D7200756E6E696E670A004B65696E6520416E0D
:101D820074776F72740A00312300506F736974693B
:101D92006F6E3A200A002045727265696368740AA0
:101DA200004953454C3A202020200A00556E6265B6
:101DB2006B616E6E746572204D6F746F72210A00D2
:101DC20042656665686C206E2E206265737461657B
:101DD2007469670A000D0A3E200D0A3E200D0A3E74
:101DE200200D0A3E20004543484F300D005A3A006C
:101DF200300A0048656C6C6F204A6F65210A004802
:101E02006176652061206E69636520446179210AEB
:101E1200004265206120486F6E6579204265652128
:101E22000A000407496E6974000000000000000007
:101E320000000000000000403031000000000000FF
:101E42000000000000000000000000000000000090
:101E52000000000000000000000000000000003050
:101E62000D0A000000000000000000000000000059
:101E72000000000000000000000000000000000060
:101E820000000000000000486F6D650000000000C7
:101E9200000000000000000000004030310000009F
:101EA2000000000000000000000000000000000030
:101EB2000000000000000000000000000000000020
:101EC2000000300D0A0000000000000000000000C9
:101ED2000000000000000000000000000000000000
:101EE20000000000000000000000000000000000F0
:101EF20000000000000000000000000000000000E0
:101F020000000000000000000000000000000000CF
:101F120000000000000000000000000000000000BF
:101F220000000000000000000000000000000000AF
:101F3200000000000000000000000000000000009F
:101F4200000000000000000000000000000000008F
:101F5200000000000000000000000000000000007F
:101F6200000000000000000000000000000000006F
:101F7200000000000000000000000000000000005F
:101F8200000000000000000000000000000000004F
:101F9200000000000000000000000000000000003F
:101FA200000000000000000000000000000000002F
:101FB2000007496E69740000000000000000000084
:101FC200000000000040303100000000000000006E
:101FD20000000000000000000000000000000000FF
:101FE20000000000000000000000000000300D0AA8
:101FF20000000000000000000000000000000000DF
:1020020000000000000000000000000000000000CE
:102012000000000000486F6D650000000000000035
:10202200000000000000000040303100000000000D
:10203200000000000000000000000000000000009E
:10204200000000000000000000000000000000008E
:10205200300D0A0000000000000000000000000037
:10206200000000000000000000000000000000006E
:10207200000000000000000000000000000000005E
:10208200000000000000000000000000000000004E
:10209200000000000000000000000000000000003E
:1020A200000000000000000000000000000000002E
:1020B200000000000000000000000000000000001E
:1020C200000000000000000000000000000000000E
:1020D20000000000000000000000000000000000FE
:1020E20000000000000000000000000000000000EE
:1020F20000000000000000000000000000000000DE
:1021020000000000000000000000000000000000CD
:1021120000000000000000000000000000000000BD
:1021220000000000000000000000000000000000AD
:10213200000000000000000000000000000000FF9E
:10214200FF40303100513A004543484F300021549E
:1021520065726D696E616C008107850788078E075D
:10216200000021434C53005465737400214D616E8D
:1021720075616C00215959595900A207A707AC078C
:10218200B4070000474F005741495400215858589E
:102192005800434F4D4558004D41310044313132D2
:1021A2003500413800563800505345543000A207DC
:1021B200A707C407C707CC07D207D807DC07E2077F
:1021C200E5078807E8070000546573743200443A53
:1021D2003200483A0047004D3A004831000808A250
:1021E20007A70785070E0812081508170893021A91
:1021F200080000585858585858580040305200406B
:10220200304D003308A207A70781073B083F0800AB
:10221200002300450051085308A207A70700000148
:0422220000000000B8
:00000001FF
