:100000000C943E000C945B000C945B000C945B0021
:100010000C945B000C945B000C945B000C948302CA
:100020000C942E020C945B000C945B000C945B000F
:100030000C945B000C945B000C945B000C945B00D4
:100040000C945B000C945B000C9455010C945B00C9
:100050000C945B000C945B000C945B000C945B00B4
:100060000C945B000C945B000C945B000C945B00A4
:100070000C945B000C945B000C945B0011241FBE7D
:10008000CFEFD8E0DEBFCDBF17E0A0E0B1E0E4E8FD
:10009000FCE102C005900D92A036B107D9F717E038
:1000A000A0E6B7E001C01D92A03DB107E1F70E94B4
:1000B000CF090C94400E0C940000282F662311F0F9
:1000C000469A01C04698459887B18F6087B998B124
:1000D000907F822F82958F70892B88B9449A00C0B7
:1000E00044982F70292B28B9449A00C044989F60E7
:1000F00098B90895882311F0469A01C04698459A08
:1001000087B1807F87B9449A00C096B1449800C0F7
:10011000449A00C086B18F709295907F4498892B45
:10012000089580E00E947A0087FDFBCF82E090E096
:100130000197F1F780E00E947A0008951F93182F2D
:100140000E949100812F60E00E945D001F91089540
:100150001F93182F0E949100812F61E00E945D0083
:100160001F910895662311F4805809C0613011F47D
:10017000805405C0623011F48C5601C08C520E942C
:100180009E0008950E94910090E0089581E00E94F1
:100190009E00089582E00E949E0008951F93182FEC
:1001A0000E949100982F1A3099F4843110F480E461
:1001B0000BC08054843110F484E106C094519C3209
:1001C00010F080E001C084E580580E949E0018C0B5
:1001D000833111F480EC0BC0833511F484E907C03E
:1001E000873211F484ED03C0873621F480E860E0A3
:1001F0000E945D000E949100812F61E00E945D00DD
:100200001F910895CF93DF93EC0102C00E94CE00AE
:1002100089918823D9F7DF91CF910895CF93DF9308
:10022000EC0102C00E94CE00FE0121968491882339
:10023000C9F7DF91CF9108951F93182F87B18F6071
:1002400087B93E9A3D9A3C9A80E89EE30197F1F780
:10025000419A409A449A00C0449880E893E10197FB
:10026000F1F7449A00C0449880E490E0FC01319793
:10027000F1F7449A00C04498FC013197F1F7409897
:10028000449A00C044980197F1F788E20E949E00CA
:1002900088E00E949E000E94C60086E00E949E00A8
:1002A000812F0E949E001F9108951F920F920FB6FA
:1002B0000F9211242F938F939F9382EB86BD809191
:1002C000CF0720B120952827809168078223809549
:1002D0008093680790916707922398279093670708
:1002E000822389239091CF0798279093CF0720915D
:1002F000CE079091CF078923822B8093CE078091E0
:10030000CF07877819F482E38093660780916607A8
:10031000815080936607882359F484E180936607AF
:10032000909169078091CF078778892B809369071F
:100330009F918F912F910F900FBE0F901F90189546
:10034000F8949091CE0789239091CE0798279093A7
:10035000CE0778940895F894909169078923909135
:10036000690798279093690778940895F894909175
:10037000CF07F8942091CE079095892382239091FE
:10038000CE0798279093CE0778940895982FF894E5
:10039000809169079823809169078927809369076D
:1003A0007894F8948091CE0789239091CE0798276E
:1003B0009093CE077894089541E050E0A8ECB0E027
:1003C00061E070E021C0FD013197F1F70197D9F7A5
:1003D00025B1CB01042E02C0880F991F0A94E2F7C1
:1003E0008095822385B925B141505040CB01042E20
:1003F00002C0880F991F0A94E2F7282B25B94E5F97
:100400005F4F4930510519F080E293E0DCCF089549
:1004100081B111B882B18FEF82B985E085BD83EFDC
:1004200086BDEEE6F0E08081816080837894089557
:1004300085B1982F990F907F8770982B903F08F483
:10044000986095B90895F894A895E0E6F0E0808169
:100450008861808389E68083789408951F920F9243
:100460000FB60F9211248F939F9385B191E0892746
:1004700085B99F918F910F900FBE0F901F90189587
:100480001092C50023E32093C40096E09093C2002D
:10049000E1ECF0E0808188608083808180618083EE
:1004A0001092CD002093CC009093CA00E9ECF0E0CC
:1004B0008081886080838081806180830895982F07
:1004C000672B39F48091C00085FFFCCF9093C60064
:1004D00008958091C80085FFFCCF9093CE000895C9
:1004E0000F931F93CF93DF93EC018B0104C0B801EE
:1004F0000E945F02219688818823C9F7DF91CF91FE
:100500001F910F9108951F920F920FB60F92112411
:100510002F933F934F935F936F937F938F939F930B
:10052000AF93BF93EF93FF9380E091E061E070E0C1
:100530000E94700285B191E0892785B9FF91EF9102
:10054000BF91AF919F918F917F916F915F914F91EB
:100550003F912F910F900FBE0F901F90189500970D
:1005600039F48091C00087FFFCCF8091C6000BC09A
:10057000019719F02FEF3FEF08C08091C80087FF67
:10058000FCCF8091CE00282F30E0C9010895EF9272
:10059000FF920F931F93CF93DF938C017B01C0E0F9
:1005A000D0E0C7010E94AF028D3021F0F8018193A5
:1005B0008F012196C436D10524F48D3011F08A3094
:1005C00081F7F8011082DF91CF911F910F91FF9079
:1005D000EF9008950E9423028FEF84B985B9E3E775
:1005E000F0E0808180618083E8E6F0E080818860CF
:1005F00080830E94DC018EE00E941C010E94C600E4
:100600000E94CA000E9408020E94400208952091A0
:1006100060073091610787E2203138070CF047C04E
:1006200083E0283E38071CF084E090E014C02436B4
:1006300031051CF083E090E00EC02A3031051CF03B
:1006400082E090E008C02115310519F480E090E0C7
:1006500002C081E090E02F5F3F4F3093610720930D
:1006600060078130910599F0823091051CF4892B47
:1006700039F01AC08230910569F00397A9F40DC0D2
:1006800084E091E00E94020185E191E008C083E3EB
:1006900091E005C081E591E002C08FE691E060E065
:1006A00070E00E94700208958DE891E0F8CF85E037
:1006B00090E0D1CFCF92DF92EF92FF920F931F93F2
:1006C000DF93CF93CDB7DEB761970FB6F894DEBF57
:1006D0000FBECDBF6C0182E390E3A0E3B0E08E8358
:1006E0009F83A887B9871B861A86DE011C96E8EDD2
:1006F000F1E085E001900D928150E1F7198A82E3E3
:1007000090E3A0E3B0E089839A83AB83BC831D822E
:1007100084E0E82EF12CA0E0B0E09E012A5F3F4F7C
:10072000F601EE0DFF1D8081863441F0F901EA0FDC
:10073000FB1F808311960894E11CF11CA630B105C3
:1007400024F4882311F0863459F78E010A5F1F4F75
:10075000A00FB11F1C928BEA91E00E940201C80118
:100760000E94020188EB91E00E9402010894E11CC2
:10077000F11CA0E0B0E09E01245F3F4FF601EE0DBA
:10078000FF1D8081823541F0F901EA0FFB1F808354
:100790000894E11CF11C1196A630B10524F48823BD
:1007A00011F0823559F78E01045F1F4FA00FB11F62
:1007B0001C928AEB91E00E940201C8010E94020192
:1007C00088EB91E00E940201C7010196A0E0B0E031
:1007D000AE014F5F5F4FF601E80FF91F208123350F
:1007E00031F0FA01EA0FFB1F208301961196A43025
:1007F000B10524F4222311F0233569F78E010F5F30
:100800001F4FA00FB11F1C9287EC91E00E940201C4
:10081000C8010E94020188EB91E00E9402018091D0
:10082000600790916107019690936107809360073C
:1008300084ED91E060E070E00E94700261960FB676
:10084000F894DEBF0FBECDBFCF91DF911F910F9106
:10085000FF90EF90DF90CF9008950F931F938B013F
:100860000E94C6008EED91E00E940201C8010E9424
:1008700002018EEE92E0A0EDB7E01197F1F701973B
:10088000D1F71F910F91089589EE91E00E94020126
:100890008AEF91E00E9402018CE092E00E94020146
:1008A000F8949091CE0798708091CE078927809315
:1008B000CE077894992331F08AE292E061E070E00B
:1008C0000E94700208950F931F93CF93DF938C01C2
:1008D000C0E0D0E0DE011196FD01E659F84FE0815D
:1008E000EC3211F4DE0103C0C00FD11FE883A43144
:1008F000B10534F4EE2321F0EC3211F0ED01EACF32
:10090000A00FB11F1C92C8010E943E0D29E030E0EB
:1009100040E050E00E946E0CCA01B901A8012AE033
:1009200030E00E94A80DDF91CF911F910F910895A3
:100930000F931F93CF93DF938C01EB0183E392E03E
:100940000E94200D892B61F485E392E00E94020150
:1009500083E392E00E9402018DE392E00E94020193
:1009600083E392E00E94200D019761F485E392E019
:100970000E94020183E392E00E9402018AE492E075
:100980000E94020187E592E00E940201CE010E94CE
:100990000201A0E0B0E0F801EA0FFB1F83818C3276
:1009A00029F0FE01EA0FFB1F80831196A431B105E7
:1009B00024F4882311F08C3271F7AC0FBD1F1C9208
:1009C000CE010E94200DAA2797FDA095BA2FBC0149
:1009D000CD0127EC35E141E050E00E943C0C20E0E5
:1009E00030E140E050E00E946E0CCA01B901AE0156
:1009F0002AE030E00E94A80DDF91CF911F910F9166
:100A00000895CF92DF92EF92FF920F931F93CF93AF
:100A1000DF936C017A018B01CFEFDFEF08C0C601D5
:100A2000A7010E94790D0E5F1F4F009749F0219694
:100A3000F801608171816115710589F7C3E6D0E025
:100A4000CE01DF91CF911F910F91FF90EF90DF903A
:100A5000CF900895DF93CF93CDB7DEB72A970FB627
:100A6000F894DEBF0FBECDBFDE011196E5E9F6E0DA
:100A70002AE001900D922150E1F7BE016F5F7F4F98
:100A800043E050E00E9401058130910561F0823021
:100A900091051CF4892B51F012C08230910549F068
:100AA000039769F409C021E030E00BC020E030E09A
:100AB00008C022E030E005C023E030E002C02EEFA5
:100AC0003FEFC9012A960FB6F894DEBF0FBECDBF27
:100AD000CF91DF9108950F931F93DF93CF93CDB7FD
:100AE000DEB72A970FB6F894DEBF0FBECDBF8C01DC
:100AF000DE011196E7EBF6E08AE001900D9281505D
:100B0000E1F78091640790916507892BC1F481E03A
:100B100090E090936507809364078EE592E060E033
:100B200070E00E9470028DE792E060E070E00E9449
:100B3000700289E992E060E070E00E947002C801F2
:100B4000BE016F5F7F4F42E050E00E94010581309F
:100B5000910561F0823091051CF4892B21F00FC0C2
:100B600004976CF41EC00E94C6001BC08DEB92E07F
:100B70000E94020182ED92E060E070E010C0C801C6
:100B80000E94020181EE92E00E940201C80161E030
:100B900070E00E94700288EB91E061E070E00E94DA
:100BA00070022A960FB6F894DEBF0FBECDBFCF916C
:100BB000DF911F910F9108950F931F93DF93CF93B0
:100BC000CDB7DEB7A0970FB6F894DEBF0FBECDBF8E
:100BD0008C01DE011B96EAE1F7E086E101900D92BF
:100BE0008150E1F7C801BE01655F7F4F42E050E0F0
:100BF0000E94010584309105C1F18530910584F48E
:100C00008130910529F1823091051CF4892BE9F09E
:100C100065C082309105F9F0039709F05FC01EC0EE
:100C20008730910581F1883091053CF4853091053C
:100C300001F1069709F052C023C08830910509F4EC
:100C40003FC0099709F04AC046C08AEE92E04FC003
:100C50000E94C6004EC08CEE92E049C08FEE92E03A
:100C60000E9402010E94070344C0C8010E945A0367
:100C700040C083E093E00E94020184ED91E026C031
:100C800088E193E034C080916207909163070196F8
:100C900090936307809362078E010F5F1F4FB80127
:100CA0004AE050E00E94870DC8010E94020187E2DD
:100CB00093E00E9402018FE293E061E070E008C0DF
:100CC0008AE393E00E9402018FE393E060E070E02A
:100CD0000E9470020EC083E493E009C088E593E0AF
:100CE0000E940201C8010E9402018EE593E00E9469
:100CF0000201A0960FB6F894DEBF0FBECDBFCF9114
:100D0000DF911F910F910895DF93CF93CDB7DEB799
:100D10002A970FB6F894DEBF0FBECDBFDE01119645
:100D2000E2E5F7E02AE001900D922150E1F7BE01E3
:100D30006F5F7F4F41E050E00E94010581309105D7
:100D400079F0823091051CF4892B39F01CC0823077
:100D5000910589F00397B9F411C08BE693E010C0B8
:100D600088E793E00E9402018FE793E060E070E083
:100D70000E94700210C00E94C6000DC083E893E07C
:100D80000E94020108C08AE090E0A0EDB7E0119750
:100D9000F1F70197D1F72A960FB6F894DEBF0FBE90
:100DA000CDBFCF91DF910895CF92DF92EF92FF9266
:100DB0000F931F93DF93CF93CDB7DEB7C755D040C6
:100DC0000FB6F894DEBF0FBECDBF6C01DE011196E9
:100DD000E0E4F7E08EE001900D928150E1F7C6016A
:100DE000BE016F5F7F4F43E050E00E9401058230FB
:100DF0009105C9F08330910534F4009771F00197A3
:100E000009F0F9C00DC084309105F9F084309105E6
:100E10008CF0059709F0EFC041C083E993E0F0C082
:100E20000E94C600EFC083E893E00E9402018DE9B2
:100E300093E0DCC08AE090E0A0EDB7E01197F1F715
:100E40000197D1F78EEA93E0CDC083EB93E00E9447
:100E5000020188EC93E061E070E00E94700282E39E
:100E600090E0A0EDB7E01197F1F70197D1F78091ED
:100E7000C80087FF04C081E090E00E941208C6010C
:100E80006BEC73E00E94700D009709F4ADC08EEC1E
:100E900093E00E94020183EE93E0A8C08AE090E014
:100EA000A0EDB7E01197F1F70197D1F72FE0E22E0F
:100EB000F12CEC0EFD1E81E2F70111928A95E9F703
:100EC000C601B7010E9498048E01005D1F4F88E2A1
:100ED000F80111928A95E9F78DE488AB81E489AB3A
:100EE00080E28AAB1BAAC801B7010E94650DC80148
:100EF00068EB71E00E94650D88EE93E00E940201AC
:100F0000C8010E940201C80161E070E00E94700205
:100F100002E310E0F801A0EDB7E01197F1F70197B7
:100F2000D1F78091C80087FF6DC081E090E00E94FA
:100F3000120888EC93E061E070E00E947002F80112
:100F4000A0EDB7E01197F1F70197D1F78091C800B4
:100F500087FF05C081E090E00E9412082CC08DEE52
:100F600093E00E94020127C088EC93E061E070E00A
:100F70000E947002F701A0EDB7E01197F1F7019719
:100F8000D1F78091C80087FF10C081E090E00E94F7
:100F900012080E94C6008EEF93E00E9402018AE0D0
:100FA00094E00E940201C80102C085E194E00E9421
:100FB0000201A89506C092E3E92EF12C8E01015F93
:100FC0001F4FC60164E274E00E94700D009761F249
:100FD00087E294E00E940201CE010F960E94020176
:100FE00083E394E00E94020184ED91E060E070E010
:100FF0000E94700207C08EE394E00E940201C601C5
:101000000E940201C95ADF4F0FB6F894DEBF0FBE2F
:10101000CDBFCF91DF911F910F91FF90EF90DF90A7
:10102000CF9008950F931F938C018AE697E0B80143
:101030000E94C7020130110529F48AE697E00E9458
:10104000840648C080917C0690917D068E5F9F4FFC
:1010500051F489E494E00E9402018FEF9FEF909396
:101060007D0680937C0680917C0690917D068F5F43
:101070009F4F41F48AE697E00E942A0590937D06EF
:1010800080937C0680917C0690917D06892B21F4CB
:101090008AE697E00E94D40680917C0690917D06B6
:1010A000019721F48AE697E00E94DC0580917C0696
:1010B00090917D06029721F48AE697E00E946D08E0
:1010C00080917C0690917D06039721F48AE697E053
:1010D0000E946B051F910F910895AF92BF92CF921E
:1010E000DF92EF92FF920F931F93DF93CF93CDB7D1
:1010F000DEB7C356D0400FB6F894DEBF0FBECDBFEB
:101100007C01DE011196EBEEF6E08AE101900D9292
:101110008150E1F78E01045C1F4F88E2D8011D92D7
:101120008A95E9F78DE48CAF81E48DAF80E28EAFD4
:101130001FAEC701BE016F5F7F4F41E050E00E94CC
:101140000105873091056CF4833091050CF0EAC0FD
:1011500081309105C1F082309105C4F4892B81F072
:10116000D6C08A30910524F408970CF0DBC0BDC0CE
:101170008A30910509F4C4C00B9709F0C8C0D2C0E9
:101180000E94C600CFC08DEB92E0CAC084E690E01A
:10119000A0EDB7E01197F1F70197D1F7C801BE01B3
:1011A000655E7F4F0E94650DC80168EB71E00E948B
:1011B000650DC80161E070E00E94700202E310E07A
:1011C000F801A0EDB7E01197F1F70197D1F7809101
:1011D000C80087FF16C081E090E00E94120888ECEA
:1011E00093E061E070E00E947002F801A0EDB7E0CA
:1011F0001197F1F70197D1F78091C80088234CF43B
:1012000003C08DE594E08CC081E090E00E9412085C
:101210004CC08DEE93E00E94020147C082E794E04B
:1012200061E070E00E947002F501A0EDB7E0119757
:10123000F1F70197D1F78091C80087FF10C081E0D6
:1012400090E00E9412080E94C60085E794E00E9488
:101250000201C7010E9402018AE894E002C085E110
:1012600094E00E940201A89588EC93E061E070E0B0
:101270000E947002F601A0EDB7E01197F1F7019717
:10128000D1F78091C80087FF0AC081E090E00E94FA
:101290001208C8010E94020188EB91E002C085E1BA
:1012A00094E00E940201A89509C044E6A42EB12C46
:1012B00032E3C32ED12C8E01055E1F4FC70164E2BD
:1012C00074E00E94700D009709F4A8CF87E294E0C3
:1012D0000E940201CE014B960E94020183E394E03A
:1012E0000E9402018EE894E00DC0FE017B9681E22F
:1012F000DF011D928A95E9F7CF010E94630412C0B5
:101300008FE994E060E070E00E9470020BC086EA12
:1013100094E00E940201C7010E94020181EE92E066
:101320000E940201CD59DF4F0FB6F894DEBF0FBE09
:10133000CDBFCF91DF911F910F91FF90EF90DF9084
:10134000CF90BF90AF9008950F931F938C0161E0F1
:1013500070E00E9470020E94C60089EA94E00E9438
:101360000201C8010E94020188EB91E00E94020183
:1013700084E690E0A0EDB7E01197F1F70197D1F77F
:1013800081E090E00E94120888EE93E0A0EDB7E0C3
:101390001197F1F70197D1F71F910F9108950E94CE
:1013A000EA02A895F8949091CE0791708091CE07AB
:1013B00089278093CE077894992361F4F8949091CB
:1013C00069079170809169078927809369077894EC
:1013D000992311F00E941802F8949091CE07927010
:1013E0008091CE0789278093CE077894992331F096
:1013F00080EB94E060E070E00E947002F8949091BD
:10140000CE0794708091CE0789278093CE07789479
:10141000992311F00E94C600F8949091CE0798701D
:101420008091CE0789278093CE077894992351F035
:1014300083EB94E00E94020186E796E069E276E0A1
:101440000E94820BF8949091CE0790718091CE0704
:1014500089278093CE077894992321F086E796E038
:101460000E94FD0BF8949091CE0790728091CE0768
:1014700089278093CE077894992361F4F89490910A
:10148000690790728091690789278093690778942A
:10149000992321F086E796E00E94CA0BF894909178
:1014A000CE0790748091CE0789278093CE077894D9
:1014B000992361F4F8949091690790748091690779
:1014C0008927809369077894992321F086E796E02D
:1014D0000E94A10BF8949091CE0790788091CE074E
:1014E00089278093CE077894992321F086E796E0A8
:1014F0000E94900B8091C00087FF04C080E090E0C4
:101500000E9412088091C80087FF4BCF81E090E0D5
:101510000E94120846CFEF92FF920F931F93CF9332
:10152000DF93EC0186B590E00E94150D50EDE52E9D
:1015300057E0F52E17C00E94100D61EF70E00E9479
:101540005B0C8C01065F1F4F88810E94CE0080E0FB
:1015500090E004C0F7013197F1F7019680179107E9
:10156000CCF321968881882331F7DF91CF911F91A9
:101570000F91FF90EF90089588EE93E028EC30E013
:10158000F9013197F1F70197D9F784EC94E00E94C3
:101590008B0A80ED97E028EC30E0F9013197F1F704
:1015A0000197D9F780ED94E00E948B0A88E893E1D7
:1015B00028EC30E0F9013197F1F70197D9F782EE85
:1015C00094E00E948B0A80E797E128EC30E0F90173
:1015D0003197F1F70197D9F70E94C60008959F92BD
:1015E000AF92BF92CF92DF92EF92FF920F931F9331
:1015F000CF93DF937C01FC01C480D580BB24992468
:1016000052C0E92DF0E0E217F3070CF06BC08F0138
:10161000040F151F9394F801EE0FFF1FE00FF11F49
:1016200063E0EE0FFF1F6A95E1F7EC0DFD1D85816C
:1016300081FDE7CFF70161816B0D80810E94B200CF
:10164000F701A380AA94F601218130E02F5F3F4F7C
:10165000808190E0890D911D2817390711F48AE2E5
:1016600001C080E20E94CE00E801CC0FDD1FC00F58
:10167000D11F219683E0CC0FDD1F8A95E1F7CC0DB9
:10168000DD1D10E006C08991882331F00E94CE0054
:101690001F5F1A15C0F306C080E20E94CE001F5FD4
:1016A0001A15D0F3B394F7018281B816D8F4F60175
:1016B0008081482F50E08281282F30E0241B350B99
:1016C000A0CFF70161816B0D80810E94B20010E014
:1016D00004C080E20E94CE001F5FF70183811817CB
:1016E000C0F3B394F7018281B81658F3DF91CF911C
:1016F0001F910F91FF90EF90DF90CF90BF90AF9030
:101700009F900895FC01DB018481958114969C9340
:101710008E93139775836483CF010E94EF0A089517
:10172000DC011496ED91FC911597838194810097CB
:1017300039F015969C938E931497CD010E94EF0A71
:101740000895CF93DF93EC01AC81BD8111962C916C
:1017500011972223E1F02150822F90E0FC01EE0F3F
:10176000FF1FE80FF91F83E0EE0FFF1F8A95E1F7D7
:10177000EA0FFB1F858181FDECCF11962C93119709
:101780008C91281708F42C93CE010E94EF0ADF9168
:10179000CF910895CF93DF93EC01AC81BD81119679
:1017A0002C91119712969C9112972F5F291710F583
:1017B000422F50E0FA01EE0FFF1FE40FF51F63E028
:1017C000EE0FFF1F6A95E1F7EA0FFB1F858181FD90
:1017D000ECCF11962C9311973A818C9190E0830F66
:1017E000911D481759071CF0231B2F5F2C93CE0126
:1017F0000E94EF0ADF91CF9108950F931F93CF932B
:10180000DF938C01FC01C481D581898190E09C012A
:10181000220F331F280F391FD901F3E0AA0FBB1F76
:10182000FA95E1F7AC0FBD1F15968C91159780FFC7
:1018300008C05B966D917C915C97C8010E94820BF9
:1018400013C0C9010196E3E0880F991FEA95E1F7FB
:10185000C80FD91F1696ED91FC9117975B968D9145
:101860009C915C97BE010995C8010E94EF0ADF9127
:10187000CF911F910F910895629FD001739FF00146
:10188000829FE00DF11D649FE00DF11D929FF00D10
:10189000839FF00D749FF00D659FF00D9927729F47
:1018A000B00DE11DF91F639FB00DE11DF91FBD01D2
:1018B000CF011124089597FB092E07260AD077FD42
:1018C00004D027D006D000201AF4709561957F4F80
:1018D0000895F6F7909581959F4F089597FB092EEF
:1018E00005260ED057FD04D028D00AD0001C38F4AD
:1018F00050954095309521953F4F4F4F5F4F08953C
:10190000F6F790958095709561957F4F8F4F9F4F1B
:101910000895AA1BBB1B51E107C0AA1FBB1FA61736
:10192000B70710F0A61BB70B881F991F5A95A9F788
:1019300080959095BC01CD010895A1E21A2EAA1BB5
:10194000BB1BFD010DC0AA1FBB1FEE1FFF1FA2176F
:10195000B307E407F50720F0A21BB30BE40BF50B6C
:10196000661F771F881F991F1A9469F760957095F5
:10197000809590959B01AC01BD01CF010895A0E039
:10198000B0E0E5ECFCE00C94110EEC01A880B9800D
:10199000CA80DB80A114B104C104D10441F484E203
:1019A000A82E89EDB82E8BE5C82E87E0D82EC6016B
:1019B000B5012DE133EF41E050E00E946E0C27EAC3
:1019C00031E440E050E00E943C0C7B018C01C601F8
:1019D000B5012DE133EF41E050E00E946E0CCA01E9
:1019E000B9012CEE34EF4FEF5FEF0E943C0C6E0D0F
:1019F0007F1D801F911F97FF04C061507040804081
:101A00009048688379838A839B839B013F77C901D0
:101A1000CDB7DEB7EAE00C942D0E0E94BF0C0895FE
:101A20008CE597E00E94BF0C0895A0E0B0E08093A1
:101A30005C0790935D07A0935E07B0935F070895DE
:101A4000FC0188279927E89421912032E9F3293075
:101A500010F02E30C8F32B3241F02D3239F4689457
:101A600004C00E94F10D820F911D219120532A3054
:101A7000C0F31EF4909581959F4F08951F93FC012C
:101A800099278827BC01E89411911032E9F31930A5
:101A900010F01E30C8F31B3251F01D3249F4689427
:101AA00006C00E94DC0D610F711D811D911D1191F9
:101AB00010531A30B0F33EF490958095709561956F
:101AC0007F4F8F4F9F4F1F910895FB01DC010D90B9
:101AD0000020E9F7119701900D920020E1F7089599
:101AE000FB01DC018D91019080190110D9F3990B54
:101AF0000895FB01DC014150504030F08D91019080
:101B0000801919F40020B9F7881B990B0895FB017F
:101B10009F01E8944230C4F04532B4F44A3029F4CD
:101B200097FB1EF4909581959F4F642F77270E9415
:101B3000890C805D8A330CF0895D8193CB0100971D
:101B4000A1F716F45DE251931082C9010C94F90DCE
:101B5000FA01CF93FF93EF93223044F1253234F50D
:101B6000C22FE894CA3049F497FB3EF490958095D3
:101B7000709561957F4F8F4F9F4F2C2F33274427B0
:101B80005527FF93EF930E949D0CEF91FF91605DAD
:101B90006A330CF0695D6193B901CA01605070400D
:101BA0008040904051F716F4CDE2C19310828F919E
:101BB0009F91CF910C94F90D592F482F372F262F35
:101BC000660F771F881F991F660F771F881F991F41
:101BD000620F731F841F951F660F771F881F991F41
:101BE00008957AE0979F902D879F802D910D112465
:101BF0000895DC01FC01672F71917723E1F732979B
:101C000004C07C916D9370836291AE17BF07C8F3D7
:101C100008952F923F924F925F926F927F928F9290
:101C20009F92AF92BF92CF92DF92EF92FF920F936B
:101C30001F93CF93DF93CDB7DEB7CA1BDB0B0FB675
:101C4000F894DEBF0FBECDBF09942A883988488832
:101C50005F846E847D848C849B84AA84B984C884C8
:101C6000DF80EE80FD800C811B81AA81B981CE0FBF
:101C7000D11D0FB6F894DEBF0FBECDBFED010895A4
:041C8000F894FFCF06
:101C840031480A005374617475732067656D656C1F
:101C94006465742100202020202020202020302C66
:101CA400202020202020202020302C4B2C4B2C5274
:101CB4000D0A00202020202020202020392C202044
:101CC40020202020202020302C4B2C4B2C520D0A7D
:101CD40000202020202020202039392C20202020E2
:101CE4002020202020302C4B2C4B2C520D0A00207D
:101CF4002020202020203939392C20202020202089
:101D0400202020302C4B2C4B2C520D0A002039392A
:101D1400393939393939392C202020202020202004
:101D240020302C4B2C4B2C520D0A00315F4D494E68
:101D34005F53504545443A000A00315F4D41585FB6
:101D440053504545443A00315F4143435F53504546
:101D540045443A00300D0A003230303000005365FB
:101D64006C65637465643A20004D616E75656C6CD6
:101D74006572204D6F6475730A004175666E616803
:101D84006D65207374617274656E0A004E616368D8
:101D9400204175666E61686D652053573320647207
:101DA400EFBFBD636B656E210A004D2031363030C4
:101DB400300D00300041636873653A2000202852DA
:101DC4006F746174696F6E290A002028486F656812
:101DD40065292020200A00546573743A200057694D
:101DE4006C6C6B6F6D6D656E20696D205465726DE2
:101DF400696E616C204D6F6475730D0A006DEFBFE1
:101E0400BD676C696368652042656665686C6520BA
:101E140073696E643A200D0A002041202D204D6F15
:101E2400746F727374617475730D0A204D202D20C4
:101E34004D6F76652053746570730D0A0054657395
:101E4400742062657374616E64656E2020202020A6
:101E54000A00546573742062657374616E64656E00
:101E640000202020202020200A002100215400539B
:101E740074617475736162667261676520202020E5
:101E8400200A00483A202020202020202020202042
:101E94002020202020200A004D6F746F722073745C
:101EA400617274656E0A005F4D6F7665210A004D9C
:101EB400203136303030300D0A00522F423F00526C
:101EC4000D0A00483120656D7066616E67656E208D
:101ED4002020202020200A00555F423A200021457E
:101EE4004E44202020202020200A004572666F6C7A
:101EF4006772656963680A004572726F720A00311D
:101F04000D0A00546573742062657374616E6465B0
:101F14006E0A00526573657276650D0A0054657326
:101F2400742062657374616E64656E0D0A00496E97
:101F34006974005374617475736162667261676574
:101F44003A20202020200A00410A00302300466560
:101F5400686C67657363686C6167656E2020202018
:101F6400200A002D310D0A00506F733A004B656949
:101F74006E65204265776567756E67210A00727524
:101F84006E6E696E6720746F0A00506F73697469AE
:101F94006F6E3A20004B65696E6520416E74776FF1
:101FA40072740A00312300506F736974696F6E3A5A
:101FB400200A002045727265696368740A004953F7
:101FC400454C3A202020200A00556E62656B616EF4
:101FD4006E746572204D6F746F72210A00426566DB
:101FE40065686C206E2E2062657374616574696720
:101FF4000A00570A00506F736974696F6E28416B49
:10200400742F476573293A200A00202F20000D0AF7
:102014003E200D0A3E200D0A3E200D0A3E200045BA
:1020240043484F300D005A3A0053656E643A20001D
:10203400300A0042657472657465204D656EEFBFA9
:10204400BD210A0048656C6C6F204A6F65210A0047
:10205400486176652061206E696365204461792159
:102064000A004265206120486F6E657920426565EB
:10207400210A004D203132353030300A004D202DF8
:102084003132353030300A004D2031303030300AB2
:10209400004D202D31303030300A004D4120300ABF
:1020A40000000005000000A4092B393000000000E6
:1020B400000000000000000000000000F30400A481
:1020C400092D39300000000000000000000000006D
:1020D40000000000FD0400A4092B31302E30303004
:1020E400205363687269747465000000080500A4D5
:1020F400092D31302E303030205363687269747486
:1021040065000000110500A40947656865207A751B
:102114006D205572737072756E6700001B05440A5A
:1021240000510A004E20310A003F0A00000004005A
:102134000000A4094D6F746F727374617475730039
:1021440000000000000000C80300A4095365747A6D
:1021540065205572737072756E6700000000009EF2
:102164000500A409577269746520746F20454550B1
:10217400524F4D00000000A10500A4094E65776C84
:10218400696E65203100000000000000000000A41A
:102194000500A409506172612E206175736C65732A
:1021A400656E0000000000A90500000300000100A6
:1021B400004265776567656E202D20526F746174E7
:1021C400696F6E0021050100004265776567656EE1
:1021D400202D20486F65686500000000210501007E
:1021E400004B6F6E6669677572696572656E000093
:1021F40000000000AC05000004130000FFFF4030A5
:102204003100513A004543484F3000215465726D06
:10221400696E616C007E06820685068B06000021CD
:10222400434C53005465737400214D616E75616CA9
:10223400002159595959009F06A406A906B1060060
:1022440000474F00574149540021585858580043FB
:102254004F4D4558004D4131004431313235004134
:1022640038005638005053455430009F06A406C128
:1022740006C406C906CF06D506D906DF06E20685DA
:1022840006E5060000546573743200443A3200488F
:102294003A0047004D3A0048310005079F06A4065E
:1022A40082060B070F0712071407EA02170700003C
:1022B40058585858585858004030520040304D0033
:1022C40030079F06A4067E0638073C07000023005B
:1022D40045004E0750079F06A406000001000000B9
:00000001FF
