:100000000C94A1000C94BE000C94BE000C94BE0095
:100010000C94BE000C94BE000C94BE000C94E6023E
:100020000C9491020C94BE000C94BE000C94BE0083
:100030000C94BE000C94BE000C94BE000C94BE0048
:100040000C94BE000C94BE000C94B8010C94BE003D
:100050000C94BE000C94BE000C94BE000C94BE0028
:100060000C94BE000C94BE000C94BE000C94BE0018
:100070000C94BE000C94BE000C94BE00496E6974D2
:100080000A00000000000000000000000000004026
:1000900030310000000000000000000000000000FF
:1000A0000000000000000000000000000000000050
:1000B00000000000000000300D0A000000000000F9
:1000C0000000000000000000000000000000000030
:1000D00000000000000000000000000000000048D8
:1000E0006F6D650A000000000000000000000000C5
:1000F000000040303100000000000000000000005F
:1001000000000000000000000000000000000000EF
:1001100000000000000000000000300D0A00000098
:1001200000000000000000000000000000000000CF
:1001300000000000000000000000000000000000BF
:10014000000011241FBECFEFD8E0DEBFCDBF17E007
:10015000A0E0B1E0EAE4FDE102C005900D92AE3608
:10016000B107D9F717E0AEE6B7E001C01D92AE3D8A
:10017000B107E1F70E94320A0C94A30E0C94000020
:10018000282F662311F0469A01C04698459887B1FA
:100190008F6087B998B1907F822F82958F70892B5D
:1001A00088B9449A00C044982F70292B28B9449AE2
:1001B00000C044989F6098B90895882311F0469A2A
:1001C00001C04698459A87B1807F87B9449A00C09C
:1001D00096B1449800C0449A00C086B18F70929541
:1001E000907F4498892B089580E00E94DD0087FD70
:1001F000FBCF82E090E00197F1F780E00E94DD0004
:1002000008951F93182F0E94F400812F60E00E9430
:10021000C0001F9108951F93182F0E94F400812F92
:1002200061E00E94C0001F910895662311F4805878
:1002300009C0613011F4805405C0623011F48C564D
:1002400001C08C520E94010108950E94F40090E0C8
:10025000089581E00E940101089582E00E94010159
:1002600008951F93182F0E94F400982F1A3099F4C4
:10027000843110F480E40BC08054843110F484E1A4
:1002800006C094519C3210F080E001C084E5805893
:100290000E94010118C0833111F480EC0BC083353A
:1002A00011F484E907C0873211F484ED03C0873666
:1002B00021F480E860E00E94C0000E94F400812FD9
:1002C00061E00E94C0001F910895CF93DF93EC017D
:1002D00002C00E94310189918823D9F7DF91CF9123
:1002E0000895CF93DF93EC0102C00E943101FE011B
:1002F000219684918823C9F7DF91CF9108951F93A8
:10030000182F87B18F6087B93E9A3D9A3C9A80E852
:100310009EE30197F1F7419A409A449A00C04498AD
:1003200080E893E10197F1F7449A00C0449880E493
:1003300090E0FC013197F1F7449A00C04498FC0129
:100340003197F1F74098449A00C044980197F1F72B
:1003500088E20E94010188E00E9401010E942901B7
:1003600086E00E940101812F0E9401011F910895E2
:100370001F920F920FB60F9211242F938F939F937A
:1003800082EB86BD8091DD0720B1209528278091E2
:100390007607822380958093760790917507922344
:1003A000982790937507822389239091DD079827DA
:1003B0009093DD072091DC079091DD078923822B44
:1003C0008093DC078091DD07877819F482E38093BE
:1003D000740780917407815080937407882359F4BF
:1003E00084E180937407909177078091DD07877887
:1003F000892B809377079F918F912F910F900FBE3C
:100400000F901F901895F8949091DC078923909194
:10041000DC0798279093DC0778940895F8949091DE
:100420007707892390917707982790937707789497
:100430000895F8949091DD07F8942091DC07909549
:10044000892382239091DC0798279093DC07789486
:100450000895982FF89480917707982380917707D3
:100460008927809377077894F8948091DC07892313
:100470009091DC0798279093DC077894089541E0E9
:1004800050E0A8ECB0E061E070E021C0FD013197E0
:10049000F1F70197D9F725B1CB01042E02C0880FDF
:1004A000991F0A94E2F78095822385B925B14150BE
:1004B0005040CB01042E02C0880F991F0A94E2F726
:1004C000282B25B94E5F5F4F4930510519F080E266
:1004D00093E0DCCF089581B111B882B18FEF82B97A
:1004E00085E085BD83EF86BDEEE6F0E0808181602A
:1004F00080837894089585B1982F990F907F8770A5
:10050000982B903F08F4986095B90895F894A895B1
:10051000E0E6F0E080818861808389E680837894DA
:1005200008951F920F920FB60F9211248F939F93ED
:1005300085B191E0892785B99F918F910F900FBE6A
:100540000F901F9018951092C50023E32093C400CC
:1005500096E09093C200E1ECF0E0808188608083B7
:100560008081806180831092CD002093CC00909395
:10057000CA00E9ECF0E0808188608083808180613E
:1005800080830895982F672B39F48091C00085FFF0
:10059000FCCF9093C60008958091C80085FFFCCFE2
:1005A0009093CE0008950F931F93CF93DF93EC01A8
:1005B0008B0104C0B8010E94C20221968881882361
:1005C000C9F7DF91CF911F910F9108951F920F925C
:1005D0000FB60F9211242F933F934F935F936F9316
:1005E0007F938F939F93AF93BF93EF93FF9380E09D
:1005F00091E061E070E00E94D30285B191E089272B
:1006000085B9FF91EF91BF91AF919F918F917F91AC
:100610006F915F914F913F912F910F900FBE0F906F
:100620001F901895009739F48091C00087FFFCCF88
:100630008091C6000BC0019719F02FEF3FEF08C063
:100640008091C80087FFFCCF8091CE00282F30E03A
:10065000C9010895EF92FF920F931F93CF93DF93F9
:100660008C017B01C0E0D0E0C7010E9412038D30F5
:1006700021F0F80181938F012196C436D10524F42D
:100680008D3011F08A3081F7F8011082DF91CF911F
:100690001F910F91FF90EF9008950E9486028FEFB7
:1006A00084B985B9E3E7F0E0808180618083E8E682
:1006B000F0E08081886080830E943F028EE00E948B
:1006C0007F010E9429010E942D010E946B020E945D
:1006D000A302089520916E0730916F0787E22031C1
:1006E00038070CF047C083E0283E38071CF084E050
:1006F00090E014C0243631051CF083E090E00EC079
:100700002A3031051CF082E090E008C02115310547
:1007100019F480E090E002C081E090E02F5F3F4F4D
:1007200030936F0720936E078130910599F08230E6
:1007300091051CF4892B39F01AC08230910569F0BB
:100740000397A9F40DC084E091E00E94650185E162
:1007500091E008C083E391E005C081E591E002C02B
:100760008FE691E060E070E00E94D30208958DE88A
:1007700091E0F8CF85E090E0D1CFCF92DF92EF9279
:10078000FF920F931F93DF93CF93CDB7DEB761979F
:100790000FB6F894DEBF0FBECDBF6C0182E390E3CD
:1007A000A0E3B0E08E839F83A887B9871B861A8653
:1007B000DE011C96E8EDF1E085E001900D9281509C
:1007C000E1F7198A82E390E3A0E3B0E089839A839A
:1007D000AB83BC831D8284E0E82EF12CA0E0B0E066
:1007E0009E012A5F3F4FF601EE0DFF1D808186348A
:1007F00041F0F901EA0FFB1F808311960894E11C78
:10080000F11CA630B10524F4882311F0863459F781
:100810008E010A5F1F4FA00FB11F1C928BEA91E05F
:100820000E946501C8010E94650188EB91E00E9469
:1008300065010894E11CF11CA0E0B0E09E01245F7A
:100840003F4FF601EE0DFF1D8081823541F0F90129
:10085000EA0FFB1F80830894E11CF11C1196A6305F
:10086000B10524F4882311F0823559F78E01045F15
:100870001F4FA00FB11F1C928AEB91E00E946501EF
:10088000C8010E94650188EB91E00E946501C701E3
:100890000196A0E0B0E0AE014F5F5F4FF601E80FB8
:1008A000F91F2081233531F0FA01EA0FFB1F208365
:1008B00001961196A430B10524F4222311F02335BA
:1008C00069F78E010F5F1F4FA00FB11F1C9287ECBD
:1008D00091E00E946501C8010E94650188EB91E0EA
:1008E0000E94650180916E0790916F070196909329
:1008F0006F0780936E0784ED91E060E070E00E94E6
:10090000D30261960FB6F894DEBF0FBECDBFCF9174
:10091000DF911F910F91FF90EF90DF90CF9008959E
:100920000F931F938B010E9429018EED91E00E948D
:100930006501C8010E9465018EEE92E0A0EDB7E06E
:100940001197F1F70197D1F71F910F91089589EE53
:1009500091E00E9465018AEF91E00E9465018CE0C0
:1009600092E00E946501F8949091DC079870809164
:10097000DC0789278093DC077894992331F08AE299
:1009800092E061E070E00E94D30208950F931F93FC
:10099000CF93DF938C01C0E0D0E0DE011196FD0122
:1009A000E858F84FE081EC3211F4DE0103C0C00FCB
:1009B000D11FE883A431B10534F4EE2321F0EC32E9
:1009C00011F0ED01EACFA00FB11F1C92C8010E94E7
:1009D000A10D29E030E040E050E00E94D10CCA01B6
:1009E000B901A8012AE030E00E940B0EDF91CF91FF
:1009F0001F910F9108950F931F93CF93DF938C0155
:100A0000EB0183E392E00E94830D892B61F485E37F
:100A100092E00E94650183E392E00E9465018DE30C
:100A200092E00E94650183E392E00E94830D0197AA
:100A300061F485E392E00E94650183E392E00E9405
:100A400065018AE492E00E94650187E592E00E94D8
:100A50006501CE010E946501A0E0B0E0F801EA0F57
:100A6000FB1F83818C3229F0FE01EA0FFB1F80837C
:100A70001196A431B10524F4882311F08C3271F75A
:100A8000AC0FBD1F1C92CE010E94830DAA2797FDBB
:100A9000A095BA2FBC01CD0127EC35E141E050E033
:100AA0000E949F0C20E030E140E050E00E94D10C19
:100AB000CA01B901AE012AE030E00E940B0EDF91BD
:100AC000CF911F910F910895CF92DF92EF92FF92F5
:100AD0000F931F93CF93DF936C017A018B01CFEFBC
:100AE000DFEF08C0C601A7010E94DC0D0E5F1F4F9B
:100AF000009749F02196F8016081718161157105B7
:100B000089F7C3E6D0E0CE01DF91CF911F910F911D
:100B1000FF90EF90DF90CF900895DF93CF93CDB704
:100B2000DEB72A970FB6F894DEBF0FBECDBFDE0149
:100B30001196E2EAF6E02AE001900D922150E1F7E9
:100B4000BE016F5F7F4F43E050E00E94640581303B
:100B5000910561F0823091051CF4892B51F012C08F
:100B60008230910549F0039769F409C021E030E033
:100B70000BC020E030E008C022E030E005C023E0F8
:100B800030E002C02EEF3FEFC9012A960FB6F8946D
:100B9000DEBF0FBECDBFCF91DF9108950F931F939E
:100BA000DF93CF93CDB7DEB72A970FB6F894DEBFA9
:100BB0000FBECDBF8C01DE011196E4ECF6E08AE0B9
:100BC00001900D928150E1F7809172079091730727
:100BD000892BC1F481E090E09093730780937207B2
:100BE0008EE592E060E070E00E94D3028DE792E033
:100BF00060E070E00E94D30289E992E060E070E07A
:100C00000E94D302C801BE016F5F7F4F42E050E0F7
:100C10000E9464058130910561F0823091051CF4D9
:100C2000892B21F00FC004976CF41EC00E9429018B
:100C30001BC08DEB92E00E94650182ED92E060E0C6
:100C400070E010C0C8010E94650181EE92E00E9430
:100C50006501C80161E070E00E94D30288EB91E079
:100C600061E070E00E94D3022A960FB6F894DEBFCE
:100C70000FBECDBFCF91DF911F910F9108950F93BC
:100C80001F93DF93CF93CDB7DEB7A0970FB6F8943D
:100C9000DEBF0FBECDBF8C01DE011B96E7E2F7E0A1
:100CA00086E101900D928150E1F7C801BE01655FB8
:100CB0007F4F42E050E00E94640584309105C1F10D
:100CC0008530910584F48130910529F182309105B8
:100CD0001CF4892BE9F065C082309105F9F0039787
:100CE00009F05FC01EC08730910581F18830910501
:100CF0003CF48530910501F1069709F052C023C0FC
:100D00008830910509F43FC0099709F04AC046C0F0
:100D10008AEE92E04FC00E9429014EC08CEE92E014
:100D200049C08FEE92E00E9465010E946A0344C0B0
:100D3000C8010E94BD0340C083E093E00E946501AA
:100D400084ED91E026C088E193E034C08091700783
:100D500090917107019690937107809370078E01AF
:100D60000F5F1F4FB8014AE050E00E94EA0DC80132
:100D70000E94650187E293E00E9465018FE293E0A3
:100D800061E070E008C08AE393E00E9465018FE3B0
:100D900093E060E070E00E94D3020EC083E493E031
:100DA00009C088E593E00E946501C8010E946501C1
:100DB0008EE593E00E946501A0960FB6F894DEBF21
:100DC0000FBECDBFCF91DF911F910F910895DF939B
:100DD000CF93CDB7DEB72A970FB6F894DEBF0FBE1C
:100DE000CDBFDE011196EFE5F7E02AE001900D920C
:100DF0002150E1F7BE016F5F7F4F41E050E00E945C
:100E000064058130910579F0823091051CF4892BBD
:100E100039F01CC08230910589F00397B9F411C0F4
:100E20008BE693E010C088E793E00E9465018FE7AE
:100E300093E060E070E00E94D30210C00E9429019C
:100E40000DC083E893E00E94650108C08AE090E04D
:100E5000A0EDB7E01197F1F70197D1F72A960FB6F9
:100E6000F894DEBF0FBECDBFCF91DF910895CF9232
:100E7000DF92EF92FF920F931F93DF93CF93CDB743
:100E8000DEB7C755D0400FB6F894DEBF0FBECDBF5A
:100E90006C01DE011196EDE4F7E08EE001900D9219
:100EA0008150E1F7C601BE016F5F7F4F43E050E024
:100EB0000E94640582309105C9F08330910534F4B5
:100EC000009771F0019709F0F9C00DC084309105C9
:100ED000F9F0843091058CF0059709F0EFC041C01E
:100EE00083E993E0F0C00E942901EFC083E893E01A
:100EF0000E9465018DE993E0DCC08AE090E0A0EDFE
:100F0000B7E01197F1F70197D1F78EEA93E0CDC0E2
:100F100083EB93E00E94650188EC93E061E070E070
:100F20000E94D30282E390E0A0EDB7E01197F1F7C1
:100F30000197D1F78091C80087FF04C081E090E05D
:100F40000E947508C6016BEC73E00E94D30D0097F8
:100F500009F4ADC08EEC93E00E94650183EE93E04E
:100F6000A8C08AE090E0A0EDB7E01197F1F70197F3
:100F7000D1F72FE0E22EF12CEC0EFD1E81E2F701FD
:100F800011928A95E9F7C601B7010E94FB048E0110
:100F9000005D1F4F88E2F80111928A95E9F78DE410
:100FA00088AB81E489AB80E28AAB1BAAC801B70198
:100FB0000E94C80DC80168EB71E00E94C80D88EE60
:100FC00093E00E946501C8010E946501C80161E0CB
:100FD00070E00E94D30202E310E0F801A0EDB7E058
:100FE0001197F1F70197D1F78091C80087FF6DC085
:100FF00081E090E00E94750888EC93E061E070E089
:101000000E94D302F801A0EDB7E01197F1F7019724
:10101000D1F78091C80087FF05C081E090E00E9471
:1010200075082CC08DEE93E00E94650127C088EC06
:1010300093E061E070E00E94D302F701A0EDB7E019
:101040001197F1F70197D1F78091C80087FF10C081
:1010500081E090E00E9475080E9429018EEF93E0E4
:101060000E9465018AE094E00E946501C80102C007
:1010700085E194E00E946501A89506C092E3E92EFF
:10108000F12C8E01015F1F4FC60164E274E00E94E3
:10109000D30D009761F287E294E00E946501CE01D2
:1010A0000F960E94650183E394E00E94650184ED40
:1010B00091E060E070E00E94D30207C08EE394E00C
:1010C0000E946501C6010E946501C95ADF4F0FB633
:1010D000F894DEBF0FBECDBFCF91DF911F910F916E
:1010E000FF90EF90DF90CF9008950F931F938C01A6
:1010F00088E797E0B8010E942A030130110529F41E
:1011000088E797E00E94E70648C0809189069091A1
:101110008A068E5F9F4F51F489E494E00E94650136
:101120008FEF9FEF90938A068093890680918906BE
:1011300090918A068F5F9F4F41F488E797E00E9465
:101140008D0590938A0680938906809189069091F7
:101150008A06892B21F488E797E00E94370780915F
:10116000890690918A06019721F488E797E00E940A
:101170003F068091890690918A06029721F488E7BC
:1011800097E00E94D0088091890690918A06039783
:1011900021F488E797E00E94CE051F910F910895F2
:1011A000AF92BF92CF92DF92EF92FF920F931F9375
:1011B000DF93CF93CDB7DEB7C356D0400FB6F894C8
:1011C000DEBF0FBECDBF7C01DE011196E8EFF6E079
:1011D0008AE101900D928150E1F78E01045C1F4F6E
:1011E00088E2D8011D928A95E9F78DE48CAF81E4FD
:1011F0008DAF80E28EAF1FAEC701BE016F5F7F4F24
:1012000041E050E00E946405873091056CF4833022
:1012100091050CF0EAC081309105C1F08230910552
:10122000C4F4892B81F0D6C08A30910524F4089744
:101230000CF0DBC0BDC08A30910509F4C4C00B9727
:1012400009F0C8C0D2C00E942901CFC08DEB92E046
:10125000CAC084E690E0A0EDB7E01197F1F70197DE
:10126000D1F7C801BE01655E7F4F0E94C80DC8015D
:1012700068EB71E00E94C80DC80161E070E00E9457
:10128000D30202E310E0F801A0EDB7E01197F1F707
:101290000197D1F78091C80087FF16C081E090E0E8
:1012A0000E94750888EC93E061E070E00E94D30230
:1012B000F801A0EDB7E01197F1F70197D1F7809110
:1012C000C80088234CF403C08DE594E08CC081E015
:1012D00090E00E9475084CC08DEE93E00E9465017D
:1012E00047C082E794E061E070E00E94D302F5011C
:1012F000A0EDB7E01197F1F70197D1F78091C80001
:1013000087FF10C081E090E00E9475080E942901CB
:1013100085E794E00E946501C7010E9465018AE8A3
:1013200094E002C085E194E00E946501A89588ECF4
:1013300093E061E070E00E94D302F601A0EDB7E017
:101340001197F1F70197D1F78091C80087FF0AC084
:1013500081E090E00E947508C8010E94650188EB59
:1013600091E002C085E194E00E946501A89509C062
:1013700044E6A42EB12C32E3C32ED12C8E01055E9F
:101380001F4FC70164E274E00E94D30D009709F477
:10139000A8CF87E294E00E946501CE014B960E949F
:1013A000650183E394E00E9465018EE894E00DC03E
:1013B000FE017B9681E2DF011D928A95E9F7CF015C
:1013C0000E94C60412C08FE994E060E070E00E94C1
:1013D000D3020BC086EA94E00E946501C7010E9417
:1013E000650181EE92E00E946501CD59DF4F0FB695
:1013F000F894DEBF0FBECDBFCF91DF911F910F914B
:10140000FF90EF90DF90CF90BF90AF9008950F9333
:101410001F938C0161E070E00E94D3020E942901B9
:1014200089EA94E00E946501C8010E94650188EB89
:1014300091E00E94650184E690E0A0EDB7E011978D
:10144000F1F70197D1F781E090E00E94750888EEEE
:1014500093E0A0EDB7E01197F1F70197D1F71F9155
:101460000F9108950E944D03A895F8949091DC0780
:1014700091708091DC0789278093DC077894992309
:1014800061F4F8949091770791708091770789279C
:10149000809377077894992311F00E947B02F89447
:1014A0009091DC0792708091DC0789278093DC079C
:1014B0007894992331F080EB94E060E070E00E9432
:1014C000D302F8949091DC0794708091DC0789270F
:1014D0008093DC077894992311F00E942901F894F5
:1014E0009091DC0798708091DC0789278093DC0756
:1014F0007894992351F083EB94E00E94650186E78C
:1015000096E069E276E00E94E50BF8949091DC07A2
:1015100090718091DC0789278093DC077894992368
:1015200021F086E796E00E94600CF8949091DC0729
:1015300090728091DC0789278093DC077894992347
:1015400061F4F894909177079072809177078927DA
:10155000809377077894992321F086E796E00E949C
:101560002D0CF8949091DC0790748091DC0789270A
:101570008093DC077894992361F4F894909177072D
:1015800090748091770789278093770778949923BF
:1015900021F086E796E00E94040CF8949091DC0715
:1015A00090788091DC0789278093DC0778949923D1
:1015B00021F086E796E00E94F30B8091C00087FF40
:1015C00004C080E090E00E9475088091C80087FF09
:1015D0004BCF81E090E00E94750846CFEF92FF92DA
:1015E0000F931F93CF93DF93EC0186B590E00E9499
:1015F000780D50EDE52E57E0F52E17C00E94730DC3
:1016000061EF70E00E94BE0C8C01065F1F4F888165
:101610000E94310180E090E004C0F7013197F1F7BA
:10162000019680179107CCF321968881882331F7A2
:10163000DF91CF911F910F91FF90EF90089588EE69
:1016400093E028EC30E0F9013197F1F70197D9F7F1
:1016500084EC94E00E94EE0A80ED97E028EC30E004
:10166000F9013197F1F70197D9F780ED94E00E94E5
:10167000EE0A88E893E128EC30E0F9013197F1F7C0
:101680000197D9F782EE94E00E94EE0A80E797E195
:1016900028EC30E0F9013197F1F70197D9F70E9472
:1016A000290108959F92AF92BF92CF92DF92EF925D
:1016B000FF920F931F93CF93DF937C01FC01C480B3
:1016C000D580BB24992452C0E92DF0E0E217F3073E
:1016D0000CF06BC08F01040F151F9394F801EE0FEF
:1016E000FF1FE00FF11F63E0EE0FFF1F6A95E1F7A8
:1016F000EC0DFD1D858181FDE7CFF70161816B0D4B
:1017000080810E941501F701A380AA94F60121812E
:1017100030E02F5F3F4F808190E0890D911D2817A9
:10172000390711F48AE201C080E20E943101E80128
:10173000CC0FDD1FC00FD11F219683E0CC0FDD1F22
:101740008A95E1F7CC0DDD1D10E006C08991882354
:1017500031F00E9431011F5F1A15C0F306C080E20C
:101760000E9431011F5F1A15D0F3B394F7018281F3
:10177000B816D8F4F6018081482F50E08281282FD6
:1017800030E0241B350BA0CFF70161816B0D808108
:101790000E94150110E004C080E20E9431011F5F29
:1017A000F70183811817C0F3B394F7018281B8164B
:1017B00058F3DF91CF911F910F91FF90EF90DF9041
:1017C000CF90BF90AF909F900895FC01DB01848182
:1017D000958114969C938E93139775836483CF01A0
:1017E0000E94520B0895DC011496ED91FC9115971F
:1017F00083819481009739F015969C938E9314976A
:10180000CD010E94520B0895CF93DF93EC01AC8180
:10181000BD8111962C9111972223E1F02150822F46
:1018200090E0FC01EE0FFF1FE80FF91F83E0EE0FC1
:10183000FF1F8A95E1F7EA0FFB1F858181FDECCF41
:1018400011962C9311978C91281708F42C93CE01A4
:101850000E94520BDF91CF910895CF93DF93EC015B
:10186000AC81BD8111962C91119712969C91129783
:101870002F5F291710F5422F50E0FA01EE0FFF1FDE
:10188000E40FF51F63E0EE0FFF1F6A95E1F7EA0F23
:10189000FB1F858181FDECCF11962C9311973A8126
:1018A0008C9190E0830F911D481759071CF0231B62
:1018B0002F5F2C93CE010E94520BDF91CF910895A0
:1018C0000F931F93CF93DF938C01FC01C481D581CB
:1018D000898190E09C01220F331F280F391FD90105
:1018E000F3E0AA0FBB1FFA95E1F7AC0FBD1F1596E9
:1018F0008C91159780FF08C05B966D917C915C97E9
:10190000C8010E94E50B13C0C9010196E3E0880FEE
:10191000991FEA95E1F7C80FD91F1696ED91FC9132
:1019200017975B968D919C915C97BE010995C801B4
:101930000E94520BDF91CF911F910F910895629FEA
:10194000D001739FF001829FE00DF11D649FE00DB7
:10195000F11D929FF00D839FF00D749FF00D659F18
:10196000F00D9927729FB00DE11DF91F639FB00D17
:10197000E11DF91FBD01CF011124089597FB092E28
:1019800007260AD077FD04D027D006D000201AF40D
:10199000709561957F4F0895F6F7909581959F4FCB
:1019A000089597FB092E05260ED057FD04D028D0A8
:1019B0000AD0001C38F450954095309521953F4F42
:1019C0004F4F5F4F0895F6F790958095709561950C
:1019D0007F4F8F4F9F4F0895AA1BBB1B51E107C03C
:1019E000AA1FBB1FA617B70710F0A61BB70B881FAF
:1019F000991F5A95A9F780959095BC01CD0108953E
:101A0000A1E21A2EAA1BBB1BFD010DC0AA1FBB1F02
:101A1000EE1FFF1FA217B307E407F50720F0A21B74
:101A2000B30BE40BF50B661F771F881F991F1A94E1
:101A300069F760957095809590959B01AC01BD010B
:101A4000CF010895A0E0B0E0E8E2FDE00C94740E50
:101A5000EC01A880B980CA80DB80A114B104C10464
:101A6000D10441F484E2A82E89EDB82E8BE5C82E6E
:101A700087E0D82EC601B5012DE133EF41E050E0FB
:101A80000E94D10C27EA31E440E050E00E949F0C14
:101A90007B018C01C601B5012DE133EF41E050E03F
:101AA0000E94D10CCA01B9012CEE34EF4FEF5FEF69
:101AB0000E949F0C6E0D7F1D801F911F97FF04C019
:101AC0006150704080409048688379838A839B830B
:101AD0009B013F77C901CDB7DEB7EAE00C94900EC9
:101AE0000E94220D089589E697E00E94220D089534
:101AF000A0E0B0E08093690790936A07A0936B071A
:101B0000B0936C070895FC0188279927E8942191E8
:101B10002032E9F3293010F02E30C8F32B3241F097
:101B20002D3239F4689404C00E94540E820F911D26
:101B3000219120532A30C0F31EF4909581959F4F38
:101B400008951F93FC0199278827BC01E8941191FF
:101B50001032E9F3193010F01E30C8F31B3251F087
:101B60001D3249F4689406C00E943F0E610F711D3A
:101B7000811D911D119110531A30B0F33EF49095D0
:101B80008095709561957F4F8F4F9F4F1F9108955E
:101B9000FB01DC010D900020E9F7119701900D92F7
:101BA0000020E1F70895FB01DC018D91019080197F
:101BB0000110D9F3990B0895FB01DC01415050400D
:101BC00030F08D910190801919F40020B9F7881B2D
:101BD000990B0895FB019F01E8944230C4F045320F
:101BE000B4F44A3029F497FB1EF4909581959F4FE9
:101BF000642F77270E94EC0C805D8A330CF0895D9E
:101C00008193CB010097A1F716F45DE25193108206
:101C1000C9010C945C0EFA01CF93FF93EF9322302D
:101C200044F1253234F5C22FE894CA3049F497FBC9
:101C30003EF490958095709561957F4F8F4F9F4FA3
:101C40002C2F332744275527FF93EF930E94000D35
:101C5000EF91FF91605D6A330CF0695D6193B901AA
:101C6000CA01605070408040904051F716F4CDE2B8
:101C7000C19310828F919F91CF910C945C0E592F3C
:101C8000482F372F262F660F771F881F991F660F43
:101C9000771F881F991F620F731F841F951F660F80
:101CA000771F881F991F08957AE0979F902D879F2F
:101CB000802D910D11240895DC01FC01672F719195
:101CC0007723E1F7329704C07C916D937083629122
:101CD000AE17BF07C8F308952F923F924F925F92BD
:101CE0006F927F928F929F92AF92BF92CF92DF922C
:101CF000EF92FF920F931F93CF93DF93CDB7DEB791
:101D0000CA1BDB0B0FB6F894DEBF0FBECDBF099424
:101D10002A88398848885F846E847D848C849B847B
:101D2000AA84B984C884DF80EE80FD800C811B8189
:101D3000AA81B981CE0FD11D0FB6F894DEBF0FBEB8
:0A1D4000CDBFED010895F894FFCF28
:101D4A0031480A005374617475732067656D656C58
:101D5A006465742100202020202020202020302C9F
:101D6A00202020202020202020302C4B2C4B2C52AD
:101D7A000D0A00202020202020202020392C20207D
:101D8A0020202020202020302C4B2C4B2C520D0AB6
:101D9A0000202020202020202039392C202020201B
:101DAA002020202020302C4B2C4B2C520D0A0020B6
:101DBA002020202020203939392C202020202020C2
:101DCA00202020302C4B2C4B2C520D0A0020393964
:101DDA00393939393939392C20202020202020203E
:101DEA0020302C4B2C4B2C520D0A00315F4D494EA2
:101DFA005F53504545443A000A00315F4D41585FF0
:101E0A0053504545443A00315F4143435F5350457F
:101E1A0045443A00300D0A00323030300000536534
:101E2A006C65637465643A20004D616E75656C6C0F
:101E3A006572204D6F6475730A004175666E61683C
:101E4A006D65207374617274656E0A004E61636811
:101E5A00204175666E61686D652053573320647240
:101E6A00EFBFBD636B656E210A004D2031363030FD
:101E7A00300D00300041636873653A200020285213
:101E8A006F746174696F6E290A002028486F65684B
:101E9A0065292020200A00546573743A2000576986
:101EAA006C6C6B6F6D6D656E20696D205465726D1B
:101EBA00696E616C204D6F6475730D0A006DEFBF1A
:101ECA00BD676C696368652042656665686C6520F4
:101EDA0073696E643A200D0A002041202D204D6F4F
:101EEA00746F727374617475730D0A204D202D20FE
:101EFA004D6F76652053746570730D0A00546573CF
:101F0A00742062657374616E64656E2020202020DF
:101F1A000A00546573742062657374616E64656E39
:101F2A0000202020202020200A00210021540053D4
:101F3A00746174757361626672616765202020201E
:101F4A00200A00483A20202020202020202020207B
:101F5A002020202020200A004D6F746F7220737495
:101F6A00617274656E0A005F4D6F7665210A004DD5
:101F7A00203136303030300D0A00522F423F0052A5
:101F8A000D0A00483120656D7066616E67656E20C6
:101F9A002020202020200A00555F423A20002145B7
:101FAA004E44202020202020200A004572666F6CB3
:101FBA006772656963680A004572726F720A003156
:101FCA000D0A00546573742062657374616E6465EA
:101FDA006E0A00526573657276650D0A0054657360
:101FEA00742062657374616E64656E0D0A00496ED1
:101FFA0069740053746174757361626672616765AE
:10200A003A20202020200A00410A00302300466599
:10201A00686C67657363686C6167656E2020202051
:10202A00200A002D310D0A00506F733A004B656982
:10203A006E65204265776567756E67210A0072755D
:10204A006E6E696E6720746F0A00506F73697469E7
:10205A006F6E3A20004B65696E6520416E74776F2A
:10206A0072740A00312300506F736974696F6E3A93
:10207A00200A002045727265696368740A00495330
:10208A00454C3A202020200A00556E62656B616E2D
:10209A006E746572204D6F746F72210A0042656614
:1020AA0065686C206E2E2062657374616574696759
:1020BA000A00570A00506F736974696F6E28416B82
:1020CA00742F476573293A200A00202F20000D0A31
:1020DA003E200D0A3E200D0A3E200D0A3E200045F4
:1020EA0043484F300D005A3A0053656E643A200057
:1020FA00300A0042657472657465204D656EEFBFE3
:10210A00BD210A0048656C6C6F204A6F65210A0080
:10211A00486176652061206E696365204461792192
:10212A000A004265206120486F6E65792042656524
:10213A00210A004D203132353030300A004D202D31
:10214A003132353030300A004D2031303030300AEB
:10215A00004D202D31303030300A004D4120300AF8
:10216A0000000005000000070A2B393000000000BB
:10217A00000000000000000000000000F304000757
:10218A000A2D3930000000000000000000000000A5
:10219A0000000000FD0400070A2B31302E303030D9
:1021AA0020536368726974746500000008050007AB
:1021BA000A2D31302E3030302053636872697474BE
:1021CA0065000000110500070A47656865207A75F1
:1021DA006D205572737072756E6700001B05440A94
:1021EA0000510A004E20310A003F0A000000040094
:1021FA000000070A4D6F746F72737461747573000F
:10220A0000000000000000C80300070A5365747A42
:10221A0065205572737072756E6700000000009E2B
:10222A000500070A577269746520746F2045455086
:10223A00524F4D00000000A10500070A4E65776C59
:10224A00696E65203100000000000000000000A453
:10225A000500070A506172612E206175736C6573FF
:10226A00656E0000000000A90500000300000100DF
:10227A00004265776567656E202D20526F74617420
:10228A00696F6E0021050100004265776567656E1A
:10229A00202D20486F6568650000000021050100B7
:1022AA00004B6F6E6669677572696572656E0000CC
:1022BA0000000000AC0500000413000004077C00C5
:1022CA00000000077C00000000FFFF403031005191
:1022DA003A004543484F3000215465726D696E617A
:1022EA006C008B068F0692069806000021434C5319
:1022FA00005465737400214D616E75616C0021593B
:10230A0059595900AC06B106B606BE060000474F39
:10231A00005741495400215858585800434F4D45D9
:10232A0058004D41310044313132350041380056B0
:10233A003800505345543000AC06B106CE06D106DB
:10234A00D606DC06E206E606EC06EF069206F2067A
:10235A000000546573743200443A3200483A004728
:10236A00004D3A004831001207AC06B1068F061834
:10237A00071C071F072107EA0224070000585858BC
:10238A0058585858004030520040304D003D07AC74
:10239A0006B1068B06450749070000230045005B86
:0E23AA00075D07AC06B1060000010000000050
:00000001FF
