:100000000C943E000C945B000C945B000C945B0021
:100010000C945B000C945B000C94D9030C940304C7
:100020000C94FB010C945B000C945B000C945B0043
:100030000C945B000C945B000C945B000C945B00D4
:100040000C945B000C945B000C9474010C945B00AA
:100050000C945B000C945B000C945B000C945B00B4
:100060000C945B000C945B000C945B000C945B00A4
:100070000C945B000C945B000C945B0011241FBE7D
:10008000CFEFD8E0DEBFCDBF17E0A0E0B1E0E2E106
:10009000FCE102C005900D92A03CB107D9F718E031
:1000A000A0ECB7E001C01D92AE32B107E1F70E94AB
:1000B000280A0C94070E0C940000662311F0469A4F
:1000C00001C0469845983B9A3A9A399A389A40988E
:1000D00041984298439887FD409A86FD419A85FD54
:1000E000429A84FD439A449A00C0449840984198AB
:1000F0004298439883FD409A82FD419A81FD429A3D
:1001000080FD439A449A00C04498439A429A419A87
:10011000409A0895882311F0469A01C04698459A5E
:100120003B983A9839983898449A00C0339B02C05B
:1001300080E101C080E03299806231998064309919
:100140008068449800C0449A00C033998160329915
:10015000826031998460309988604498089580E085
:100160000E948A0087FDFBCF82E090E00197F1F7C3
:1001700080E00E948A0008951F93182F0E94AF000C
:10018000812F60E00E945D001F9108951F93182F3A
:100190000E94AF00812F61E00E945D001F910895D1
:1001A000662311F4805809C0613011F4805405C0F1
:1001B000623011F48C5601C08C520E94BC0008952C
:1001C0000E94AF0090E0089581E00E94BC00089575
:1001D00082E00E94BC0008951F93182F0E94AF0078
:1001E000982F1A3099F4843110F480E40BC08054B5
:1001F000843110F484E106C094519C3210F080E008
:1002000001C084E580580E94BC0018C0833111F4FD
:1002100080EC0BC0833511F484E907C0873211F4F8
:1002200084ED03C0873621F480E860E00E945D0021
:100230000E94AF00812F61E00E945D001F91089530
:10024000CF93DF93EC0102C00E94EC0089918823D8
:10025000D9F7DF91CF910895CF93DF93EC0102C0DE
:100260000E94EC00FE01219684918823C9F7DF915A
:10027000CF9108951F93182F3E9A3D9A3C9A3B9A2E
:100280003A9A399A389A80E89EE30197F1F7429AB0
:10029000439A449A00C0449880E893E10197F1F7AB
:1002A000449A00C0449880E490E0FC013197F1F753
:1002B000449A00C04498FC013197F1F74398449A5E
:1002C00000C044980197F1F788E20E94BC0088E0E2
:1002D0000E94BC000E94E40086E00E94BC00812FC6
:1002E0000E94BC001F9108951F920F920FB60F92AB
:1002F00011242F938F939F9382EB86BD80912D08BD
:1003000020B1209528278091C6078223809580936D
:10031000C6079091C507922398279093C50782231B
:10032000892390912D08982790932D0820912C08CF
:1003300090912D088923822B80932C0880912D0881
:10034000877819F482E38093C4078091C4078150B1
:100350008093C407882359F484E18093C407909163
:10036000C70780912D088778892B8093C7079F91B5
:100370008F912F910F900FBE0F901F901895F894AA
:1003800090912C08892390912C08982790932C0801
:1003900078940895F8949091C70789239091C7079E
:1003A00098279093C70778940895F89490912D0812
:1003B000F89420912C0890958923822390912C0801
:1003C000982790932C0878940895982FF89480910A
:1003D000C70798238091C70789278093C707789418
:1003E000F89480912C08892390912C089827909359
:1003F0002C08789408951F920F920FB60F92112433
:100400002C980F900FBE0F901F9018951092C5005A
:1004100023E32093C40096E09093C200E1ECF0E067
:100420008081886080838081806180831092CD008C
:100430002093CC009093CA00E9ECF0E080818860C2
:1004400080838081806180830895982F672B39F4A1
:100450008091C00085FFFCCF9093C60008958091E5
:10046000C80085FFFCCF9093CE0008950F931F9393
:10047000CF93DF93EC018B0104C0B8010E942502E9
:10048000219688818823C9F7DF91CF911F910F9121
:100490000895009739F48091C00087FFFCCF8091C8
:1004A000C6000BC0019719F02FEF3FEF08C08091F5
:1004B000C80087FFFCCF8091CE00282F30E0C90113
:1004C0000895EF92FF920F931F93CF93DF938C01C8
:1004D0007B01C0E0D0E0C7010E9449028D3021F0CD
:1004E000F80181938F012196C436D10524F48D3013
:1004F00011F08A3081F7F8011082DF91CF911F91BE
:100500000F91FF90EF90089580E091E060E070E03F
:100510000E943602089541E050E0A8ECB0E061E0AE
:1005200070E021C0FD013197F1F70197D9F725B1AE
:10053000CB01042E02C0880F991F0A94E2F7809520
:10054000822385B925B141505040CB01042E02C011
:10055000880F991F0A94E2F7282B25B94E5F5F4F49
:100560004930510519F080E293E0DCCF089581B164
:1005700011B882B18FEF82B985E085BD83EF86BD6A
:10058000EEE6F0E08081816080837894089585B103
:10059000880F8E3F08F4816085B90895F894A89576
:1005A000E0E6F0E080818861808389E6808378944A
:1005B00008950F931F938B010E94E4008EE191E058
:1005C0000E942001C8010E9420018EEE92E0A0ED61
:1005D000B7E01197F1F70197D1F71F910F910895A7
:1005E00089E291E00E9420018AE391E00E942001CB
:1005F0008CE491E00E942001F89490912C0898706E
:1006000080912C08892780932C087894992331F0C5
:100610008AE691E061E070E00E9436020895CF9290
:10062000DF92EF92FF920F931F93DF93CF93CDB79B
:10063000DEB761970FB6F894DEBF0FBECDBF6C0179
:1006400082E390E3A0E3B0E08E839F83A887B9871D
:100650001B861A86DE011C96E0EAF1E085E0019037
:100660000D928150E1F7198A82E390E3A0E3B0E0B4
:1006700089839A83AB83BC831D8284E0E82EF12CAE
:10068000A0E0B0E09E012A5F3F4FF601EE0DFF1D96
:100690008081863441F0F901EA0FFB1F80831196B7
:1006A0000894E11CF11CA630B10524F4882311F054
:1006B000863459F78E010A5F1F4FA00FB11F1C929D
:1006C00083E791E00E942001C8010E94200180E898
:1006D00091E00E9420010894E11CF11CA0E0B0E030
:1006E0009E01245F3F4FF601EE0DFF1D8081823594
:1006F00041F0F901EA0FFB1F80830894E11CF11C13
:100700001196A630B10524F4882311F0823559F7EB
:100710008E01045F1F4FA00FB11F1C9282E891E071
:100720000E942001C8010E94200180E891E00E94FF
:100730002001C7010196A0E0B0E0AE014F5F5F4F1E
:10074000F601E80FF91F2081233531F0FA01EA0F95
:10075000FB1F208301961196A430B10524F42223B7
:1007600011F0233569F78E010F5F1F4FA00FB11FE6
:100770001C928FE891E00E942001C8010E94200194
:1007800080E891E00E9420018CE991E060E070E057
:100790000E94360261960FB6F894DEBF0FBECDBF41
:1007A000CF91DF911F910F91FF90EF90DF90CF904D
:1007B00008951F920F920FB60F9211242F933F931B
:1007C0004F935F936F937F938F939F93AF93BF9359
:1007D000EF93FF9386EA91E00E94200185B190E2B9
:1007E000892785B9FF91EF91BF91AF919F918F912B
:1007F0007F916F915F914F913F912F910F900FBE1D
:100800000F901F9018951F920F920FB60F92112400
:100810002F933F934F935F936F937F938F939F9308
:10082000AF93BF93EF93FF938DEC91E00E94200173
:1008300085B190E2892785B9FF91EF91BF91AF9182
:100840009F918F917F916F915F914F913F912F91E8
:100850000F900FBE0F901F901895EF92FF920F937D
:100860001F93CF93DF93EC0186B590E00E94DC0CE0
:1008700090EDE92E97E0F92E17C00E94D70C61EF9A
:1008800070E00E94220C8C01065F1F4F88810E943D
:10089000EC0080E090E004C0F7013197F1F7019699
:1008A00080179107CCF321968881882331F7DF9157
:1008B000CF911F910F91FF90EF90089588EE93E0F4
:1008C00028EC30E0F9013197F1F70197D9F784EF7F
:1008D00091E00E942D0480E797E128EC30E0F901D7
:1008E0003197F1F70197D9F70E94E40080E092E098
:1008F0000E942D0408950E94CE028FEF84B985B91D
:10090000E3E7F0E0808180618083E8E6F0E08081C9
:10091000886080830E948B023F9A88B1807888B972
:100920008EE00E943A010E945E040E94B7020E947B
:10093000060208950F931F93CF93DF938C01C0E0BD
:10094000D0E0DE011196FD01E853F84FE081EC3272
:1009500011F4DE0103C0C00FD11FE883A431B1053B
:1009600034F4EE2321F0EC3211F0ED01EACFA00FC8
:10097000B11F1C92C8010E94050D29E030E040E043
:1009800050E00E94350CCA01B901A8012AE030E00C
:100990000E946F0DDF91CF911F910F910895CF921B
:1009A000DF92EF92FF920F931F93CF93DF938C010F
:1009B000EB016A0186E092E00E94E70C892B61F46A
:1009C00088E092E00E94200186E092E00E942001EF
:1009D00080E192E00E94200186E092E00E94E70C14
:1009E000019761F488E092E00E94200186E092E0A5
:1009F0000E9420018DE192E00E9420018AE292E0B3
:100A00000E942001CE010E942001A0E0B0E0F80188
:100A1000EA0FFB1F83818C3229F0FE01EA0FFB1FD6
:100A200080831196A431B10524F4882311F08C320F
:100A300071F7AC0FBD1F1C92CE010E94050D27EC73
:100A400035E141E050E00E94030C20E034E040E05A
:100A500050E00E94350C122F032FF42EE52E622F4A
:100A6000732F842F952F20E23CE140E050E00E945C
:100A7000350CCA01B901A6012AE030E00E946F0DD1
:100A8000612F702F8F2D9E2DAE012AE030E00E9445
:100A90006F0DDF91CF911F910F91FF90EF90DF903D
:100AA000CF900895CF92DF92EF92FF920F931F9312
:100AB000CF93DF936C017A018B01CFEFDFEF08C09A
:100AC000C601A7010E94400D0E5F1F4F009749F01D
:100AD0002196F801608171816115710589F7C3E67E
:100AE000D0E0CE01DF91CF911F910F91FF90EF9059
:100AF000DF90CF900895DF93CF93CDB7DEB72A97DD
:100B00000FB6F894DEBF0FBECDBFDE011196E4EF45
:100B1000F6E02AE001900D922150E1F7BE016F5FEF
:100B20007F4F43E050E00E9452058130910561F013
:100B3000823091051CF4892B51F012C0823091054E
:100B400049F0039769F409C021E030E00BC020E0D0
:100B500030E008C022E030E005C023E030E002C011
:100B60002EEF3FEFC9012A960FB6F894DEBF0FBEF5
:100B7000CDBFCF91DF9108950F931F93DF93CF9354
:100B8000CDB7DEB72A970FB6F894DEBF0FBECDBF44
:100B90008C01DE011196E6E1F7E08AE001900D920A
:100BA0008150E1F78091C2079091C307892BC1F46E
:100BB00081E090E09093C3078093C20781E392E0C5
:100BC00060E070E00E94360280E592E060E070E054
:100BD0000E9436028CE692E060E070E00E943602ED
:100BE000C801BE016F5F7F4F42E050E00E94520596
:100BF0008130910561F0823091051CF4892B21F040
:100C00000FC004976CF41EC00E94E4001BC080E972
:100C100092E00E94200185EA92E060E070E010C05E
:100C2000C8010E94200184EB92E00E942001C801CB
:100C300061E070E00E94360280E891E061E070E0DF
:100C40000E9436022A960FB6F894DEBF0FBECDBFC3
:100C5000CF91DF911F910F9108950F931F93DF9311
:100C6000CF93CDB7DEB7A0970FB6F894DEBF0FBE17
:100C7000CDBF8C01DE011B96E9E7F7E086E101902C
:100C80000D928150E1F7C801BE01655F7F4F42E0E0
:100C900050E00E94520584309105C1F185309105E4
:100CA00084F48130910529F1823091051CF4892B5F
:100CB000E9F065C082309105F9F0039709F05FC053
:100CC0001EC08730910581F1883091053CF4853054
:100CD000910501F1069709F052C023C088309105B3
:100CE00009F43FC0099709F04AC046C08DEB92E075
:100CF0004FC00E94E4004EC08FEB92E049C082ECEE
:100D000092E00E9420010E94840244C0C8010E9417
:100D10000F0340C086ED92E00E9420018CE991E033
:100D200026C08BEE92E034C08091C0079091C1073D
:100D300001969093C1078093C0078E010F5F1F4FEC
:100D4000B8014AE050E00E944E0DC8010E94200107
:100D50008AEF92E00E94200182E093E061E070E07F
:100D600008C08DE093E00E94200182E193E060E002
:100D700070E00E9436020EC086E193E009C08BE26B
:100D800093E00E942001C8010E94200181E393E0CA
:100D90000E942001A0960FB6F894DEBF0FBECDBF13
:100DA000CF91DF911F910F910895DF93CF93CDB72E
:100DB000DEB72A970FB6F894DEBF0FBECDBFDE01B7
:100DC0001196E1EBF7E02AE001900D922150E1F756
:100DD000BE016F5F7F4F41E050E00E9452058130BD
:100DE000910561F0823091051CF4892BF1F015C05A
:100DF0008230910541F0039781F408C08EE393E0BF
:100E000060E070E007C00E94E4000FC082E493E05D
:100E100061E070E00E94360208C08AE090E0A0ED38
:100E2000B7E01197F1F70197D1F72A960FB6F8942A
:100E3000DEBF0FBECDBFCF91DF910895CF92DF927D
:100E4000EF92FF920F931F93DF93CF93CDB7DEB74F
:100E5000CD55D0400FB6F894DEBF0FBECDBF6C01AC
:100E6000DE011796EFE9F7E08EE001900D928150D8
:100E7000E1F7C601BE01695F7F4F43E050E00E9489
:100E8000520582309105C9F08330910534F4009702
:100E900071F0019709F001C10DC084309105F9F09E
:100EA000843091058CF0059709F0F7C041C083E5C7
:100EB00093E0F8C00E94E400F7C08DE593E00E9443
:100EC00020018DE693E0E4C08AE090E0A0EDB7E079
:100ED0001197F1F70197D1F78EE793E0D5C083E83A
:100EE00093E00E94200188E993E061E070E00E94B5
:100EF000360282E390E0A0EDB7E01197F1F7019799
:100F0000D1F78091C80087FF04C081E090E00E9483
:100F10006408C6016BE973E00E94370D009709F47D
:100F2000B5C08EE993E00E94200183EB93E0B0C04E
:100F30008AE090E0A0EDB7E01197F1F70197D1F7C3
:100F400035E1E32EF12CEC0EFD1E81E2D7011D925E
:100F50008A95E9F7FE01319686E0DF011D928A95B8
:100F6000E9F7C601B701AF010E94CF048E010A5C08
:100F70001F4F88E2F80111928A95E9F78DE48EAB54
:100F800081E48FAB80E288AF19AEC801B7010E943F
:100F90002C0DC80160E871E00E942C0D88EB93E0F5
:100FA0000E942001C8010E942001C80161E070E098
:100FB0000E94360202E310E0F801A0EDB7E01197BD
:100FC000F1F70197D1F78091C80087FF6DC081E0EC
:100FD00090E00E94640888E993E061E070E00E947C
:100FE0003602F801A0EDB7E01197F1F70197D1F7BC
:100FF0008091C80087FF05C081E090E00E946408EE
:101000002CC08DEB93E00E94200127C088E993E07B
:1010100061E070E00E943602F701A0EDB7E01197A1
:10102000F1F70197D1F78091C80087FF10C081E0E8
:1010300090E00E9464080E94E4008EEC93E00E941D
:101040002001C8010E94200180E891E002C08FEDDC
:1010500093E00E942001A89506C022E3E22EF12C25
:101060008E010B5E1F4FC6016EEE73E00E94370DBE
:10107000009761F281EF93E00E942001CE01459636
:101080000E9420018DEF93E00E9420018CE991E005
:1010900060E070E00E94360207C088E094E00E94A1
:1010A0002001C6010E942001C35ADF4F0FB6F894F9
:1010B000DEBF0FBECDBFCF91DF911F910F91FF908B
:1010C000EF90DF90CF9008950F931F938C0188ECE1
:1010D00097E0B8010E9461020130110529F488EC03
:1010E00097E00E94D50644C08091DB069091DC0613
:1010F0008E5F9F4F31F48FEF9FEF9093DC068093CC
:10110000DB068091DB069091DC068F5F9F4F41F4F8
:1011100088EC97E00E947B059093DC068093DB06C9
:101120008091DB069091DC06892B21F488EC97E016
:101130000E941E078091DB069091DC06019721F446
:1011400088EC97E00E942D068091DB069091DC06EA
:10115000029721F488EC97E00E94E6088091DB0674
:101160009091DC06039721F488EC97E00E94BC057F
:101170001F910F9108950F931F938C0161E070E010
:101180000E9436020E94E40083E194E00E94200164
:10119000C8010E94200180E891E00E94200184E6BD
:1011A00090E0A0EDB7E01197F1F70197D1F781E05A
:1011B00090E00E94640888EE93E0A0EDB7E01197FC
:1011C000F1F70197D1F71F910F910895AF92BF9258
:1011D000CF92DF92EF92FF920F931F93DF93CF9303
:1011E000CDB7DEB7C356D0400FB6F894DEBF0FBE02
:1011F000CDBF7C01DE011196EAE4F7E08AE10190BF
:101200000D928150E1F78E01045C1F4F88E2D801F6
:101210001D928A95E9F78DE48CAF81E48DAF80E271
:101220008EAF1FAEC701BE016F5F7F4F41E050E040
:101230000E945205873091056CF4833091050CF0C3
:10124000F5C08130910501F18230910504F5892BBB
:10125000C1F0E1C08930910509F4CFC08A30910511
:1012600044F48730910509F4BDC0089709F0D3C054
:10127000DDC08A30910509F4CBC00B9709F0CBC0D3
:10128000D5C00E94E400D2C080E992E0CDC084E6DF
:1012900090E0A0EDB7E01197F1F70197D1F7C80101
:1012A000BE01655E7F4F0E942C0DC80160E871E0B1
:1012B0000E942C0DC80161E070E00E94360202E33A
:1012C00010E0F801A0EDB7E01197F1F70197D1F721
:1012D0008091C80087FF16C081E090E00E946408FA
:1012E00088E993E061E070E00E943602F801A0ED29
:1012F000B7E01197F1F70197D1F78091C8008823E3
:101300004CF403C08AE194E08FC081E090E00E9439
:1013100064084CC08DEB93E00E94200147C08FE22F
:1013200094E061E070E00E943602F501A0EDB7E0C4
:101330001197F1F70197D1F78091C80087FF10C08E
:1013400081E090E00E9464080E94E40082E394E05F
:101350000E942001C7010E94200187E494E002C09E
:101360008FED93E00E942001A89588E993E061E069
:1013700070E00E943602F601A0EDB7E01197F1F798
:101380000197D1F78091C80087FF0AC081E090E003
:101390000E946408C8010E94200180E891E002C018
:1013A0008FED93E00E942001A89509C054E6A52E78
:1013B000B12C42E3C42ED12C8E01055E1F4FC70114
:1013C0006EEE73E00E94370D009709F4A8CF81EF0D
:1013D00093E00E942001CE014B960E9420018DEFE8
:1013E00093E00DC0FE017B9681E2DF011D928A959C
:1013F000E9F7CF010E949A0419C08CE594E00E949D
:1014000020018BE494E060E070E00E9436020EC0A0
:1014100081E794E009C086E894E00E942001C701BA
:101420000E94200189E894E00E942001CD59DF4FFD
:101430000FB6F894DEBF0FBECDBFCF91DF911F91E5
:101440000F91FF90EF90DF90CF90BF90AF900895F5
:101450000E947B04A895F89490912C08917080913B
:101460002C08892780932C087894992361F4F894A8
:101470009091C70791708091C70789278093C7070C
:101480007894992351F08EE894E00E94200185ED34
:1014900096E068E876E00E94490BF89490912C0859
:1014A000927080912C08892780932C087894992336
:1014B00021F085ED96E00E94570BF89490912C084E
:1014C000947080912C08892780932C087894992314
:1014D00021F085ED96E00E94680BF89490912C081D
:1014E000987080912C08892780932C0878949923F0
:1014F00061F4F8949091C70798708091C707892785
:101500008093C7077894992321F085ED96E00E9497
:10151000910BF89490912C08907180912C08892758
:1015200080932C087894992361F4F8949091C707DC
:1015300090718091C70789278093C7077894992372
:1015400021F085ED96E00E94C40B8091C00087FFDA
:1015500004C080E090E00E9464088091C80087FF8A
:1015600079CF81E090E00E94640874CF9F92AF929F
:10157000BF92CF92DF92EF92FF920F931F93CF9380
:10158000DF937C01FC01C480D580BB24992452C028
:10159000E92DF0E0E217F3070CF06BC08F01040FA8
:1015A000151F9394F801EE0FFF1FE00FF11F63E08A
:1015B000EE0FFF1F6A95E1F7EC0DFD1D858181FDA2
:1015C000E7CFF70161816B0D80810E94D000F701A8
:1015D000A380AA94F601218130E02F5F3F4F8081E4
:1015E00090E0890D911D2817390711F48AE201C096
:1015F00080E20E94EC00E801CC0FDD1FC00FD11F7C
:10160000219683E0CC0FDD1F8A95E1F7CC0DDD1D1F
:1016100010E006C08991882331F00E94EC001F5F22
:101620001A15C0F306C080E20E94EC001F5F1A1575
:10163000D0F3B394F7018281B816D8F4F601808113
:10164000482F50E08281282F30E0241B350BA0CF9B
:10165000F70161816B0D80810E94D00010E004C011
:1016600080E20E94EC001F5FF70183811817C0F32E
:10167000B394F7018281B81658F3DF91CF911F918F
:101680000F91FF90EF90DF90CF90BF90AF909F9021
:101690000895FC01DB018481958114969C938E93BF
:1016A000139775836483CF010E94B60A0895DC0105
:1016B0001496ED91FC91159783819481009739F0F0
:1016C00015969C938E931497CD010E94B60A0895A7
:1016D000CF93DF93EC01AC81BD8111962C911197D2
:1016E0002223E1F02150822F90E0FC01EE0FFF1F3A
:1016F000E80FF91F83E0EE0FFF1F8A95E1F7EA0F6D
:10170000FB1F858181FDECCF11962C9311978C9155
:10171000281708F42C93CE010E94B60ADF91CF91CE
:101720000895CF93DF93EC01AC81BD8111962C918C
:10173000119712969C9112972F5F291710F5422F3F
:1017400050E0FA01EE0FFF1FE40FF51F63E0EE0F0C
:10175000FF1F6A95E1F7EA0FFB1F858181FDECCF42
:1017600011962C9311973A818C9190E0830F911DE3
:10177000481759071CF0231B2F5F2C93CE010E94A2
:10178000B60ADF91CF9108950F931F93CF93DF9304
:101790008C01FC01C481D581898190E09C01220FDC
:1017A000331F280F391FD901F3E0AA0FBB1FFA9589
:1017B000E1F7AC0FBD1F15968C91159780FF08C0FF
:1017C0005B966D917C915C97C8010E94490B13C098
:1017D000C9010196E3E0880F991FEA95E1F7C80F68
:1017E000D91F1696ED91FC9117975B968D919C9160
:1017F0005C97BE010995C8010E94B60ADF91CF919E
:101800001F910F910895629FD001739FF001829FF5
:10181000E00DF11D649FE00DF11D929FF00D839F7F
:10182000F00D749FF00D659FF00D9927729FB00D1C
:10183000E11DF91F639FB00DE11DF91FBD01CF012F
:101840001124089597FB092E07260AD077FD04D0AE
:1018500027D006D000201AF4709561957F4F089527
:10186000F6F7909581959F4F089597FB092E0526D1
:101870000ED057FD04D028D00AD0001C38F4509563
:101880004095309521953F4F4F4F5F4F0895F6F7A4
:1018900090958095709561957F4F8F4F9F4F0895DC
:1018A000AA1BBB1B51E107C0AA1FBB1FA617B70786
:1018B00010F0A61BB70B881F991F5A95A9F78095A2
:1018C0009095BC01CD010895A1E21A2EAA1BBB1B65
:1018D000FD010DC0AA1FBB1FEE1FFF1FA217B307FC
:1018E000E407F50720F0A21BB30BE40BF50B661F12
:1018F000771F881F991F1A9469F7609570958095D6
:1019000090959B01AC01BD01CF010895A0E0B0E02E
:10191000ECE8FCE00C94D80DEC01A880B980CA80FA
:10192000DB80A114B104C104D10441F484E2A82EE7
:1019300089EDB82E8BE5C82E87E0D82EC601B501FB
:101940002DE133EF41E050E00E94350C27EA31E40D
:1019500040E050E00E94030C7B018C01C601B50100
:101960002DE133EF41E050E00E94350CCA01B9018E
:101970002CEE34EF4FEF5FEF0E94030C6E0D7F1DD6
:10198000801F911F97FF04C06150704080409048B5
:10199000688379838A839B839B013F77C901CDB795
:1019A000DEB7EAE00C94F40D0E94860C08958BEBF0
:1019B00097E00E94860C0895A0E0B0E08093BB07FA
:1019C0009093BC07A093BD07B093BE070895FC0198
:1019D00088279927E89421912032E9F3293010F0E3
:1019E0002E30C8F32B3241F02D3239F4689404C004
:1019F0000E94B80D820F911D219120532A30C0F30F
:101A00001EF4909581959F4F08951F93FC0199278F
:101A10008827BC01E89411911032E9F3193010F0D5
:101A20001E30C8F31B3251F01D3249F4689406C0D1
:101A30000E94A30D610F711D811D911D1191105305
:101A40001A30B0F33EF490958095709561957F4F74
:101A50008F4F9F4F1F910895FB01DC010D900020D7
:101A6000E9F7119701900D920020E1F70895FB012D
:101A7000DC018D91019080190110D9F3990B089523
:101A8000FB01DC014150504030F08D9101908019F4
:101A900019F40020B9F7881B990B0895FB019F01E9
:101AA000E8944230C4F04532B4F44A3029F497FB4C
:101AB0001EF4909581959F4F642F77270E94500CBC
:101AC000805D8A330CF0895D8193CB010097A1F78B
:101AD00016F45DE251931082C9010C94C00DFA0115
:101AE000CF93FF93EF93223044F1253234F5C22F88
:101AF000E894CA3049F497FB3EF490958095709530
:101B000061957F4F8F4F9F4F2C2F332744275527A9
:101B1000FF93EF930E94640CEF91FF91605D6A3335
:101B20000CF0695D6193B901CA016050704080405A
:101B3000904051F716F4CDE2C19310828F919F919E
:101B4000CF910C94C00D592F482F372F262F660F99
:101B5000771F881F991F660F771F881F991F620FB5
:101B6000731F841F951F660F771F881F991F089585
:101B70007AE0979F902D879F802D910D11240895D5
:101B8000DC01FC01672F71917723E1F7329704C0E4
:101B90007C916D9370836291AE17BF07C8F308956F
:101BA0002F923F924F925F926F927F928F929F926D
:101BB000AF92BF92CF92DF92EF92FF920F931F935B
:101BC000CF93DF93CDB7DEB7CA1BDB0B0FB6F8940C
:101BD000DEBF0FBECDBF09942A88398848885F844C
:101BE0006E847D848C849B84AA84B984C884DF80BD
:101BF000EE80FD800C811B81AA81B981CE0FD11DA1
:101C00000FB6F894DEBF0FBECDBFED010895F89476
:021C1000FFCF04
:101C1200203939393939393939392C2020202020D5
:101C220020202020302C4B2C4B2C520D0A005365C7
:101C32006C65637465643A20004D616E75656C6C09
:101C42006572204D6F6475730A004175666E616836
:101C52006D65207374617274656E0A004E6163680B
:101C6200204175666E61686D65205357332064723A
:101C7200EFBFBD636B656E210A004D2031363030F7
:101C8200300D00315F4D494E5F53504545443A0097
:101C92000A00315F4D41585F53504545443A003187
:101CA2005F4143435F53504545443A00300D0A00BB
:101CB2003230303000004E656761746976652045C8
:101CC2006E736368616C74657220506F73697469B6
:101CD2006F6E2045727265696368742100506F737C
:101CE200697469766520456E736368616C746572A8
:101CF20020506F736974696F6E20457272656963F3
:101D02006874210048656C6C6F204A6F65210A0077
:101D1200526561647900300041636873653A20005E
:101D22002028526F746174696F6E290A0020284856
:101D32006F656865292020200A00546573743A2073
:101D42000057696C6C6B6F6D6D656E20696D205408
:101D520065726D696E616C204D6F6475730D0A005A
:101D62006DEFBFBD676C6963686520426566656833
:101D72006C652073696E643A200D0A002041202DA3
:101D8200204D6F746F727374617475730D0A204DF8
:101D9200202D204D6F76652053746570730D0A00F7
:101DA200546573742062657374616E64656E20207D
:101DB2002020200A00546573742062657374616E7A
:101DC20064656E00202020202020200A00210021AE
:101DD2005400537461747573616266726167652041
:101DE200202020200A00483A2020202020202020E5
:101DF2002020202020202020200A004D6F746F72A6
:101E0200207374617274656E0A005F4D6F7665218E
:101E12000A004D203136303030300D0A00522F4248
:101E22003F00520D0A00483120656D7066616E6791
:101E3200656E202020202020200A00555F423A2093
:101E42000021454E44202020202020200A00310D70
:101E52000A00546573742062657374616E64656E02
:101E62000A0D00526573657276650D0A005465733A
:101E7200742062657374616E64656E0A00546573E2
:101E8200742062657374616E64656E0D0A00496E3A
:101E92006974005374617475736162667261676517
:101EA2003A20202020200A00410A00302300466503
:101EB200686C67657363686C6167656E20202020BB
:101EC200200A002D310D0A00506F733A004B6569EC
:101ED2006E65204265776567756E67210A00476502
:101EE2006865207A752057696E6B656C3A20004BE5
:101EF20065696E6520416E74776F72740A003123D2
:101F020000506F736974696F6E3A200A002045723F
:101F12007265696368740A004953454C3A2020206F
:101F2200200A0053656E643A200042656665686C5B
:101F3200206E2E206265737461657469670A0057AA
:101F42000A00506F736974696F6E28416B742F4772
:101F52006573293A200A00202F20000D0A3E200D29
:101F62000A3E200D0A3E200D0A3E20005370656590
:101F72006420736574202020202020202020200A45
:101F8200004563686F206F66662020202020202095
:101F9200202020200A005A3A002020200A00426510
:101FA2007472657465204D656E7565210A004D2059
:101FB2003132353030300A004D202D31323530305B
:101FC200300A004D2031303030300A004D202D31A2
:101FD200303030300A004D4120300A000000050048
:101FE2000000BB082B393000000000000000000098
:101FF200000000000000009E0400BB082D393000E4
:10200200000000000000000000000000000000A826
:102012000400BB082B31302E3030302053636872FD
:1020220069747465000000B30400BB082D31302EC2
:10203200303030205363687269747465000000BCEC
:102042000400BB0847656865207A756D2055727378
:102052007072756E670000C604324D203530303024
:1020620030300A00324D202D3530303030300A0009
:10207200324D20313030303030300A00324D202D98
:10208200313030303030300A00324D4120300A00D9
:10209200000005000000BB082B3530302E303030F8
:1020A2000000000000000000000000490500BB081D
:1020B2002D3530302E30303000000000000000009E
:1020C200000000540500BB082B312E3030302E307A
:1020D2003030205363687269747465600500BB0810
:1020E2002D312E3030302E303030205363687269FB
:1020F2007474656C0500BB0847656865207A756D68
:10210200205572737072756E6700007905440A007B
:10211200510A004E20310A003F0A0000000400006C
:1021220000BB084D6F746F72737461747573000035
:10213200000000000000980300BB085365747A6534
:10214200205572737072756E670000000000FD0505
:1021520000BB08577269746520746F204545505260
:102162004F4D00000000000600BB084E65776C6909
:102172006E65203100000000000000000000030630
:1021820000BB08506172612E206175736C657365C6
:102192006E000000000008060000030000010000BD
:1021A2004265776567656E202D20526F7461746990
:1021B2006F6E00CC040100004265776567656E2092
:1021C2002D20486F65686500000000800501000051
:1021D2004B6F6E6669677572696572656E000000A5
:1021E2000000000B06000004130000FFFF40303126
:1021F20000513A004543484F3000215465726D69E1
:102202006E616C00DD06E106E406EA060000214389
:102212004C53005465737400214D616E75616C00FE
:10222200215959595900FE060307080710070000F3
:10223200474F005741495400215858585800434FBE
:102242004D4558004D41310044313132350041385D
:1022520000563800505345543000FE06030720074D
:10226200230728072E07340738073E074107E406ED
:1022720044070000546573743200443A3200483A0D
:102282000047004D3A004831006407FE060307E1AB
:10229200066A076E0771077307BD027607000058CA
:1022A200585858585858004030520040304D008F0E
:1022B20007FE060307DD0697079B0700002300457C
:1022C20000AD07AF07FE0603070000010000000093
:00000001FF
