:100000000C94A1000C94BE000C94BE000C94BE0095
:100010000C94BE000C94BE000C94BE000C94E6023E
:100020000C9491020C94BE000C94BE000C94BE0083
:100030000C94BE000C94BE000C94BE000C94BE0048
:100040000C94BE000C94BE000C94B8010C94BE003D
:100050000C94BE000C94BE000C94BE000C94BE0028
:100060000C94BE000C94BE000C94BE000C94BE0018
:100070000C94BE000C94BE000C94BE00496E6974D2
:100080000A00000000000000000000000000004026
:1000900030310000000000000000000000000000FF
:1000A0000000000000000000000000000000000050
:1000B00000000000000000300D0A000000000000F9
:1000C0000000000000000000000000000000000030
:1000D00000000000000000000000000000000048D8
:1000E0006F6D650A000000000000000000000000C5
:1000F000000040303100000000000000000000005F
:1001000000000000000000000000000000000000EF
:1001100000000000000000000000300D0A00000098
:1001200000000000000000000000000000000000CF
:1001300000000000000000000000000000000000BF
:10014000000011241FBECFEFD8E0DEBFCDBF17E007
:10015000A0E0B1E0E8E3FCE102C005900D92A83612
:10016000B107D9F717E0A8E6B7E001C01D92A83D96
:10017000B107E1F70E94E5090C941A0E0C940000F7
:10018000282F662311F0469A01C04698459887B1FA
:100190008F6087B998B1907F822F82958F70892B5D
:1001A00088B9449A00C044982F70292B28B9449AE2
:1001B00000C044989F6098B90895882311F0469A2A
:1001C00001C04698459A87B1807F87B9449A00C09C
:1001D00096B1449800C0449A00C086B18F70929541
:1001E000907F4498892B089580E00E94DD0087FD70
:1001F000FBCF82E090E00197F1F780E00E94DD0004
:1002000008951F93182F0E94F400812F60E00E9430
:10021000C0001F9108951F93182F0E94F400812F92
:1002200061E00E94C0001F910895662311F4805878
:1002300009C0613011F4805405C0623011F48C564D
:1002400001C08C520E94010108950E94F40090E0C8
:10025000089581E00E940101089582E00E94010159
:1002600008951F93182F0E94F400982F1A3099F4C4
:10027000843110F480E40BC08054843110F484E1A4
:1002800006C094519C3210F080E001C084E5805893
:100290000E94010118C0833111F480EC0BC083353A
:1002A00011F484E907C0873211F484ED03C0873666
:1002B00021F480E860E00E94C0000E94F400812FD9
:1002C00061E00E94C0001F910895CF93DF93EC017D
:1002D00002C00E94310189918823D9F7DF91CF9123
:1002E0000895CF93DF93EC0102C00E943101FE011B
:1002F000219684918823C9F7DF91CF9108951F93A8
:10030000182F87B18F6087B93E9A3D9A3C9A80E852
:100310009EE30197F1F7419A409A449A00C04498AD
:1003200080E893E10197F1F7449A00C0449880E493
:1003300090E0FC013197F1F7449A00C04498FC0129
:100340003197F1F74098449A00C044980197F1F72B
:1003500088E20E94010188E00E9401010E942901B7
:1003600086E00E940101812F0E9401011F910895E2
:100370001F920F920FB60F9211242F938F939F937A
:1003800082EB86BD8091D70720B1209528278091E8
:100390007007822380958093700790916F07922356
:1003A000982790936F07822389239091D7079827E6
:1003B0009093D7072091D6079091D7078923822B56
:1003C0008093D6078091D707877819F482E38093CA
:1003D0006E0780916E07815080936E07882359F4D1
:1003E00084E180936E07909171078091D707877899
:1003F000892B809371079F918F912F910F900FBE42
:100400000F901F901895F8949091D607892390919A
:10041000D60798279093D60778940895F8949091EA
:1004200071078923909171079827909371077894A9
:100430000895F8949091D707F8942091D607909555
:10044000892382239091D60798279093D607789492
:100450000895982FF89480917107982380917107DF
:100460008927809371077894F8948091D60789231F
:100470009091D60798279093D6077894089541E0F5
:1004800050E0A8ECB0E061E070E021C0FD013197E0
:10049000F1F70197D9F725B1CB01042E02C0880FDF
:1004A000991F0A94E2F78095822385B925B14150BE
:1004B0005040CB01042E02C0880F991F0A94E2F726
:1004C000282B25B94E5F5F4F4930510519F080E266
:1004D00093E0DCCF089581B111B882B18FEF82B97A
:1004E00085E085BD83EF86BDEEE6F0E0808181602A
:1004F00080837894089585B1982F990F907F8770A5
:10050000982B903F08F4986095B90895F894A895B1
:10051000E0E6F0E080818861808389E680837894DA
:1005200008951F920F920FB60F9211248F939F93ED
:1005300085B191E0892785B99F918F910F900FBE6A
:100540000F901F9018951092C50023E32093C400CC
:1005500096E09093C200E1ECF0E0808188608083B7
:100560008081806180831092CD002093CC00909395
:10057000CA00E9ECF0E0808188608083808180613E
:1005800080830895982F672B39F48091C00085FFF0
:10059000FCCF9093C60008958091C80085FFFCCFE2
:1005A0009093CE0008950F931F93CF93DF93EC01A8
:1005B0008B0104C0B8010E94C20221968881882361
:1005C000C9F7DF91CF911F910F9108951F920F925C
:1005D0000FB60F9211242F933F934F935F936F9316
:1005E0007F938F939F93AF93BF93EF93FF9380E09D
:1005F00091E061E070E00E94D30285B191E089272B
:1006000085B9FF91EF91BF91AF919F918F917F91AC
:100610006F915F914F913F912F910F900FBE0F906F
:100620001F901895009739F48091C00087FFFCCF88
:100630008091C6000BC0019719F02FEF3FEF08C063
:100640008091C80087FFFCCF8091CE00282F30E03A
:10065000C9010895EF92FF920F931F93CF93DF93F9
:100660008C017B01C0E0D0E0C7010E9412038D30F5
:1006700021F0F80181938F012196C436D10524F42D
:100680008D3011F08A3081F7F8011082DF91CF911F
:100690001F910F91FF90EF900895A0E0B0E0FD0151
:1006A000EE58F84F22812C3229F0FC01EA0FFB1F93
:1006B00020831196A431B10524F4222311F02C32A9
:1006C00071F7A80FB91F1C9208950E9486028FEF40
:1006D00084B985B9E3E7F0E0808180618083E8E652
:1006E000F0E08081886080830E943F028EE00E945B
:1006F0007F010E9429010E942D010E946B020E942D
:10070000A3020895209168073091690787E220319C
:1007100038070CF047C083E0283E38071CF084E01F
:1007200090E014C0243631051CF083E090E00EC048
:100730002A3031051CF082E090E008C02115310517
:1007400019F480E090E002C081E090E02F5F3F4F1D
:1007500030936907209368078130910599F08230C2
:1007600091051CF4892B39F01AC08230910569F08B
:100770000397A9F40DC084E091E00E94650185E132
:1007800091E008C083E391E005C081E591E002C0FB
:100790008FE691E060E070E00E94D30208958DE85A
:1007A00091E0F8CF85E090E0D1CFCF92DF92EF9249
:1007B000FF920F931F93DF93CF93CDB7DEB761976F
:1007C0000FB6F894DEBF0FBECDBF6C0182E390E39D
:1007D000A0E3B0E08E839F83A887B9871B861A8623
:1007E000DE011C96E8EDF1E085E001900D9281506C
:1007F000E1F7198A82E390E3A0E3B0E089839A836A
:10080000AB83BC831D8284E0E82EF12CA0E0B0E035
:100810009E012A5F3F4FF601EE0DFF1D8081863459
:1008200041F0F901EA0FFB1F808311960894E11C47
:10083000F11CA630B10524F4882311F0863459F751
:100840008E010A5F1F4FA00FB11F1C928BEA91E02F
:100850000E946501C8010E94650188EB91E00E9439
:1008600065010894E11CF11CA0E0B0E09E01245F4A
:100870003F4FF601EE0DFF1D8081823541F0F901F9
:10088000EA0FFB1F80830894E11CF11C1196A6302F
:10089000B10524F4882311F0823559F78E01045FE5
:1008A0001F4FA00FB11F1C928AEB91E00E946501BF
:1008B000C8010E94650188EB91E00E946501C701B3
:1008C0000196A0E0B0E0AE014F5F5F4FF601E80F88
:1008D000F91F2081233531F0FA01EA0FFB1F208335
:1008E00001961196A430B10524F4222311F023358A
:1008F00069F78E010F5F1F4FA00FB11F1C9287EC8D
:1009000091E00E946501C8010E94650188EB91E0B9
:100910000E94650180916807909169070196909304
:1009200069078093680784ED91E060E070E00E94C1
:10093000D30261960FB6F894DEBF0FBECDBFCF9144
:10094000DF911F910F91FF90EF90DF90CF9008956E
:100950000F931F938B010E9429018EED91E00E945D
:100960006501C8010E9465018EEE92E0A0EDB7E03E
:100970001197F1F70197D1F71F910F91089589EE23
:1009800091E00E9465018AEF91E00E9465018CE090
:1009900092E00E946501F8949091D607987080913A
:1009A000D60789278093D6077894992331F08AE275
:1009B00092E061E070E00E94D30208950F931F93CC
:1009C000CF93DF938C01EB0183E392E00E94360D1D
:1009D000892B61F485E392E00E94650183E392E054
:1009E0000E9465018DE392E00E94650183E392E03D
:1009F0000E94360D019761F485E392E00E94650143
:100A000083E392E00E9465018AE492E00E9465011E
:100A100087E592E00E946501CE010E946501A0E099
:100A2000B0E0F801EA0FFB1F83818C3229F0FE0150
:100A3000EA0FFB1F80831196A431B10524F48823AB
:100A400011F08C3271F7AC0FBD1F1C92CE010E94C9
:100A5000360DAA2797FDA095BA2FBC01CD0127EC32
:100A600035E141E050E00E94520C20E030E140E0EE
:100A700050E00E94840CCA01B901AE012AE030E0C6
:100A80000E94970DDF91CF911F910F910895CF9202
:100A9000DF92EF92FF920F931F93CF93DF936C013E
:100AA0007A018B01CFEFDFEF08C0C601A7010E94DA
:100AB000680D0E5F1F4F009749F02196F801608185
:100AC00071816115710589F7C3E6D0E0CE01DF9130
:100AD000CF911F910F91FF90EF90DF90CF900895ED
:100AE000DF93CF93CDB7DEB72A970FB6F894DEBF6A
:100AF0000FBECDBFDE011196ECE9F6E02AE00190D1
:100B00000D922150E1F7BE016F5F7F4F43E050E04F
:100B10000E9447058130910561F0823091051CF4F7
:100B2000892B51F012C08230910549F0039769F486
:100B300009C021E030E00BC020E030E008C022E036
:100B400030E005C023E030E002C02EEF3FEFC901E6
:100B50002A960FB6F894DEBF0FBECDBFCF91DF91BE
:100B600008950F931F93DF93CF93CDB7DEB72A97E6
:100B70000FB6F894DEBF0FBECDBF8C01DE0111961B
:100B8000EEEBF6E08AE001900D928150E1F7809162
:100B90006C0790916D07892BC1F481E090E09093F0
:100BA0006D0780936C078EE592E060E070E00E9434
:100BB000D3028DE792E060E070E00E94D30289E901
:100BC00092E060E070E00E94D302C801BE016F5F56
:100BD0007F4F42E050E00E9447058130910561F06F
:100BE000823091051CF4892B21F00FC004976CF41E
:100BF0001EC00E9429011BC08DEB92E00E9465017E
:100C000082ED92E060E070E010C0C8010E946501D2
:100C100081EE92E00E946501C80161E070E00E94EF
:100C2000D30288EB91E061E070E00E94D3022A9643
:100C30000FB6F894DEBF0FBECDBFCF91DF911F91ED
:100C40000F9108950F931F93DF93CF93CDB7DEB726
:100C5000A0970FB6F894DEBF0FBECDBF8C01DE01AA
:100C60001B96E1E2F7E086E101900D928150E1F7F9
:100C7000C801BE01655F7F4F42E050E00E9447051A
:100C800084309105C1F18530910584F4813091055E
:100C900029F1823091051CF4892BE9F065C082307E
:100CA0009105F9F0039709F05FC01EC087309105E8
:100CB00081F1883091053CF48530910501F106976A
:100CC00009F052C023C08830910509F43FC009974C
:100CD00009F04AC046C08AEE92E04FC00E94290146
:100CE0004EC08CEE92E049C08FEE92E00E9465010A
:100CF0000E94820344C0C8010E94D50340C083E023
:100D000093E00E94650184ED91E026C088E193E0C4
:100D100034C080916A0790916B07019690936B079E
:100D200080936A078E010F5F1F4FB8014AE050E0C1
:100D30000E94760DC8010E94650187E293E00E943F
:100D400065018FE293E061E070E008C08AE393E020
:100D50000E9465018FE393E060E070E00E94D3029F
:100D60000EC083E493E009C088E593E00E9465012A
:100D7000C8010E9465018EE593E00E946501A0967E
:100D80000FB6F894DEBF0FBECDBFCF91DF911F919C
:100D90000F9108950F931F93DF93CF93CDB7DEB7D5
:100DA0002A970FB6F894DEBF0FBECDBF8C01DE01CF
:100DB0001196E9E5F7E08AE001900D928150E1F7A4
:100DC000C801BE016F5F7F4F41E050E00E944705C0
:100DD0008130910579F0823091051CF4892B39F02E
:100DE0001AC08230910589F00397A9F411C08BE6EF
:100DF00093E01AC088E793E00E9465018FE793E0D3
:100E000060E070E00E94D30211C00E9429010EC070
:100E100083E893E009C083E993E00E946501C8017B
:100E20000E9465018DE993E00E9465012A960FB644
:100E3000F894DEBF0FBECDBFCF91DF911F910F9110
:100E40000895CF92DF92EF92FF920F931F93DF935B
:100E5000CF93CDB7DEB7C755D0400FB6F894DEBFFD
:100E60000FBECDBF6C01DE011196E7E4F7E08EE026
:100E700001900D928150E1F7C601BE016F5F7F4F77
:100E800043E050E00E94470582309105C9F083306D
:100E9000910534F4009771F0019709F0F9C00DC085
:100EA00084309105F9F0843091058CF0059709F0B4
:100EB000EFC041C080EA93E0F0C00E942901EFC07A
:100EC00083E893E00E9465018AEA93E0DCC08AE04F
:100ED00090E0A0EDB7E01197F1F70197D1F78BEB18
:100EE00093E0CDC080EC93E00E94650185ED93E036
:100EF00061E070E00E94D30282E390E0A0EDB7E0F1
:100F00001197F1F70197D1F78091C80087FF04C0CE
:100F100081E090E00E945F08C60168ED73E00E94E6
:100F20005F0D009709F4ADC08BED93E00E94650161
:100F300080EF93E0A8C08AE090E0A0EDB7E01197C1
:100F4000F1F70197D1F72FE0E22EF12CEC0EFD1E08
:100F500081E2F70111928A95E9F7C601B7010E9473
:100F6000DE048E01005D1F4F88E2F80111928A9520
:100F7000E9F78DE488AB81E489AB80E28AAB1BAAF8
:100F8000C801B7010E94540DC80168EB71E00E94CE
:100F9000540D85EF93E00E946501C8010E94650130
:100FA000C80161E070E00E94D30202E310E0F801A2
:100FB000A0EDB7E01197F1F70197D1F78091C80044
:100FC00087FF6DC081E090E00E945F0885ED93E0AF
:100FD00061E070E00E94D302F801A0EDB7E0119744
:100FE000F1F70197D1F78091C80087FF05C081E034
:100FF00090E00E945F082CC08AEF93E00E94650198
:1010000027C085ED93E061E070E00E94D302F70114
:10101000A0EDB7E01197F1F70197D1F78091C800E3
:1010200087FF10C081E090E00E945F080E942901C4
:101030008BE094E00E94650187E194E00E946501E5
:10104000C80102C082E294E00E946501A89506C032
:1010500092E3E92EF12C8E01015F1F4FC60161E37F
:1010600074E00E945F0D009761F284E394E00E94B7
:101070006501CE010F960E94650180E494E00E9414
:10108000650184ED91E060E070E00E94D30207C04A
:101090008BE494E00E946501C6010E946501C95A73
:1010A000DF4F0FB6F894DEBF0FBECDBFCF91DF91FB
:1010B0001F910F91FF90EF90DF90CF9008950F93C5
:1010C0001F938C0182E797E0B8010E942A03013048
:1010D000110529F482E797E00E94CA0648C0809172
:1010E0008306909184068E5F9F4F51F486E594E0CD
:1010F0000E9465018FEF9FEF909384068093830693
:1011000080918306909184068F5F9F4F41F482E720
:1011100097E00E94700590938406809383068091E7
:10112000830690918406892B21F482E797E00E9440
:1011300021078091830690918406019721F482E72C
:1011400097E00E9422068091830690918406029780
:1011500021F482E797E00E94BA088091830690917B
:101160008406039721F482E797E00E94B1051F915E
:101170000F910895EF92FF920F931F93DF93CF93F8
:10118000CDB7DEB7C356D0400FB6F894DEBF0FBE62
:10119000CDBF7C01DE011196E2EFF6E08AE101901D
:1011A0000D928150E1F78E01045C1F4F88E2D80157
:1011B0001D928A95E9F78DE48CAF81E48DAF80E2D2
:1011C0008EAF1FAEC701BE016F5F7F4F41E050E0A1
:1011D0000E944705873091056CF4833091050CF02F
:1011E000BBC081309105C1F082309105C4F4892BD8
:1011F00081F0A7C08A30910524F408970CF0ACC0A8
:101200008EC08A30910509F495C00B9709F099C0FA
:10121000A3C00E942901A0C08DEB92E09BC084E690
:1012200090E0A0EDB7E01197F1F70197D1F7C80171
:10123000BE01655E7F4F0E94540DC80168EB71E0EE
:101240000E94540DC80161E070E00E94D30202E3E5
:1012500010E0F801A0EDB7E01197F1F70197D1F791
:101260008091C80087FF16C081E090E00E945F086F
:1012700085ED93E061E070E00E94D302F801A0EDFB
:10128000B7E01197F1F70197D1F78091C800882353
:101290004CF403C08AE694E05DC081E090E00E94D7
:1012A0005F0825C08AEF93E00E94650120C085EDAC
:1012B00093E061E070E00E94D302F801A0EDB7E096
:1012C0001197F1F70197D1F78091C80087FF09C006
:1012D00081E090E00E945F080E9429018FE794E07E
:1012E00002C082E294E00E946501A89502C002E378
:1012F00010E0C70161E374E00E945F0D0097B9F24E
:1013000084E394E00E946501CE014B960E94650142
:1013100080E494E00E94650188E894E00DC0FE013D
:101320007B9681E2DF011D928A95E9F7CF010E9449
:101330004D0312C089E994E060E070E00E94D3029E
:101340000BC080EA94E00E946501C7010E9465011C
:1013500081EE92E00E946501CD59DF4F0FB6F894FF
:10136000DEBF0FBECDBFCF91DF911F910F91FF90D8
:10137000EF9008950F931F938C0161E070E00E943D
:10138000D3020E94290183EA94E00E946501C8010A
:101390000E94650188EB91E00E94650184E690E07F
:1013A000A0EDB7E01197F1F70197D1F781E090E058
:1013B0000E945F0888EE93E0A0EDB7E01197F1F787
:1013C0000197D1F71F910F9108950E946503A89589
:1013D000F8949091D60791708091D60789278093D1
:1013E000D6077894992361F4F894909171079170DD
:1013F000809171078927809371077894992311F060
:101400000E947B02F8949091D60792708091D60743
:1014100089278093D6077894992331F08AEA94E05B
:1014200060E070E00E94D302F8949091D607947027
:101430008091D60789278093D6077894992311F055
:101440000E942901F8949091D60798708091D60750
:1014500089278093D6077894992351F08DEA94E0F8
:101460000E94650180E796E063E276E00E94980BB7
:10147000F8949091D60790718091D6078927809330
:10148000D6077894992321F080E796E00E94130C08
:10149000F8949091D60790728091D607892780930F
:1014A000D6077894992361F4F8949091710790721B
:1014B000809171078927809371077894992321F08F
:1014C00080E796E00E94E00BF8949091D607907424
:1014D0008091D60789278093D6077894992361F461
:1014E000F894909171079074809171078927809387
:1014F00071077894992321F080E796E00E94B70B5A
:10150000F8949091D60790788091D6078927809398
:10151000D6077894992321F080E796E00E94A60BE5
:101520008091C00087FF04C080E090E00E945F08C7
:101530008091C80087FF4BCF81E090E00E945F0858
:1015400046CFEF92FF920F931F93CF93DF93EC015F
:1015500086B590E00E942B0D30EDE32E37E0F32EA0
:1015600017C00E94260D61EF70E00E94710C8C0183
:10157000065F1F4F88810E94310180E090E004C027
:10158000F7013197F1F7019680179107CCF3219677
:101590008881882331F7DF91CF911F910F91FF90C0
:1015A000EF90089588EE93E028EC30E0F901319750
:1015B000F1F70197D9F78EEB94E00E94A10A80ED34
:1015C00097E028EC30E0F9013197F1F70197D9F76E
:1015D0008AEC94E00E94A10A88E893E128EC30E0CC
:1015E000F9013197F1F70197D9F78CED94E00E945A
:1015F000A10A80E797E128EC30E0F9013197F1F793
:101600000197D9F70E94290108959F92AF92BF9246
:10161000CF92DF92EF92FF920F931F93CF93DF93BE
:101620007C01FC01C480D580BB24992452C0E92DE3
:10163000F0E0E217F3070CF06BC08F01040F151FE9
:101640009394F801EE0FFF1FE00FF11F63E0EE0F20
:10165000FF1F6A95E1F7EC0DFD1D858181FDE7CF48
:10166000F70161816B0D80810E941501F701A38054
:10167000AA94F601218130E02F5F3F4F808190E0F6
:10168000890D911D2817390711F48AE201C080E203
:101690000E943101E801CC0FDD1FC00FD11F219640
:1016A00083E0CC0FDD1F8A95E1F7CC0DDD1D10E046
:1016B00006C08991882331F00E9431011F5F1A15FD
:1016C000C0F306C080E20E9431011F5F1A15D0F3FB
:1016D000B394F7018281B816D8F4F6018081482FBF
:1016E00050E08281282F30E0241B350BA0CFF7017A
:1016F00061816B0D80810E94150110E004C080E2C1
:101700000E9431011F5FF70183811817C0F3B39462
:10171000F7018281B81658F3DF91CF911F910F9195
:10172000FF90EF90DF90CF90BF90AF909F90089583
:10173000FC01DB018481958114969C938E93139711
:1017400075836483CF010E94050B0895DC01149614
:10175000ED91FC91159783819481009739F015964E
:101760009C938E931497CD010E94050B0895CF93FF
:10177000DF93EC01AC81BD8111962C91119722234E
:10178000E1F02150822F90E0FC01EE0FFF1FE80FE7
:10179000F91F83E0EE0FFF1F8A95E1F7EA0FFB1FA9
:1017A000858181FDECCF11962C9311978C91281790
:1017B00008F42C93CE010E94050BDF91CF91089580
:1017C000CF93DF93EC01AC81BD8111962C911197E1
:1017D00012969C9112972F5F291710F5422F50E017
:1017E000FA01EE0FFF1FE40FF51F63E0EE0FFF1F7E
:1017F0006A95E1F7EA0FFB1F858181FDECCF119619
:101800002C9311973A818C9190E0830F911D48178A
:1018100059071CF0231B2F5F2C93CE010E94050B50
:10182000DF91CF9108950F931F93CF93DF938C0196
:10183000FC01C481D581898190E09C01220F331F76
:10184000280F391FD901F3E0AA0FBB1FFA95E1F762
:10185000AC0FBD1F15968C91159780FF08C05B9645
:101860006D917C915C97C8010E94980B13C0C901CF
:101870000196E3E0880F991FEA95E1F7C80FD91F99
:101880001696ED91FC9117975B968D919C915C97C4
:10189000BE010995C8010E94050BDF91CF911F91F0
:1018A0000F910895629FD001739FF001829FE00D18
:1018B000F11D649FE00DF11D929FF00D839FF00DCF
:1018C000749FF00D659FF00D9927729FB00DE11D7B
:1018D000F91F639FB00DE11DF91FBD01CF01112458
:1018E000089597FB092E07260AD077FD04D027D04C
:1018F00006D000201AF4709561957F4F0895F6F791
:10190000909581959F4F089597FB092E05260ED03F
:1019100057FD04D028D00AD0001C38F450954095CB
:10192000309521953F4F4F4F5F4F0895F6F79095B3
:101930008095709561957F4F8F4F9F4F0895AA1B9B
:10194000BB1B51E107C0AA1FBB1FA617B70710F0AA
:10195000A61BB70B881F991F5A95A9F780959095DC
:10196000BC01CD010895A1E21A2EAA1BBB1BFD01EB
:101970000DC0AA1FBB1FEE1FFF1FA217B307E4076E
:10198000F50720F0A21BB30BE40BF50B661F771FC6
:10199000881F991F1A9469F76095709580959095A6
:1019A0009B01AC01BD01CF010895A0E0B0E0EBEDDB
:1019B000FCE00C94EB0DEC01A880B980CA80DB80C0
:1019C000A114B104C104D10441F484E2A82E89ED2C
:1019D000B82E8BE5C82E87E0D82EC601B5012DE1C3
:1019E00033EF41E050E00E94840C27EA31E440E00C
:1019F00050E00E94520C7B018C01C601B5012DE123
:101A000033EF41E050E00E94840CCA01B9012CEE92
:101A100034EF4FEF5FEF0E94520C6E0D7F1D801F61
:101A2000911F97FF04C061507040804090486883C8
:101A300079838A839B839B013F77C901CDB7DEB74A
:101A4000EAE00C94070E0E94D50C089583E697E017
:101A50000E94D50C0895A0E0B0E0809363079093B6
:101A60006407A0936507B09366070895FC01882773
:101A70009927E89421912032E9F3293010F02E3093
:101A8000C8F32B3241F02D3239F4689404C00E941F
:101A9000CB0D820F911D219120532A30C0F31EF4EB
:101AA000909581959F4F0895FB01DC010D900020DA
:101AB000E9F7119701900D920020E1F70895FB01DD
:101AC000DC018D91019080190110D9F3990B0895D3
:101AD000FB01DC014150504030F08D9101908019A4
:101AE00019F40020B9F7881B990B0895FB019F0199
:101AF000E8944230C4F04532B4F44A3029F497FBFC
:101B00001EF4909581959F4F642F77270E949F0C1C
:101B1000805D8A330CF0895D8193CB010097A1F73A
:101B200016F45DE251931082C9010C94D30DFA01B1
:101B3000CF93FF93EF93223044F1253234F5C22F37
:101B4000E894CA3049F497FB3EF4909580957095DF
:101B500061957F4F8F4F9F4F2C2F33274427552759
:101B6000FF93EF930E94B30CEF91FF91605D6A3396
:101B70000CF0695D6193B901CA016050704080400A
:101B8000904051F716F4CDE2C19310828F919F914E
:101B9000CF910C94D30D7AE0979F902D879F802D45
:101BA000910D11240895DC01FC01672F71917723B9
:101BB000E1F7329704C07C916D9370836291AE1708
:101BC000BF07C8F308952F923F924F925F926F9292
:101BD0007F928F929F92AF92BF92CF92DF92EF92BD
:101BE000FF920F931F93CF93DF93CDB7DEB7CA1B3E
:101BF000DB0B0FB6F894DEBF0FBECDBF09942A8869
:101C0000398848885F846E847D848C849B84AA8410
:101C1000B984C884DF80EE80FD800C811B81AA819D
:101C2000B981CE0FD11D0FB6F894DEBF0FBECDBF68
:081C3000ED010895F894FFCFC7
:101C380031480A005374617475732067656D656C6B
:101C48006465742100202020202020202020302CB2
:101C5800202020202020202020302C4B2C4B2C52C0
:101C68000D0A00202020202020202020392C202090
:101C780020202020202020302C4B2C4B2C520D0AC9
:101C880000202020202020202039392C202020202E
:101C98002020202020302C4B2C4B2C520D0A0020C9
:101CA8002020202020203939392C202020202020D5
:101CB800202020302C4B2C4B2C520D0A0020393977
:101CC800393939393939392C202020202020202051
:101CD80020302C4B2C4B2C520D0A00315F4D494EB5
:101CE8005F53504545443A000A00315F4D41585F03
:101CF80053504545443A00315F4143435F53504593
:101D080045443A00300D0A00323030300000536547
:101D18006C65637465643A20004D616E75656C6C22
:101D28006572204D6F6475730A004175666E61684F
:101D38006D65207374617274656E0A004E61636824
:101D4800204175666E61686D652053573320647253
:101D5800EFBFBD636B656E210A004D203136303010
:101D6800300D00300041636873653A200020285226
:101D78006F746174696F6E290A002028486F65685E
:101D880065292020200A00546573743A2000576999
:101D98006C6C6B6F6D6D656E20696D205465726D2E
:101DA800696E616C204D6F6475730D0A006DEFBF2D
:101DB800BD676C696368652042656665686C652007
:101DC80073696E643A200D0A002041202D204D6F62
:101DD800746F727374617475730D0A204D202D2011
:101DE8004D6F76652053746570730D0A00546573E2
:101DF800742062657374616E64656E2020202020F3
:101E08000A00546573742062657374616E64656E4C
:101E180000202020202020200A00210021540053E7
:101E28007461747573616266726167652020202031
:101E3800200A00483A20202020202020202020208E
:101E48002020202020200A004D6F746F72207374A8
:101E5800617274656E0A005F4D6F7665210A004DE8
:101E6800203136303030300D0A00522F423F0052B8
:101E78000D0A00483120656D7066616E67656E20D9
:101E88002020202020200A00555F423A20002145CA
:101E98004E44202020202020200A004572666F6CC6
:101EA8006772656963680A004572726F720A003169
:101EB8000D0A00546573742062657374616E6465FD
:101EC8006E0A00416E74776F72743A2000210A001E
:101ED800526573657276650D0A00546573742062E5
:101EE800657374616E64656E0D0A00496E697400ED
:101EF800537461747573616266726167653A202014
:101F08002020200A00410A003023004665686C67DB
:101F1800657363686C6167656E20202020200A0065
:101F28002D310D0A00506F733A004B65696E6520BC
:101F38004265776567756E67210A0072756E6E690E
:101F48006E6720746F0A00506F736974696F6E3A18
:101F580020004B65696E6520416E74776F72740A54
:101F680000312300506F736974696F6E3A200A005C
:101F78002045727265696368740A004953454C3A92
:101F8800202020200A00556E62656B616E6E7465B4
:101F980072204D6F746F72210A0042656665686C25
:101FA800206E2E206265737461657469670A007219
:101FB800756E6E696E670A000D0A3E200D0A3E2096
:101FC8000D0A3E200D0A3E20004543484F300D00C3
:101FD8005A3A0053656E643A2000300A004265742C
:101FE80072657465204D656EEFBFBD210A004865B6
:101FF8006C6C6F204A6F65210A0048617665206124
:10200800206E69636520446179210A004265206178
:1020180020486F6E657920426565210A004D2031A0
:1020280032353030300A004D202D313235303030E5
:102038000A004D2031303030300A004D202D31302B
:102048003030300A004D4120300A00000005000001
:1020580000BA092B39300000000000000000000021
:10206800000000000000ED0400BA092D393000001E
:102078000000000000000000000000000000F7045D
:1020880000BA092B31302E30303020536368726922
:10209800747465000000020500BA092D31302E3035
:1020A80030302053636872697474650000000B0552
:1020B80000BA0947656865207A756D205572737096
:1020C80072756E6700001505440A00510A004E201B
:1020D800310A003F0A00000004000000BA094D6FF1
:1020E800746F7273746174757300000000000000EF
:1020F80000D50300BA095365747A65205572737068
:1021080072756E670000000000980500BA095772E2
:1021180069746520746F20454550524F4D0000008A
:10212800009B0500BA094E65776C696E6520310021
:102138000000000000000000009E0500BA09506180
:1021480072612E206175736C6573656E0000000006
:1021580000A30500000300000100004265776567E1
:10216800656E202D20526F746174696F6E001B05B7
:102178000100004265776567656E202D20486F6510
:102188006865000000001B050100004B6F6E666962
:10219800677572696572656E000000000000A6052B
:1021A80000000413000004077C00000000077C0006
:1021B800000000FFFF40303100513A004543484FCE
:1021C8003000215465726D696E616C008506890660
:1021D8008C069206000021434C530054657374002A
:1021E800214D616E75616C00215959595900A60637
:1021F800AB06B006B8060000474F005741495400E7
:10220800215858585800434F4D4558004D4131000A
:102218004431313235004138005638005053455466
:102228003000A606AB06C806CB06D006D606DC06E6
:10223800E006E606E9068C06EC06000054657374B1
:102248003200443A3200483A0047004D3A004831DB
:10225800000C07A606AB0689061207160719071B06
:1022680007EA021E070000585858585858580040A6
:1022780030520040304D003707A606AB0685063FB2
:1022880007430700002300450055075707A606AB7C
:08229800060000010000000037
:00000001FF
