:100000000C943E000C945B000C945B000C945B0021
:100010000C945B000C945B000C94D9030C940304C7
:100020000C942D040C945B000C945B000C945B000E
:100030000C945B000C945B000C945B000C945B00D4
:100040000C945B000C945B000C9474010C945B00AA
:100050000C945B000C945B000C945B000C945B00B4
:100060000C945B000C945B000C945B000C945B00A4
:100070000C945B000C945B000C945B0011241FBE7D
:10008000CFEFD8E0DEBFCDBF18E0A0E0B1E0E6E8FA
:10009000FCE102C005900D92A030B107D9F718E03D
:1000A000A0E0B8E001C01D92AE36B107E1F70E94B2
:1000B0005C0A0C94410E0C940000662311F0469AE1
:1000C00001C0469845983B9A3A9A399A389A40988E
:1000D00041984298439887FD409A86FD419A85FD54
:1000E000429A84FD439A449A00C0449840984198AB
:1000F0004298439883FD409A82FD419A81FD429A3D
:1001000080FD439A449A00C04498439A429A419A87
:10011000409A0895882311F0469A01C04698459A5E
:100120003B983A9839983898449A00C0339B02C05B
:1001300080E101C080E03299806231998064309919
:100140008068449800C0449A00C033998160329915
:10015000826031998460309988604498089580E085
:100160000E948A0087FDFBCF82E090E00197F1F7C3
:1001700080E00E948A0008951F93182F0E94AF000C
:10018000812F60E00E945D001F9108951F93182F3A
:100190000E94AF00812F61E00E945D001F910895D1
:1001A000662311F4805809C0613011F4805405C0F1
:1001B000623011F48C5601C08C520E94BC0008952C
:1001C0000E94AF0090E0089581E00E94BC00089575
:1001D00082E00E94BC0008951F93182F0E94AF0078
:1001E000982F1A3099F4843110F480E40BC08054B5
:1001F000843110F484E106C094519C3210F080E008
:1002000001C084E580580E94BC0018C0833111F4FD
:1002100080EC0BC0833511F484E907C0873211F4F8
:1002200084ED03C0873621F480E860E00E945D0021
:100230000E94AF00812F61E00E945D001F91089530
:10024000CF93DF93EC0102C00E94EC0089918823D8
:10025000D9F7DF91CF910895CF93DF93EC0102C0DE
:100260000E94EC00FE01219684918823C9F7DF915A
:10027000CF9108951F93182F3E9A3D9A3C9A3B9A2E
:100280003A9A399A389A80E89EE30197F1F7429AB0
:10029000439A449A00C0449880E893E10197F1F7AB
:1002A000449A00C0449880E490E0FC013197F1F753
:1002B000449A00C04498FC013197F1F74398449A5E
:1002C00000C044980197F1F788E20E94BC0088E0E2
:1002D0000E94BC000E94E40086E00E94BC00812FC6
:1002E0000E94BC001F9108951F920F920FB60F92AB
:1002F00011242F938F939F9382EB86BD80916D087D
:1003000020B120952827809106088223809580932C
:100310000608909105089223982790930508822358
:10032000892390916D08982790936D0820916C080F
:1003300090916D088923822B80936C0880916D08C1
:10034000877819F482E3809304088091040881502F
:1003500080930408882359F484E1809304089091E1
:10036000070880916D088778892B809307089F91F3
:100370008F912F910F900FBE0F901F901895F894AA
:1003800090916C08892390916C08982790936C0841
:1003900078940895F894909107088923909107081C
:1003A00098279093070878940895F89490916D0891
:1003B000F89420916C0890958923822390916C0881
:1003C000982790936C0878940895982FF8948091CA
:1003D0000708982380910708892780930708789455
:1003E000F89480916C08892390916C0898279093D9
:1003F0006C08789408951092C50023E32093C400FC
:1004000096E09093C200E1ECF0E080818860808308
:100410008081806180831092CD002093CC009093E6
:10042000CA00E9ECF0E0808188608083808180618F
:1004300080830895982F672B39F48091C00085FF41
:10044000FCCF9093C60008958091C80085FFFCCF33
:100450009093CE0008950F931F93CF93DF93EC01F9
:100460008B0104C0B8010E941A022196888188235A
:10047000C9F7DF91CF911F910F910895009739F43B
:100480008091C00087FFFCCF8091C6000BC0019710
:1004900019F02FEF3FEF08C08091C80087FFFCCF15
:1004A0008091CE00282F30E0C9010895EF92FF928D
:1004B0000F931F93CF93DF938C017B01C0E0D0E0BB
:1004C000C7010E943E028D3021F0F80181938F0117
:1004D0002196C436D10524F48D3011F08A3081F78D
:1004E000F8011082F1E0EF16F10411F42B9A01C02B
:1004F0002A9ADF91CF911F910F91FF90EF9008956D
:1005000080E091E060E070E00E942B02089541E0FD
:1005100050E0A8ECB0E061E070E021C0FD0131974F
:10052000F1F70197D9F725B1CB01042E02C0880F4E
:10053000991F0A94E2F78095822385B925B141502D
:100540005040CB01042E02C0880F991F0A94E2F795
:10055000282B25B94E5F5F4F4930510519F080E2D5
:1005600093E0DCCF089581B111B882B18FEF82B9E9
:1005700085E085BD83EF86BDEEE6F0E08081816099
:1005800080837894089585B1880F8E3F08F4816048
:1005900085B90895F894A895E0E6F0E08081886137
:1005A000808389E68083789408950F931F938B014D
:1005B0000E94E4008EE191E00E942001C8010E94A7
:1005C00020018EEE92E0A0EDB7E01197F1F70197D0
:1005D000D1F71F910F91089589E291E00E942001C7
:1005E0008AE391E00E9420018DE491E00E942001C5
:1005F0008CE591E00E942001F89490916C08907134
:1006000080916C08892780936C087894992331F045
:100610008EE691E061E070E00E942B020895CF9297
:10062000DF92EF92FF920F931F93DF93CF93CDB79B
:10063000DEB761970FB6F894DEBF0FBECDBF6C0179
:1006400082E390E3A0E3B0E08E839F83A887B9871D
:100650001B861A86DE011C96E4EAF1E085E0019033
:100660000D928150E1F7198A82E390E3A0E3B0E0B4
:1006700089839A83AB83BC831D8284E0E82EF12CAE
:10068000A0E0B0E09E012A5F3F4FF601EE0DFF1D96
:100690008081863441F0F901EA0FFB1F80831196B7
:1006A0000894E11CF11CA630B10524F4882311F054
:1006B000863459F78E010A5F1F4FA00FB11F1C929D
:1006C00087E791E00E942001C8010E94200184E890
:1006D00091E00E9420010894E11CF11CA0E0B0E030
:1006E0009E01245F3F4FF601EE0DFF1D8081823594
:1006F00041F0F901EA0FFB1F80830894E11CF11C13
:100700001196A630B10524F4882311F0823559F7EB
:100710008E01045F1F4FA00FB11F1C9286E891E06D
:100720000E942001C8010E94200184E891E00E94FB
:100730002001C7010196A0E0B0E0AE014F5F5F4F1E
:10074000F601E80FF91F2081233531F0FA01EA0F95
:10075000FB1F208301961196A430B10524F42223B7
:1007600011F0233569F78E010F5F1F4FA00FB11FE6
:100770001C9283E991E00E942001C8010E9420019F
:1007800084E891E00E94200180EA91E060E070E05E
:100790000E942B0261960FB6F894DEBF0FBECDBF4C
:1007A000CF91DF911F910F91FF90EF90DF90CF904D
:1007B00008951F920F920FB60F9211242F933F931B
:1007C0004F935F936F937F938F939F93AF93BF9359
:1007D000EF93FF938AEA91E00E94200185B198E0AF
:1007E000892785B9FF91EF91BF91AF919F918F912B
:1007F0007F916F915F914F913F912F910F900FBE1D
:100800000F901F9018951F920F920FB60F92112400
:100810002F933F934F935F936F937F938F939F9308
:10082000AF93BF93EF93FF9381ED91E00E9420017E
:1008300085B198E0892785B9FF91EF91BF91AF917C
:100840009F918F917F916F915F914F913F912F91E8
:100850000F900FBE0F901F9018951F920F920FB61A
:100860000F9211242F933F934F935F936F937F9336
:100870008F939F93AF93BF93EF93FF932C9888EF41
:1008800091E00E942001FF91EF91BF91AF919F9164
:100890008F917F916F915F914F913F912F910F9029
:1008A0000FBE0F901F901895EF92FF920F931F931A
:1008B000CF93DF93EC0186B590E00E94160D90ED8A
:1008C000E92E97E0F92E17C00E94110D61EF70E03C
:1008D0000E945C0C8C01065F1F4F88810E94EC0017
:1008E00080E090E004C0F7013197F1F7019680179E
:1008F0009107CCF321968881882331F7DF91CF913E
:100900001F910F91FF90EF90089588EE93E028ECEF
:1009100030E0F9013197F1F70197D9F783E292E0DE
:100920000E94540480E797E128EC30E0F901319708
:10093000F1F70197D9F70E94E4008FE292E00E945C
:10094000540408950E94CA028FEF84B985B9E3E781
:10095000F0E0808180618083E8E6F0E0808188605B
:1009600080833F9A88B1807888B98EE00E943A01EE
:100970000E9485040E9487020E94B3020E94FB012C
:1009800008950F931F93CF93DF938C01C0E0D0E0C5
:10099000DE011196FD01E85FF74FE081EC3211F4C2
:1009A000DE0103C0C00FD11FE883A431B10534F4C8
:1009B000EE2321F0EC3211F0ED01EACFA00FB11FD0
:1009C0001C92C8010E943F0D29E030E040E050E059
:1009D0000E946F0CCA01B901A8012AE030E00E9410
:1009E000A90DDF91CF911F910F9108958F929F9242
:1009F000AF92BF92CF92DF92EF92FF920F931F932D
:100A0000CF93DF938C01EB014A0187E392E00E94D0
:100A1000210D892B61F489E392E00E94200187E394
:100A200092E00E94200181E492E00E94200187E38D
:100A300092E00E94210D019761F489E392E00E9407
:100A4000200187E392E00E9420018EE492E00E9460
:100A500020018BE592E00E942001CE010E9420013E
:100A6000A0E0B0E0F801EA0FFB1F83818C3229F08F
:100A7000FE01EA0FFB1F80831196A431B10524F417
:100A8000882311F08C3271F7AC0FBD1F1C92CE0180
:100A90000E943F0D7B018C0127EC35E141E050E0E5
:100AA0000E943D0C5B016C01C801B70120E23CE1F2
:100AB00040E050E00E946F0CCA01B901A4012AE095
:100AC00030E00E94A90DC601B50120E034E040E00D
:100AD00050E00E946F0CCA01B901AE012AE030E07B
:100AE0000E94A90DDF91CF911F910F91FF90EF9080
:100AF000DF90CF90BF90AF909F908F900895CF924E
:100B0000DF92EF92FF920F931F93CF93DF936C01CD
:100B10007A018B01CFEFDFEF08C0C601A7010E9469
:100B20007A0D0E5F1F4F009749F02196F801608102
:100B300071816115710589F7C3E6D0E0CE01DF91BF
:100B4000CF911F910F91FF90EF90DF90CF9008957C
:100B5000DF93CF93CDB7DEB72A970FB6F894DEBFF9
:100B60000FBECDBFDE011196E5E3F7E02AE001906C
:100B70000D922150E1F7BE016F5F7F4F43E050E0DF
:100B80000E947F058130910561F0823091051CF44F
:100B9000892B51F012C08230910549F0039769F416
:100BA00009C021E030E00BC020E030E008C022E0C6
:100BB00030E005C023E030E002C02EEF3FEFC90176
:100BC0002A960FB6F894DEBF0FBECDBFCF91DF914E
:100BD00008950F931F93DF93CF93CDB7DEB72A9776
:100BE0000FB6F894DEBF0FBECDBF8C01DE011196AB
:100BF000E7E5F7E08AE001900D928150E1F78091FE
:100C0000020890910308892BC1F481E090E0909351
:100C100003088093020882E692E060E070E00E94A0
:100C20002B0281E892E060E070E00E942B028DE9E7
:100C300092E060E070E00E942B02C801BE016F5F8D
:100C40007F4F42E050E00E947F058130910561F0C6
:100C5000823091051CF4892B21F00FC004976CF4AD
:100C60001EC00E94E4001BC081EC92E00E942001A3
:100C700086ED92E060E070E010C0C8010E942001A3
:100C800085EE92E00E942001C80161E070E00E94C0
:100C90002B0284E891E061E070E00E942B022A962A
:100CA0000FB6F894DEBF0FBECDBFCF91DF911F917D
:100CB0000F9108950F931F93DF93CF93CDB7DEB7B6
:100CC000A0970FB6F894DEBF0FBECDBF8C01DE013A
:100CD0001B96EAEBF7E086E101900D928150E1F777
:100CE000C801BE01655F7F4F42E050E00E947F0572
:100CF00084309105C1F18530910584F481309105EE
:100D000029F1823091051CF4892BE9F065C082300D
:100D10009105F9F0039709F05FC01EC08730910577
:100D200081F1883091053CF48530910501F10697F9
:100D300009F052C023C08830910509F43FC00997DB
:100D400009F04AC046C08EEE92E04FC00E94E40017
:100D50004EC080EF92E049C083EF92E00E942001F4
:100D60000E94800244C0C8010E940F0340C087E077
:100D700093E00E94200180EA91E026C08CE193E09C
:100D800034C0809100089091010801969093010869
:100D9000809300088E010F5F1F4FB8014AE050E0BA
:100DA0000E94880DC8010E9420018BE293E00E94FE
:100DB000200183E393E061E070E008C08EE393E0FC
:100DC0000E94200183E493E060E070E00E942B0227
:100DD0000EC087E493E009C08CE593E00E942001F7
:100DE000C8010E94200182E693E00E942001A096A3
:100DF0000FB6F894DEBF0FBECDBFCF91DF911F912C
:100E00000F910895DF93CF93CDB7DEB72A970FB632
:100E1000F894DEBF0FBECDBFDE011196E2EFF7E022
:100E20002AE001900D922150E1F7BE016F5F7F4FE4
:100E300041E050E00E947F058130910579F08230D9
:100E400091051CF4892B39F01CC08230910589F082
:100E50000397B9F411C08FE693E010C08CE793E0DC
:100E60000E94200183E893E060E070E00E942B0282
:100E700010C00E94E4000DC087E893E00E942001AA
:100E800008C08AE090E0A0EDB7E01197F1F7019774
:100E9000D1F72A960FB6F894DEBF0FBECDBFCF9123
:100EA000DF910895CF92DF92EF92FF920F931F93FD
:100EB000DF93CF93CDB7DEB7CD55D0400FB6F894C2
:100EC000DEBF0FBECDBF6C01DE011796E0EEF7E08E
:100ED0008EE001900D928150E1F7C601BE01695F7D
:100EE0007F4F43E050E00E947F0582309105C9F0BA
:100EF0008330910534F4009771F0019709F001C136
:100F00000DC084309105F9F0843091058CF005977F
:100F100009F0F7C041C087E993E0F4C00E94E40003
:100F2000F3C087E893E00E94200181EA93E0E4C0E7
:100F30008AE090E0A0EDB7E01197F1F70197D1F7C3
:100F400082EB93E0D5C087EB93E00E9420018CEC0C
:100F500093E061E070E00E942B0282E390E0A0ED5C
:100F6000B7E01197F1F70197D1F78091C80087FF9B
:100F700004C081E090E00E949408C6016FEC73E029
:100F80000E94710D009709F4B5C082ED93E00E94B4
:100F9000200183E893E0B0C08AE090E0A0EDB7E0E4
:100FA0001197F1F70197D1F735E1E32EF12CEC0E13
:100FB000FD1E81E2D7011D928A95E9F7FE01319667
:100FC00086E0DF011D928A95E9F7C601B701AF01FE
:100FD0000E94F6048E010A5C1F4F88E2F80111920C
:100FE0008A95E9F78DE48EAB81E48FAB80E288AF20
:100FF00019AEC801B7010E94660DC80164E871E02E
:101000000E94660D87EE93E00E942001C8010E94B5
:101010002001C80161E070E00E942B0202E310E0B1
:10102000F801A0EDB7E01197F1F70197D1F78091A2
:10103000C80087FF69C081E090E00E9494088CECB2
:1010400093E061E070E00E942B02F801A0EDB7E0B0
:101050001197F1F70197D1F78091C80087FF05C07C
:1010600081E090E00E9494082CC08CEE93E00E94F6
:10107000200127C08CEC93E061E070E00E942B021D
:10108000F701A0EDB7E01197F1F70197D1F7809143
:10109000C80087FF10C081E090E00E9494080E9481
:1010A000E4008DEF93E00E942001C8010E9420011E
:1010B00084E891E002C08EE094E00E942001A895AF
:1010C00006C022E3E22EF12C8E010F5F1F4FC601F6
:1010D0006DE174E00E94710D009761F280E294E08E
:1010E0000E942001CE0101960E94200189E294E035
:1010F0000E94200180EA91E060E070E00E942B02F3
:1011000003C0C6010E942001C35ADF4F0FB6F894F6
:10111000DEBF0FBECDBFCF91DF911F910F91FF902A
:10112000EF90DF90CF9008950F931F938C0188E08C
:1011300098E0B8010E9456020130110529F488E0B8
:1011400098E00E94020748C080911C0790911D07FB
:101150008E5F9F4F51F484E394E00E9420018FEF53
:101160009FEF90931D0780931C0780911C0790911F
:101170001D078F5F9F4F41F488E098E00E94A8050B
:1011800090931D0780931C0780911C0790911D0769
:10119000892B21F488E098E00E94520780911C0777
:1011A00090911D07019721F488E098E00E945A066B
:1011B00080911C0790911D07029721F488E098E028
:1011C0000E941A0980911C0790911D07039721F432
:1011D00088E098E00E94E9051F910F9108950F9310
:1011E0001F938C0161E070E00E942B020E94E400DA
:1011F00088E494E00E942001C8010E94200184E854
:1012000091E00E94200184E690E0A0EDB7E0119704
:10121000F1F70197D1F781E090E00E94940888EE01
:1012200093E0A0EDB7E01197F1F70197D1F71F9187
:101230000F910895AF92BF92CF92DF92EF92FF92FB
:101240000F931F93DF93CF93CDB7DEB7C356D04034
:101250000FB6F894DEBF0FBECDBF7C01DE01119644
:10126000EBE8F7E08AE101900D928150E1F78E0101
:10127000045C1F4F88E2D8011D928A95E9F78DE43E
:101280008CAF81E48DAF80E28EAF1FAEC701BE018F
:101290006F5F7F4F41E050E00E947F0587309105EE
:1012A0006CF4833091050CF0F5C08130910501F1AB
:1012B0008230910504F5892BC1F0E1C08930910598
:1012C00009F4D7C08A30910544F48730910509F4B8
:1012D000C5C0089709F0D3C0DDC08A30910509F474
:1012E000CBC00B9709F0CBC0D5C00E94E400D2C0A0
:1012F00081EC92E0CDC084E690E0A0EDB7E01197DC
:10130000F1F70197D1F7C801BE01655E7F4F0E94DA
:10131000660DC80164E871E00E94660DC80161E0D5
:1013200070E00E942B0202E310E0F801A0EDB7E0AC
:101330001197F1F70197D1F78091C80087FF16C088
:1013400081E090E00E9494088CEC93E061E070E012
:101350000E942B02F801A0EDB7E01197F1F7019779
:10136000D1F78091C80088234CF403C08FE494E047
:101370008FC081E090E00E9494084CC08CEE93E016
:101380000E94200147C084E694E061E070E00E9482
:101390002B02F501A0EDB7E01197F1F70197D1F716
:1013A0008091C80087FF10C081E090E00E949408FF
:1013B0000E94E40087E694E00E942001C7010E9499
:1013C00020018CE794E002C08EE094E00E942001AE
:1013D000A8958CEC93E061E070E00E942B02F6018E
:1013E000A0EDB7E01197F1F70197D1F78091C80010
:1013F00087FF0AC081E090E00E949408C8010E9423
:10140000200184E891E002C08EE094E00E94200177
:10141000A89509C054E6A52EB12C42E3C42ED12CC8
:101420008E01055E1F4FC7016DE174E00E94710DD2
:10143000009709F4A8CF80E894E00E942001CE0133
:101440004B960E94200189E294E00E9420018CE8E2
:1014500094E060E070E00E942B021CC0FE017B96CD
:1014600081E2DF011D928A95E9F7CF010E94C10454
:1014700011C08DE994E00CC082EB94E009C087ECC8
:1014800094E00E942001C7010E9420018AEC94E0B0
:101490000E942001CD59DF4F0FB6F894DEBF0FBE7A
:1014A000CDBFCF91DF911F910F91FF90EF90DF9013
:1014B000CF90BF90AF9008950E94A204A895F89491
:1014C00090916C08917080916C08892780936C08CA
:1014D0007894992361F4F894909107089170809121
:1014E00007088927809307087894992351F08FEC97
:1014F00094E00E94200186E197E069EC76E00E948A
:10150000830BF89490916C08927080916C088927F5
:1015100080936C087894992321F086E197E00E94EB
:10152000910BF89490916C08947080916C088927C5
:1015300080936C087894992321F086E197E00E94CB
:10154000A20BF89490916C08987080916C08892790
:1015500080936C087894992361F4F894909107082B
:1015600098708091070889278093070878949923B9
:1015700021F086E197E00E94CB0BF89490916C08E3
:10158000907180916C08892780936C0878949923D6
:1015900061F4F89490910708907180910708892769
:1015A000809307087894992321F086E197E00E94C0
:1015B000FE0B8091C00087FF07C085B1847085B99C
:1015C00080E090E00E9494088091C80087FF76CF69
:1015D00085B1887085B981E090E00E9494086ECF53
:1015E0009F92AF92BF92CF92DF92EF92FF920F93B2
:1015F0001F93CF93DF937C01FC01C480D580BB2473
:10160000992452C0E92DF0E0E217F3070CF06BC00B
:101610008F01040F151F9394F801EE0FFF1FE00FC9
:10162000F11F63E0EE0FFF1F6A95E1F7EC0DFD1D62
:10163000858181FDE7CFF70161816B0D80810E947B
:10164000D000F701A380AA94F601218130E02F5F3A
:101650003F4F808190E0890D911D2817390711F4C3
:101660008AE201C080E20E94EC00E801CC0FDD1F9D
:10167000C00FD11F219683E0CC0FDD1F8A95E1F7C3
:10168000CC0DDD1D10E006C08991882331F00E9449
:10169000EC001F5F1A15C0F306C080E20E94EC0048
:1016A0001F5F1A15D0F3B394F7018281B816D8F4EE
:1016B000F6018081482F50E08281282F30E0241BE2
:1016C000350BA0CFF70161816B0D80810E94D000A6
:1016D00010E004C080E20E94EC001F5FF7018381EC
:1016E0001817C0F3B394F7018281B81658F3DF914D
:1016F000CF911F910F91FF90EF90DF90CF90BF900F
:10170000AF909F900895FC01DB0184819581149630
:101710009C938E93139775836483CF010E94F00A84
:101720000895DC011496ED91FC91159783819481C5
:10173000009739F015969C938E931497CD010E94D3
:10174000F00A0895CF93DF93EC01AC81BD8111962F
:101750002C9111972223E1F02150822F90E0FC017F
:10176000EE0FFF1FE80FF91F83E0EE0FFF1F8A95B2
:10177000E1F7EA0FFB1F858181FDECCF11962C93D9
:1017800011978C91281708F42C93CE010E94F00A2F
:10179000DF91CF910895CF93DF93EC01AC81BD81B0
:1017A00011962C91119712969C9112972F5F2917E1
:1017B00010F5422F50E0FA01EE0FFF1FE40FF51F66
:1017C00063E0EE0FFF1F6A95E1F7EA0FFB1F8581CB
:1017D00081FDECCF11962C9311973A818C9190E07A
:1017E000830F911D481759071CF0231B2F5F2C9363
:1017F000CE010E94F00ADF91CF9108950F931F93BD
:10180000CF93DF938C01FC01C481D581898190E065
:101810009C01220F331F280F391FD901F3E0AA0FB3
:10182000BB1FFA95E1F7AC0FBD1F15968C9115976C
:1018300080FF08C05B966D917C915C97C8010E9407
:10184000830B13C0C9010196E3E0880F991FEA9545
:10185000E1F7C80FD91F1696ED91FC9117975B968B
:101860008D919C915C97BE010995C8010E94F00A78
:10187000DF91CF911F910F910895629FD001739FC7
:10188000F001829FE00DF11D649FE00DF11D929F1C
:10189000F00D839FF00D749FF00D659FF00D99275B
:1018A000729FB00DE11DF91F639FB00DE11DF91F7F
:1018B000BD01CF011124089597FB092E07260AD0F8
:1018C00077FD04D027D006D000201AF470956195DA
:1018D0007F4F0895F6F7909581959F4F089597FB58
:1018E000092E05260ED057FD04D028D00AD0001CA2
:1018F00038F450954095309521953F4F4F4F5F4FAD
:101900000895F6F790958095709561957F4F8F4F6C
:101910009F4F0895AA1BBB1B51E107C0AA1FBB1F05
:10192000A617B70710F0A61BB70B881F991F5A956B
:10193000A9F780959095BC01CD010895A1E21A2EDA
:10194000AA1BBB1BFD010DC0AA1FBB1FEE1FFF1F63
:10195000A217B307E407F50720F0A21BB30BE40BB3
:10196000F50B661F771F881F991F1A9469F76095FA
:101970007095809590959B01AC01BD01CF010895B4
:10198000A0E0B0E0E6ECFCE00C94120EEC01A880C4
:10199000B980CA80DB80A114B104C104D10441F430
:1019A00084E2A82E89EDB82E8BE5C82E87E0D82ECC
:1019B000C601B5012DE133EF41E050E00E946F0C0C
:1019C00027EA31E440E050E00E943D0C7B018C01AD
:1019D000C601B5012DE133EF41E050E00E946F0CEC
:1019E000CA01B9012CEE34EF4FEF5FEF0E943D0CBE
:1019F0006E0D7F1D801F911F97FF04C061507040C6
:101A000080409048688379838A839B839B013F77DA
:101A1000C901CDB7DEB7EAE00C942E0E0E94C00CCF
:101A200008958CEF97E00E94C00C0895A0E0B0E00C
:101A30008093FC079093FD07A093FE07B093FF07E8
:101A40000895FC0188279927E89421912032E9F331
:101A5000293010F02E30C8F32B3241F02D3239F4FA
:101A6000689404C00E94F20D820F911D21912053B1
:101A70002A30C0F31EF4909581959F4F08951F93CF
:101A8000FC0199278827BC01E89411911032E9F3F1
:101A9000193010F01E30C8F31B3251F01D3249F4DA
:101AA000689406C00E94DD0D610F711D811D911D9E
:101AB000119110531A30B0F33EF4909580957095C3
:101AC00061957F4F8F4F9F4F1F910895FB01DC0160
:101AD0000D900020E9F7119701900D920020E1F799
:101AE0000895FB01DC018D91019080190110D9F35B
:101AF000990B0895FB01DC014150504030F08D916D
:101B00000190801919F40020B9F7881B990B0895EA
:101B1000FB019F01E8944230C4F04532B4F44A30EE
:101B200029F497FB1EF4909581959F4F642F77279A
:101B30000E948A0C805D8A330CF0895D8193CB0111
:101B40000097A1F716F45DE251931082C9010C943D
:101B5000FA0DFA01CF93FF93EF93223044F125322F
:101B600034F5C22FE894CA3049F497FB3EF49095BF
:101B70008095709561957F4F8F4F9F4F2C2F332706
:101B800044275527FF93EF930E949E0CEF91FF91FE
:101B9000605D6A330CF0695D6193B901CA01605000
:101BA00070408040904051F716F4CDE2C19310820E
:101BB0008F919F91CF910C94FA0D592F482F372F69
:101BC000262F660F771F881F991F660F771F881FA4
:101BD000991F620F731F841F951F660F771F881F41
:101BE000991F08957AE0979F902D879F802D910DE2
:101BF00011240895DC01FC01672F71917723E1F72F
:101C0000329704C07C916D9370836291AE17BF07C9
:101C1000C8F308952F923F924F925F926F927F92F6
:101C20008F929F92AF92BF92CF92DF92EF92FF92EC
:101C30000F931F93CF93DF93CDB7DEB7CA1BDB0B98
:101C40000FB6F894DEBF0FBECDBF09942A8839883D
:101C500048885F846E847D848C849B84AA84B98444
:101C6000C884DF80EE80FD800C811B81AA81B98150
:101C7000CE0FD11D0FB6F894DEBF0FBECDBFED0164
:061C80000895F894FFCF67
:101C8600202020202020202020302C202020202032
:101C960020202020302C4B2C4B2C520D0A00536553
:101CA6006C65637465643A20004D616E75656C6C95
:101CB6006572204D6F6475730A004175666E6168C2
:101CC6006D65207374617274656E210A0044616EDD
:101CD6006163682053656C6563740A002D3E204479
:101CE600726568756E6720756D2034350A004D2063
:101CF60035353735300D00315F4D494E5F53504510
:101D060045443A000A00315F4D41585F53504545FE
:101D1600443A00315F4143435F53504545443A00DE
:101D2600300D0A003230303000004E65676174694C
:101D3600766520456E736368616C74657220506FBA
:101D4600736974696F6E2045727265696368742180
:101D560000506F73697469766520456E73636861B8
:101D66006C74657220506F736974696F6E2045726A
:101D76007265696368742100536F6D657468696E76
:101D8600672077656E74200A7465727269626C7971
:101D96002077726F6E67210A5265626F6F74696E83
:101DA60067210048656C6C6F204A6F65210A0052F6
:101DB60065616479210A00300041636873653A20E1
:101DC600002028526F746174696F6E290A002028FA
:101DD600486F656865292020200A00546573743AA7
:101DE600200057696C6C6B6F6D6D656E20696D2098
:101DF6005465726D696E616C204D6F6475730D0A62
:101E0600006DEFBFBD676C696368652042656665F6
:101E1600686C652073696E643A200D0A00204120C3
:101E26002D204D6F746F727374617475730D0A2073
:101E36004D202D204D6F76652053746570730D0A05
:101E460000546573742062657374616E64656E20F8
:101E5600202020200A005465737420626573746123
:101E66006E64656E00202020202020200A002100BC
:101E7600215400537461747573616266726167659B
:101E860020202020200A00483A2020202020202040
:101E9600202020202020202020200A004D6F746F53
:101EA60072207374617274656E0A005F4D6F766599
:101EB600210A004D203136303030300D0A00522FC5
:101EC600423F00520D0A00483120656D7066616E12
:101ED60067656E202020202020200A00555F423AA8
:101EE600200021454E44202020202020200A0045A5
:101EF60072666F6C6772656963680A004572726F15
:101F0600720A00310D0A0054657374206265737499
:101F1600616E64656E0A00526573657276650D0AB8
:101F260000546573742062657374616E64656E0D2A
:101F36000A00496E69740053746174757361626650
:101F4600726167653A20202020200A00410A00308D
:101F560023004665686C67657363686C6167656EC8
:101F660020202020200A00506F733A004B65696ECE
:101F760065204265776567756E67210A0047656863
:101F860065207A752057696E6B656C3A20004B6543
:101F9600696E6520416E74776F72740A0031230092
:101FA60057696E6B656C3A200020457272656963ED
:101FB60068740A00556E62656B616E6E7465722098
:101FC6004D6F746F72210A0053656E643A200042A9
:101FD600656665686C206E2E206265737461657433
:101FE60069670A00570A00506F736974696F6E2833
:101FF600416B742F476573293A200A00202F200071
:10200600506F736974696F6E3A200A000D0A3E209C
:102016000D0A3E200D0A3E200D0A3E200053706533
:102026006564207365742020202020202020202035
:102036000A004563686F206F6666202020202020F6
:1020460020202020200A005A3A002020200A0042A0
:10205600657472657465204D656E7565210A004D5F
:10206600203132353030300A004D202D31323530B6
:1020760030300A004D2031303030300A004D202DEE
:1020860031303030300A004D4120300A0000000562
:10209600000000EF082B39300000000000000000AF
:1020A6000000000000000000DF0400EF082D3930BA
:1020B600000000000000000000000000000000001A
:1020C600E90400EF082B31302E303030205363689E
:1020D6007269747465000000F40400EF082D313055
:1020E6002E303030205363687269747465000000C6
:1020F600FD0400EF0847656865207A756D20557206
:10210600737072756E6700000705324D20353030EA
:102116003030300A00324D202D3530303030300A24
:1021260000324D20313030303030300A00324D2010
:102136002D313030303030300A00324D4120300AF7
:1021460000000005000000EF082B3530302E30303F
:102156003000000000000000000000008A0500EFCB
:10216600082D3530302E30303000000000000000E1
:1021760000000000950500EF082B312E3030302E80
:10218600303030205363687269747465A10500EFBE
:10219600082D312E3030302E3030302053636872A7
:1021A60069747465AD0500EF0847656865207A7542
:1021B6006D205572737072756E670000BA05440A19
:1021C60000510A004E20310A003F0A0000000400B8
:1021D6000000EF084D6F746F72737461747573004D
:1021E60000000000000000CC0300EF085365747A7D
:1021F60065205572737072756E6700000000003EB0
:102206000600EF08577269746520746F20454550C3
:10221600524F4D00000000410600EF084E65776CF6
:10222600696E6520310000000000000000000044D7
:102236000600EF08506172612E206175736C65733C
:10224600656E000000000049060000030000010062
:10225600004265776567656E202D20526F74617444
:10226600696F6E000D050100004265776567656E52
:10227600202D20486F65686500000000C10501003B
:10228600004B6F6E6669677572696572656E0000F0
:10229600000000004C06000004130000FFFF403061
:1022A6003100513A004543484F3000215465726D64
:1022B600696E616C001E07220725072B07000021A7
:1022C600434C53005465737400214D616E75616C07
:1022D600002159595959003F07440749075107003A
:1022E60000474F0057414954002158585858004359
:1022F6004F4D4558004D4131004431313235004192
:1023060038005638005053455430003F07440761A3
:1023160007640769076F07750779077F078207252F
:102326000785070000546573743200443A3200484A
:102336003A0047004D3A00483100A5073F074407D9
:102346002207AB07AF07B207B407EE02B7070000D4
:1023560058585858585858004030520040304D0090
:10236600D0073F0744071E07D807DC0700002300F5
:102376004500EE07F0073F07440700000100000094
:00000001FF
